:020000040800F2
:1000000000000220F92C0008492D0008492D0008A5
:10001000492D0008492D0008492D00080000000066
:10002000000000000000000000000000492D000852
:10003000492D000800000000492D0008492D000846
:10004000492D0008492D0008492D0008492D0008B8
:1000500000000000492D0008311C0008511C000858
:10006000711C0008911C0008B11C0008390C000824
:10007000250D0008110E0008FD0E0008E90F00080C
:10008000B510000881110008492D0008492D00080D
:10009000492D0008492D0008492D0008D11C0008F1
:1000A000492D0008492D0008492D0008492D000858
:1000B000492D0008492D0008492D0008492D000848
:1000C000492D0008492D0008492D0008492D000838
:1000D000492D000811200008492D0008492D00086D
:1000E000091D0008492D0008492D0008492D000868
:1000F000492D0008492D0008492D00084D1200081F
:10010000492D0008492D0008492D0008492D0008F7
:10011000351F0008492D0008492D0008492D000809
:100120001913000805140008D11400089D150008D3
:1001300089160008492D0008492D0008492D00089E
:10014000492D0008492D0008492D0008492D0008B7
:100150005517000821180008ED180008492D00085F
:10016000492D0008492D0008492D0008492D000897
:10017000492D0008492D0008492D0008492D000887
:08018000492D0008492D00087B
:1001880010B5054C237833B9044B13B10448AFF3C9
:1001980000800123237010BD04000020000000002F
:1001A800A82E000808B5034B1BB103490348AFF359
:1001B800008008BD0000000008000020A82E0008EC
:1001C80081F0004102E000BF83F0004330B54FEA00
:1001D80041044FEA430594EA050F08BF90EA020F6D
:1001E8001FBF54EA000C55EA020C7FEA645C7FEA00
:1001F800655C00F0E2804FEA5454D4EB5555B8BF23
:100208006D420CDD2C4480EA020281EA030382EA93
:10021800000083EA010180EA020281EA0303362D25
:1002280088BF30BD11F0004F4FEA01314FF4801CF8
:100238004CEA113102D0404261EB410113F0004F0A
:100248004FEA03334CEA133302D0524263EB4303C1
:1002580094EA050F00F0A780A4F10104D5F1200E5F
:100268000DDB02FA0EFC22FA05F2801841F10001BA
:1002780003FA0EF2801843FA05F359410EE0A5F18E
:1002880020050EF1200E012A03FA0EFC28BF4CF0BF
:10029800020C43FA05F3C01851EBE37101F0004575
:1002A80007D54FF0000EDCF1000C7EEB00006EEB82
:1002B8000101B1F5801F1BD3B1F5001F0CD349080C
:1002C8005FEA30004FEA3C0C04F101044FEA445263
:1002D80012F5800F80F09A80BCF1004F08BF5FEAEA
:1002E800500C50F1000041EB045141EA050130BDCA
:1002F8005FEA4C0C404141EB0101013C28BFB1F5DC
:10030800801FE9D291F0000F04BF01460020B1FA26
:1003180081F308BF2033A3F10B03B3F120020CDAF9
:100328000C3208DD02F1140CC2F10C0201FA0CF0D7
:1003380021FA02F10CE002F11402D8BFC2F1200C3C
:1003480001FA02F120FA0CFCDCBF41EA0C019040F2
:10035800E41AA2BF01EB0451294330BD6FEA04043B
:100368001F3C1CDA0C340EDC04F11404C4F1200226
:1003780020FA04F001FA02F340EA030021FA04F338
:1003880045EA030130BDC4F10C04C4F1200220FA8F
:1003980002F001FA04F340EA0300294630BD21FACD
:1003A80004F0294630BD94F0000F83F4801306BF93
:1003B80081F480110134013D4EE77FEA645C18BF87
:1003C8007FEA655C29D094EA050F08BF90EA020F1E
:1003D80005D054EA000C04BF1946104630BD91EA16
:1003E800030F1EBF0021002030BD5FEA545C05D119
:1003F8004000494128BF41F0004130BD14F5800458
:100408003CBF01F5801130BD01F0004545F0FE41CB
:1004180041F470014FF0000030BD7FEA645C1ABF00
:10042800194610467FEA655C1CBF0B46024650EA37
:10043800013406BF52EA033591EA030F41F4002163
:1004480030BD00BF90F0000F04BF0021704730B5E9
:100458004FF4806404F132044FF000054FF00001BE
:1004680050E700BF90F0000F04BF0021704730B57F
:100478004FF4806404F1320410F0004548BF404254
:100488004FF000013EE700BF42004FEAE2014FEAA9
:1004980031014FEA02701FBF12F07F4393F07F4F84
:1004A80081F06051704732F07F4208BF704793F087
:1004B8007F4F04BF41F40021704730B54FF460749A
:1004C80001F0004521F000411CE700BF50EA01029D
:1004D80008BF704730B54FF000050AE050EA010246
:1004E80008BF704730B511F0004502D5404261EBB6
:1004F80041014FF4806404F132045FEA915C3FF4F7
:10050800D8AE4FF003025FEADC0C18BF03325FEA93
:10051800DC0C18BF033202EBDC02C2F1200300FA44
:1005280003FC20FA02F001FA03FE40EA0E0021FA69
:1005380002F11444BDE600BF70B54FF0FF0C4CF457
:10054800E06C1CEA11541DBF1CEA135594EA0C0F09
:1005580095EA0C0F00F0DEF82C4481EA030621EA44
:100568004C5123EA4C5350EA013518BF52EA03357F
:1005780041F4801143F4801338D0A0FB02CE4FF031
:100588000005E1FB02E506F00042E0FB03E54FF061
:100598000006E1FB03569CF0000F18BF4EF0010E59
:1005A800A4F1FF04B6F5007F64F5407404D25FEA55
:1005B8004E0E6D4146EB060642EAC62141EA555108
:1005C8004FEAC52040EA5E504FEACE2EB4F1FD0C4A
:1005D80088BFBCF5E06F1ED8BEF1004F08BF5FEAC8
:1005E800500E50F1000041EB045170BD06F000467A
:1005F80046EA010140EA020081EA0301B4EB5C0427
:10060800C2BFD4EB0C0541EA045170BD41F480111E
:100618004FF0000E013C00F3AB8014F1360FDEBF43
:10062800002001F0004170BDC4F10004203C35DA1F
:100638000C341BDC04F11404C4F1200500FA05F3A2
:1006480020FA04F001FA05F240EA020001F0004243
:1006580021F0004110EBD37021FA04F642EB0601B9
:100668005EEA430E08BF20EAD37070BDC4F10C04E3
:10067800C4F1200500FA04F320FA05F001FA04F2A7
:1006880040EA020001F0004110EBD37041F1000193
:100698005EEA430E08BF20EAD37070BDC4F120059E
:1006A80000FA05F24EEA020E20FA04F301FA05F206
:1006B80043EA020321FA04F001F0004121FA04F2AE
:1006C80020EA020000EBD3705EEA430E08BF20EA7E
:1006D800D37070BD94F0000F0FD101F000464000B8
:1006E80041EB010111F4801F08BF013CF7D041EA3A
:1006F800060195F0000F18BF704703F0004652003E
:1007080043EB030313F4801F08BF013DF7D043EA0E
:100718000603704794EA0C0F0CEA135518BF95EAC4
:100728000C0F0CD050EA410618BF52EA4306D1D14B
:1007380081EA030101F000414FF0000070BD50EA6A
:10074800410606BF1046194652EA430619D094EAF4
:100758000C0F02D150EA013613D195EA0C0F05D1DE
:1007680052EA03361CBF104619460AD181EA030132
:1007780001F0004141F0FE4141F470014FF00000EA
:1007880070BD41F0FE4141F4780170BD70B54FF085
:10079800FF0C4CF4E06C1CEA11541DBF1CEA135505
:1007A80094EA0C0F95EA0C0F00F0A7F8A4EB0504E7
:1007B80081EA030E52EA03354FEA013100F08880DE
:1007C8004FEA03334FF0805545EA131343EA1263A7
:1007D8004FEA022245EA111545EA10654FEA00265C
:1007E8000EF000419D4208BF964244F1FD0404F515
:1007F800407402D25B084FEA3202B61A65EB030571
:100808005B084FEA32024FF480104FF4002CB6EB2D
:10081800020E75EB030E22BFB61A754640EA0C00AD
:100828005B084FEA3202B6EB020E75EB030E22BFED
:10083800B61A754640EA5C005B084FEA3202B6EB2E
:10084800020E75EB030E22BFB61A754640EA9C00ED
:100858005B084FEA3202B6EB020E75EB030E22BFBD
:10086800B61A754640EADC0055EA060E18D04FEA7B
:10087800051545EA16754FEA06164FEAC30343EA1B
:1008880052734FEAC2025FEA1C1CC0D111F4801FE8
:100898000BD141EA00014FF000004FF0004CB6E7E1
:1008A80011F4801F04BF01430020B4F1FD0C88BF80
:1008B800BCF5E06F3FF6AFAEB5EB030C04BFB6EB8B
:1008C800020C5FEA500C50F1000041EB045170BD7E
:1008D8000EF0004E4EEA113114EB5C04C2BFD4EBAB
:1008E8000C0541EA045170BD41F480114FF0000E2F
:1008F800013C90E645EA060E8DE60CEA135594EAAB
:100908000C0F08BF95EA0C0F3FF43BAF94EA0C0FAD
:100918000AD150EA01347FF434AF95EA0C0F7FF422
:1009280025AF104619462CE795EA0C0F06D152EA76
:1009380003353FF4FDAE1046194622E750EA41065A
:1009480018BF52EA43067FF4C5AE50EA41047FF46B
:100958000DAF52EA43057FF4EBAE12E74FF0FF3CD0
:1009680006E000BF4FF0010C02E000BF4FF0010CA1
:100978004DF804CD4FEA410C7FEA6C5C4FEA430C1A
:1009880018BF7FEA6C5C1BD001B050EA410C0CBF69
:1009980052EA430C91EA030F02BF90EA020F0020CB
:1009A800704710F1000F91EA030F58BF994208BF32
:1009B80090422CBFD8176FEAE37040F001007047EF
:1009C8004FEA410C7FEA6C5C02D150EA013C07D146
:1009D8004FEA430C7FEA6C5CD6D152EA033CD3D091
:1009E8005DF8040B704700BF8446104662468C468B
:1009F8001946634600E000BF01B5FFF7B7FF0028BE
:100A080048BF10F1000F01BD4DF808EDFFF7F4FFE6
:100A18000CBF012000205DF808FB00BF4DF808ED71
:100A2800FFF7EAFF34BF012000205DF808FB00BF94
:100A38004DF808EDFFF7E0FF94BF012000205DF8B6
:100A480008FB00BF4DF808EDFFF7CEFF94BF01206B
:100A580000205DF808FB00BF4DF808EDFFF7C4FF64
:100A680034BF012000205DF808FB00BF4FEA4102B7
:100A780012F5001215D211D56FF47873B3EB6252E8
:100A880012D94FEAC12343F0004343EA505311F00F
:100A9800004F23FA02F018BF404270474FF00000A1
:100AA800704750EA013005D111F0004008BF6FF0DF
:100AB800004070474FF00000704700BF38B5002273
:100AC800002304460D46FFF7A9FF28B9204629460A
:100AD800BDE8384000F00AB8204605F1004100F0B2
:100AE80005F8404261EB410138BD00BFD0B50C4B61
:100AF800002206460F46FFF71FFD00F015F80446D2
:100B0800FFF7A0FC074B0022FFF716FD02460B4635
:100B180030463946FFF758FB00F006F82146D0BDAD
:100B28000000F03D0000F0414A0011D212F5001219
:100B380011D20DD56FF47873B3EB62520ED44FEA2D
:100B4800C12343F0004343EA505323FA02F07047AD
:100B58004FF00000704750EA013002D14FF0FF30EB
:100B680070474FF000007047024A136B43F48053FC
:100B78001363704700380240114B1B68012B1DD1CD
:100B8800104B1A685B6872B60F4B1B6F1A6822F01D
:100B980001021A6059680D4AC1F1C8011160116853
:100BA800C8294FF0C801C8BF116059601A6842F0DF
:100BB80001021A6062B6064B01221A60704700BF34
:100BC8000C010020004C00402000002004010020FF
:100BD8000801002038B50D4C0546204601F0A4FA5E
:100BE8000B4BC4E9003540F6012323810B23A37284
:100BF8001023A3734FF440732382064BC4F8D430F8
:100C08002046BDE8384001F0E1BA00BF20000020CE
:100C1800004C0040810B0008044A4109012300F000
:100C28001F00834042F82130704700BF00E100E018
:100C380070B5374D374C2B6823602368DB070BD51D
:100C4800354B1B68DA69160606D5DB6B23B1984766
:100C5800AB6843F00103AB6023685D070CD52E4BEE
:100C68001B68DA69900707D51B6C2BB19847284A8F
:100C7800936843F004039360236819070CD5264B47
:100C88001B68DA69520707D55B6C2BB19847204A75
:100C9800936843F0080393602368DB0618D51E4D5C
:100CA8002B68DA69160713D59B6C8BB19847184ADD
:100CB800936843F0100393602B689A6BB2F5802F0A
:100CC80006D15A68126855034CBF1B6D5B6D984777
:100CD800236898061AD5104C2368DA69D10615D509
:100CE800DB6C9BB198470A4A936843F020039360F2
:100CF80023689A6BB2F5802F08D15A68126852039C
:100D0800BDE870404CBF1B6D5B6D184770BD00BFE0
:100D180000600240140100205401002070B5374DD6
:100D2800374C2B68236023685B060BD5354B1B6853
:100D3800DA69160606D5DB6B23B19847AB6843F032
:100D48004003AB602368DD050CD52E4B1B68DA69C0
:100D5800900707D51B6C2BB19847284A936843F432
:100D680080739360236899050CD5264B1B68DA6954
:100D7800520707D55B6C2BB19847204A936843F418
:100D88000073936023685B0518D51E4D2B68DA69DC
:100D9800160713D59B6C8BB19847184A936843F490
:100DA800806393602B689A6BB2F5802F06D15A68DE
:100DB800126855034CBF1B6D5B6D98472368180577
:100DC8001AD5104C2368DA69D10615D5DB6C9BB1AE
:100DD80098470A4A936843F40063936023689A6BC0
:100DE800B2F5802F08D15A6812685203BDE87040E6
:100DF8004CBF1B6D5B6D184770BD00BF00600240A3
:100E0800140100205001002070B5374D374C2B6875
:100E180023602368DB030BD5354B1B68DA6916069C
:100E280006D5DB6B23B19847AB6843F48033AB60DE
:100E380023685D030CD52E4B1B68DA69900707D52C
:100E48001B6C2BB19847284A936843F4802393601E
:100E5800236819030CD5264B1B68DA69520707D596
:100E68005B6C2BB19847204A936843F40023936046
:100E78002368DB0218D51E4D2B68DA69160713D5CF
:100E88009B6C8BB19847184A936843F4801393601E
:100E98002B689A6BB2F5802F06D15A6812685503F1
:100EA8004CBF1B6D5B6D9847236898021AD5104C90
:100EB8002368DA69D10615D5DB6C9BB198470A4AD5
:100EC800936843F40013936023689A6BB2F5802FFC
:100ED80008D15A6812685203BDE870404CBF1B6DB8
:100EE8005B6D184770BD00BF006002401401002010
:100EF8004C01002070B5374D374C2B6823602368B0
:100F08005B020BD5354B1B68DA69160606D5DB6B19
:100F180023B19847AB6843F48003AB602368DD01D5
:100F28000CD52E4B1B68DA69900707D51B6C2BB1C3
:100F38009847284A936843F080739360236899011F
:100F48000CD5264B1B68DA69520707D55B6C2BB1A9
:100F58009847204A936843F00073936023685B01C5
:100F680018D51E4D2B68DA69160713D59B6C8BB103
:100F78009847184A936843F0806393602B689A6B8C
:100F8800B2F5802F06D15A68126855034CBF1B6D05
:100F98005B6D9847236818011AD5104C2368DA69E5
:100FA800D10615D5DB6C9BB198470A4A936843F084
:100FB8000063936023689A6BB2F5802F08D15A6852
:100FC80012685203BDE870404CBF1B6D5B6D18473B
:100FD80070BD00BF006002401401002048010020DD
:100FE80070B52F4D2F4C6B6823602368DA0708D53E
:100FF8002D4B1B68DB6B23B19847AB6843F040036C
:10100800AB6023685B0709D5274B1B681B6C2BB1AA
:101018009847234AD36843F00403D36023681E0724
:1010280009D5214B1B685B6C2BB198471C4AD368C8
:1010380043F00803D3602368DD0615D51A4D2B68E5
:101048009B6C8BB19847164AD36843F01003D36062
:101058002B689A6BB2F5802F06D15A681268500334
:101068004CBF1B6D5B6D98472368990617D50E4CCE
:101078002368DB6C9BB19847094AD36843F0200387
:10108800D36023689A6BB2F5802F08D15A6812682A
:101098005203BDE870404CBF1B6D5B6D184770BDB7
:1010A80000600240100100204401002070B52F4D5F
:1010B8002F4C6B68236023685A0608D52D4B1B6894
:1010C800DB6B23B19847EB6843F04003EB60236880
:1010D800DB0509D5274B1B681B6C2BB19847234AA6
:1010E800D36843F48073D36023689E0509D5214BE8
:1010F8001B685B6C2BB198471C4AD36843F4007398
:10110800D36023685D0515D51A4D2B689B6C8BB190
:101118009847164AD36843F48063D3602B689A6B68
:10112800B2F5802F06D15A68126850034CBF1B6D68
:101138005B6D98472368190517D50E4C2368DB6C3F
:101148009BB19847094AD36843F40063D360236886
:101158009A6BB2F5802F08D15A6812685203BDE81D
:1011680070404CBF1B6D5B6D184770BD006002403E
:10117800100100204001002070B52F4D2F4C6B68E6
:1011880023602368DA0308D52D4B1B68DB6B23B17A
:101198009847EB6843F48033EB6023685B0309D519
:1011A800274B1B681B6C2BB19847234AD36843F421
:1011B8008023D36023681E0309D5214B1B685B6C11
:1011C8002BB198471C4AD36843F40023D3602368A3
:1011D800DD0215D51A4D2B689B6C8BB19847164AC2
:1011E800D36843F48013D3602B689A6BB2F5802FD1
:1011F80006D15A68126850034CBF1B6D5B6D984747
:101208002368990217D50E4C2368DB6C9BB198476D
:10121800094AD36843F40013D36023689A6BB2F584
:10122800802F08D15A6812685203BDE870404CBF3D
:101238001B6D5B6D184770BD0060024010010020F7
:101248003C01002070B52F4D2F4C6B68236023683C
:101258005A0208D52D4B1B68DB6B23B19847EB6806
:1012680043F48003EB602368DB0109D5274B1B6837
:101278001B6C2BB19847234AD36843F08073D36023
:1012880023689E0109D5214B1B685B6C2BB19847DD
:101298001C4AD36843F00073D36023685D0115D5F9
:1012A8001A4D2B689B6C8BB19847164AD36843F04C
:1012B8008063D3602B689A6BB2F5802F06D15A6889
:1012C800126850034CBF1B6D5B6D9847236819016A
:1012D80017D50E4C2368DB6C9BB19847094AD36835
:1012E80043F00063D36023689A6BB2F5802F08D16E
:1012F8005A6812685203BDE870404CBF1B6D5B6DA5
:10130800184770BD0060024010010020380100201D
:1013180070B5374D374C2B6823602368DB070BD536
:10132800354B1B68DA69160606D5DB6B23B198477F
:10133800AB6843F00103AB6023685D070CD52E4B07
:101348001B68DA69900707D51B6C2BB19847284AA8
:10135800936843F004039360236819070CD5264B60
:101368001B68DA69520707D55B6C2BB19847204A8E
:10137800936843F0080393602368DB0618D51E4D75
:101388002B68DA69160713D59B6C8BB19847184AF6
:10139800936843F0100393602B689A6BB2F5802F23
:1013A80006D15A68126855034CBF1B6D5B6D984790
:1013B800236898061AD5104C2368DA69D10615D522
:1013C800DB6C9BB198470A4A936843F0200393600B
:1013D80023689A6BB2F5802F08D15A6812685203B5
:1013E800BDE870404CBF1B6D5B6D184770BD00BFFA
:1013F80000640240140100203401002070B52F4D14
:101408002F4C2B68236023685A0608D52D4B1B6880
:10141800DB6B23B19847AB6843F04003AB602368AC
:10142800DB0509D5274B1B681B6C2BB19847234A52
:10143800936843F48073936023689E0509D5214B14
:101448001B685B6C2BB198471C4A936843F4007384
:10145800936023685D0515D51A4D2B689B6C8BB17D
:101468009847164A936843F4806393602B689A6B95
:10147800B2F5802F06D15A68126850034CBF1B6D15
:101488005B6D98472368190517D50E4C2368DB6CEC
:101498009BB19847094A936843F4006393602368B3
:1014A8009A6BB2F5802F08D15A6812685203BDE8CA
:1014B80070404CBF1B6D5B6D184770BD00640240E7
:1014C800140100203001002070B52F4D2F4C2B68DF
:1014D80023602368DA0308D52D4B1B68DB6B23B127
:1014E8009847AB6843F48033AB6023685B0309D546
:1014F800274B1B681B6C2BB19847234A936843F40E
:101508008023936023681E0309D5214B1B685B6CFD
:101518002BB198471C4A936843F4002393602368CF
:10152800DD0215D51A4D2B689B6C8BB19847164A6E
:10153800936843F4801393602B689A6BB2F5802FFD
:1015480006D15A68126850034CBF1B6D5B6D9847F3
:101558002368990217D50E4C2368DB6C9BB198471A
:10156800094A936843F40013936023689A6BB2F5B1
:10157800802F08D15A6812685203BDE870404CBFEA
:101588001B6D5B6D184770BD00640240140100209C
:101598002C01002070B5374D374C2B682360236829
:1015A8005B020BD5354B1B68DA69160606D5DB6B73
:1015B80023B19847AB6843F48003AB602368DD012F
:1015C8000CD52E4B1B68DA69900707D51B6C2BB11D
:1015D8009847284A936843F0807393602368990179
:1015E8000CD5264B1B68DA69520707D55B6C2BB103
:1015F8009847204A936843F00073936023685B011F
:1016080018D51E4D2B68DA69160713D59B6C8BB15C
:101618009847184A936843F0806393602B689A6BE5
:10162800B2F5802F06D15A68126855034CBF1B6D5E
:101638005B6D9847236818011AD5104C2368DA693E
:10164800D10615D5DB6C9BB198470A4A936843F0DD
:101658000063936023689A6BB2F5802F08D15A68AB
:1016680012685203BDE870404CBF1B6D5B6D184794
:1016780070BD00BF00640240140100202801002052
:1016880070B52F4D2F4C6B6823602368DA0708D597
:101698002D4B1B68DB6B23B19847AB6843F04003C5
:1016A800AB6023685B0709D5274B1B681B6C2BB104
:1016B8009847234AD36843F00403D36023681E077E
:1016C80009D5214B1B685B6C2BB198471C4AD36822
:1016D80043F00803D3602368DD0615D51A4D2B683F
:1016E8009B6C8BB19847164AD36843F01003D360BC
:1016F8002B689A6BB2F5802F06D15A68126850038E
:101708004CBF1B6D5B6D98472368990617D50E4C27
:101718002368DB6C9BB19847094AD36843F02003E0
:10172800D36023689A6BB2F5802F08D15A68126883
:101738005203BDE870404CBF1B6D5B6D184770BD10
:1017480000640240100100202401002070B52F4DD4
:101758002F4C6B68236023685A0608D52D4B1B68ED
:10176800DB6B23B19847EB6843F04003EB602368D9
:10177800DB0509D5274B1B681B6C2BB19847234AFF
:10178800D36843F48073D36023689E0509D5214B41
:101798001B685B6C2BB198471C4AD36843F40073F1
:1017A800D36023685D0515D51A4D2B689B6C8BB1EA
:1017B8009847164AD36843F48063D3602B689A6BC2
:1017C800B2F5802F06D15A68126850034CBF1B6DC2
:1017D8005B6D98472368190517D50E4C2368DB6C99
:1017E8009BB19847094AD36843F40063D3602368E0
:1017F8009A6BB2F5802F08D15A6812685203BDE877
:1018080070404CBF1B6D5B6D184770BD0064024093
:10181800100100202001002070B52F4D2F4C6B685F
:1018280023602368DA0308D52D4B1B68DB6B23B1D3
:101838009847EB6843F48033EB6023685B0309D572
:10184800274B1B681B6C2BB19847234AD36843F47A
:101858008023D36023681E0309D5214B1B685B6C6A
:101868002BB198471C4AD36843F40023D3602368FC
:10187800DD0215D51A4D2B689B6C8BB19847164A1B
:10188800D36843F48013D3602B689A6BB2F5802F2A
:1018980006D15A68126850034CBF1B6D5B6D9847A0
:1018A8002368990217D50E4C2368DB6C9BB19847C7
:1018B800094AD36843F40013D36023689A6BB2F5DE
:1018C800802F08D15A6812685203BDE870404CBF97
:1018D8001B6D5B6D184770BD00640240100100204D
:1018E8001C01002070B52F4D2F4C6B6823602368B6
:1018F8005A0208D52D4B1B68DB6B23B19847EB6860
:1019080043F48003EB602368DB0109D5274B1B6890
:101918001B6C2BB19847234AD36843F08073D3607C
:1019280023689E0109D5214B1B685B6C2BB1984736
:101938001C4AD36843F00073D36023685D0115D552
:101948001A4D2B689B6C8BB19847164AD36843F0A5
:101958008063D3602B689A6BB2F5802F06D15A68E2
:10196800126850034CBF1B6D5B6D984723681901C3
:1019780017D50E4C2368DB6C9BB19847094AD3688E
:1019880043F00063D36023689A6BB2F5802F08D1C7
:101998005A6812685203BDE870404CBF1B6D5B6DFE
:1019A800184770BD00640240100100201801002093
:1019B8000368094A934206D1A2F52052136B43F4F7
:1019C800001313637047054A9342FBD1A2F53052C6
:1019D800136B43F48003F4E70060024000640240A4
:1019E80010B5FFF7E5FF43681A68D107044606D526
:1019F8001A6822F001021A601A68D207FCD41A6821
:101A0800217A42EA41621A601A68A1690A431A6097
:101A18001A68E1680A431A601A6861690A431A6019
:101A28001A68A16A0A431A601A68616A0A431A6046
:101A38001A6821690A431A60E269002A29D0100647
:101A480042BF596911435961D10642BF196841F033
:101A580010011960100742BF196841F008011960A8
:101A6800510742BF196841F004011960920748BF45
:101A78001A684B4944BF42F002021A6022688A423F
:101A88004BD1484A934217D1474B0B201C60FFF7B4
:101A9800C3F86368228C19680A431A601968628C53
:101AA8000A431A60A269B2F5807F71D11A6842F4BC
:101AB80080721A60012010BD3C4A934203D13C4B0E
:101AC8000C201C60E3E73B4A934203D13A4B0D20BC
:101AD8001C60DCE7394A934203D1394B0E201C6065
:101AE800D5E7384A934203D1374B0F201C60CEE725
:101AF800364A934203D1364B10201C60C7E7354A5B
:101B0800934203D1344B11201C60C0E7334A9342FF
:101B1800BFD1334B2F201C60B9E732498A42B8D174
:101B2800314A934203D1314B38201C60AFE7304A29
:101B3800934203D12F4B39201C60A8E72E4A9342C9
:101B480003D12E4B3A201C60A1E72D4A934203D1C2
:101B58002C4B3B201C609AE72B4A934203D12B4B1A
:101B68003C201C6093E72A4A934203D1294B442026
:101B78001C608CE7284A934203D1284B45201C60FF
:101B880085E7274A934284D1264B46201C607EE78E
:101B98001AB91A6822F480728BE74FF0FF308AE78F
:101BA800006002401060024054010020286002409A
:101BB80050010020406002404C0100205860024063
:101BC8004801002070600240440100208860024003
:101BD80040010020A06002403C010020B8600240A3
:101BE80038010020006402401064024034010020E3
:101BF8002864024030010020406402402C0100208B
:101C0800586402402801002070640240240100202A
:101C18008864024020010020A06402401C010020CA
:101C2800B86402401801002008B5054B1B6803B1D1
:101C38009847044A536943F00103536108BD00BF44
:101C480058010020003C014008B5054B5B6803B112
:101C58009847044A536943F00203536108BD00BF23
:101C680058010020003C014008B5054B9B6803B1B2
:101C78009847044A536943F00403536108BD00BF01
:101C880058010020003C014008B5054BDB6803B152
:101C98009847044A536943F00803536108BD00BFDD
:101CA80058010020003C014008B5054B1B6903B1F1
:101CB8009847044A536943F01003536108BD00BFB5
:101CC80058010020003C01402DE9F0410A4EDFF8A0
:101CD8002C8005240127736907FA04F52B4206D0E6
:101CE80058F824301BB1984773691D437561013456
:101CF8000A2CF0D1BDE8F081003C014058010020D9
:101D08002DE9F0410A4EDFF82C800A240127736977
:101D180007FA04F52B4206D058F824301BB198472F
:101D280073691D4375610134102CF0D1BDE8F08151
:101D3800003C014058010020214B984230D00ED879
:101D4800A3F50063984221D003F58063984222D01E
:101D5800A3F50063984212D04FF0FF307047194B3B
:101D6800984222D003F50063984223D0A3F540633C
:101D78009842F1D1144A136B43F0100303E0124A5E
:101D8800136B43F001031363002070470E4A136B73
:101D980043F00203F7E70C4A136B43F00403F2E73E
:101DA800094A136B43F00803EDE7074A136B43F046
:101DB8002003E8E7044A136B43F08003E3E700BF1E
:101DC800000C024000140240003802402DE9F8439C
:101DD80004461D4617469DF820909DF824809DF8DE
:101DE8002860FFF7A9FFD4F800E04B0003229A40CF
:101DF8006FEA020C2EEA02022260D4F800E007FA29
:101E080003F242EA0E02226062684FF0010E0EFAF7
:101E180001FE22EA0E026260022D1FBFD4F804E020
:101E280005FA01F242EA0E026260A2680CEA0202B6
:101E3800A260B9F1040F1FBFA26809FA03F51543A0
:101E4800A560E2680CEA0202B8F1040FE2601FBF65
:101E5800E26808FA03F31343E360022F08B20ED1D5
:101E680007294FF00F020DD8216A83009A4021EA12
:101E780002022262226A06FA03F313432362002055
:101E8800BDE8F8830839636A89008A4023EA0203B7
:101E98006362636A8E401E436662F0E7014B01226B
:101EA8001A707047A3010020014B01221A70704775
:101EB800A2010020014B01221A707047A1010020E5
:101EC800014B01221A707047A0010020014B01222A
:101ED8001A7070479F010020014B01221A70704749
:101EE8009E010020014B01221A7070479D010020BD
:101EF800014B01221A7070479C010020014B0122FE
:101F08001A7070479B010020014B01221A7070471C
:101F18009A010020014B01221A7070479901002094
:101F2800014B01221A7070479801002038B5334DD3
:101F3800334C2B689BB2238023889A0509D5314BF3
:101F48001B68D3F8D83023B198472B6823F4007363
:101F58002B602388DB050AD52A4B1B68D3F8E030B1
:101F68002BB19847254A136823F48073136023889C
:101F78001D060AD5234B1B68D3F8C8302BB19847E8
:101F88001E4A136823F080031360238858060AD575
:101F98001C4B1B68D3F8CC302BB19847174A1368F1
:101FA80023F040031360238899060AD5154B1B6854
:101FB800D3F8D0302BB19847104A136823F0200388
:101FC80013602388DA060AD50E4B1B68D3F8D43081
:101FD8002BB19847094A136823F01003136023882C
:101FE800DB070AD5074B1B68D3F8C4302BB19847D9
:101FF800024A136823F00103136038BD004C004007
:10200800A4010020AC01002038B5304C304D2368C5
:102018009BB22B802B88990509D52E4B1B68D3F8CA
:10202800D83023B19847236823F4007323602B88A2
:10203800DA0509D5274B1B68D3F8E03023B1984758
:10204800236823F4807323602B881B0609D5214B52
:102058001B68D3F8C83023B19847236823F080035E
:1020680023602B88580609D51A4B1B68D3F8CC3047
:1020780023B19847236823F0400323602B889906EF
:1020880009D5144B1B68D3F8D03023B1984723687F
:1020980023F0200323602B88DA0609D50D4B1B6833
:1020A800D3F8D43023B19847236823F01003236072
:1020B8002B88DB0709D5074B1B68D3F8C43023B13D
:1020C8009847236823F00103236038BD00100140BE
:1020D800A4010020B80100200068124B984217D0D4
:1020E800A3F54C43984215D003F58063984213D06A
:1020F80003F58063984211D003F5806398420FD0AE
:1021080003F54443984214BF4FF0FF300520704751
:102118000020704701207047022070470320704755
:10212800042070470010014000234FF41652037238
:1021380042604374C381704703681E4A934207D1C3
:1021480002F59432536C43F0100353640120704736
:10215800194A934206D102F5FA32136C43F400335C
:102168001364F3E7154A934205D102F5F832136C6C
:1021780043F48023F4E7124A934205D102F5F6327C
:10218800136C43F40023EBE70E4A934205D102F5A2
:10219800F432136C43F48013E2E70B4A934205D1FF
:1021A80002F59232536C43F02003CEE74FF0FF3034
:1021B800704700BF00100140004400400048004044
:1021C800004C004000500040001401402DE9F04F41
:1021D800044685B0FFF7B0FFA34E2368B34240F032
:1021E8009780A24B1C60237A012B08D0023B052B59
:1021F80000F25C82DFE803F0037403037474617A0D
:1022080009295AD100230725CDE90135022298482A
:102218000092FFF7DBFDA17A0A2958D10722002393
:10222800CDE90132924802220092FFF7CFFD227ACF
:10223800022A0BD1E17A082908D100234FF0070BB5
:10224800CDE9013B8A480092FFF7C0FDE37B002BF4
:1022580000F02C82012B0AD100234FF0070A02223A
:10226800CDE9013A824800920B21FFF7AFFDE27BEE
:10227800022A09D100234FF00709CDE901397C482A
:1022880000920C21FFF7A2FDE37B032B40F00E82A6
:10229800002702254FF007083B462A460B21CDE9C7
:1022A800017873480095FFF791FDCDE90178009515
:1022B8003B462A460C216E4860E10629ABD107202F
:1022C80000230222CDE9013000926A48A1E70729DC
:1022D800ADD102220023CDE9002366480291A4E78C
:1022E800617A092909D100234FF007080222CDE9B4
:1022F80001385F480092FFF769FD237A072B40F009
:10230800D581029302220023CDE900230821D2E7D8
:10231800594A934240F0B680584B1C60237A012BEF
:1023280008D0023B052B00F2C181DFE803F0037AF5
:1023380003037A7A617A022943D100234FF0070E0A
:10234800CDE9013E4A4800910A46FFF73FFDA17AD0
:10235800032941D100230727CDE901370222444848
:102368000092FFF733FD227A022A0AD1E17A042982
:102378003CD1072302930023CDE900233C48FFF713
:1023880025FDE37B002B00F09181012B0AD1E17A36
:1023980081BB0723022236480092CDE901130B4680
:1023A800FFF714FDE37B023B012B00F27F81E17A0A
:1023B80001292AD10723029302220023CDE9002311
:1023C80079E70529C3D100234FF0070C0222CDE994
:1023D800013C2B480092B8E70629C4D10023072501
:1023E8000222CDE9013526480092BAE70729C8D16B
:1023F8000291C0E7032940F05981072000230222F7
:10240800CDE9013000921E48CAE7042940F04E8108
:10241800072100230222CDE9013100920421184846
:10242800ACE0617A022914D10722002310480091F8
:10243800CDE901320A46FFF7C9FC237A072B40F0A1
:102448003581E17A0429B6D0072940F02F8102911D
:10245800B2E70529F1D100234FF0070B0222CDE99D
:10246800013B07480092E6E700100140B801002050
:10247800000002400004024000440040B401002073
:10248800000C0240734A934240F0B480724B1C60C7
:10249800237A012B08D0023B052B00F20781DFE8E5
:1024A80003F0038303038383617A0B290AD1002392
:1024B8004FF0070ACDE9013A022268480092FFF777
:1024C80085FC0CE00A2908D100234FF007090222F5
:1024D800CDE9013962480092F1E70829F4D0A17AE0
:1024E8000A290AD100234FF00708CDE90138022252
:1024F8005A480092FFF76AFC0DE00B2908D1002327
:102508004FF0070E0222CDE9013E55480092F1E74F
:10251800617A0829F3D0227A022A0BD1E17A0C29B0
:102528002FD100234FF0070CCDE9013C4C48009215
:10253800FFF74CFCE37B002B00F0B88003F0FD03B1
:10254800012B0AD1E17A29BB0723022244480092D1
:10255800CDE901130B46FFF739FCE37B023B012B66
:1025680000F2A480E17A01297FF44FAF00234FF0F5
:10257800070BCDE9013B022239480092FFF726FC00
:1025880094E00A29D6D100230727CDE90137354839
:102598000092CDE70329E0D1002307250222CDE9E7
:1025A800013530480092D6E7617A0B2909D1072016
:1025B8000023CDE90130022228480092FFF706FCEB
:1025C8000BE00A2907D107220023CDE901320222B4
:1025D80023480092F2E70829F5D0E17A0C29C5D002
:1025E8000A2963D100234FF0070A0222CDE9013AF4
:1025F800009214E71C4A93423CD11C4B1C60237A7E
:10260800012B02D0043B012B50D8617A69B9082309
:10261800022212480092CDE901130B46FFF7D6FBC0
:10262800A17A01290CD10823C5E60A29F8D100238B
:102638004FF008090222CDE901390D480092EDE773
:102648000B2933D10823029302220023CDE900236A
:10265800074893E700480040B0010020000002400E
:1026680000040240000C0240004C0040AC01002075
:10267800000802409F4A934240F0EE809E4B1C6047
:10268800237A012B02D0043B012B0FD8627A022A4D
:1026980009D100234FF00808CDE901389748009286
:1026A8001146FFF793FBA17A0C29BCD02046FFF70F
:1026B80013FD934F451C387000F0CB80D4E90050CF
:1026C800FDF7C0FE8F4B1A688F4BB54289469B6851
:1026D8008E49804603D08E48854240F0FF80C3F380
:1026E8004233C85C22FA00F0FDF7ACFE894B824603
:1026F8008B46002240464946FDF71EFF02460B4620
:1027080050465946FEF742F882468B46FEF7D6F900
:10271800FDF7E4FE02460B46804689465046594678
:10272800FDF752FD7C4B0022FDF706FF41EC100B34
:1027380000F03AFB51EC100BFEF798F94946824637
:102748004046FEF793F94AEA0010A860EA68A37CBD
:102758001343EB60A37B002B40F0EE80EB6823F47F
:10276800F873EB602B6923F040032B616B6923F44A
:10277800806323F001036B612268237C11690B439A
:102788001361637C9B0740F16C81B242634B40F05C
:102798001C81634A07CA83E807001022DA61614A8C
:1027A800DA6497F90010582202FB013500234FF430
:1027B8008061C5E908134FF40031C5E9043104F11B
:1027C8006C002946AB61EB60AB6200F0DFFA28468B
:1027D800FFF706F9637C2268DD0740F19381B24276
:1027E800514B40F04381514A07CA83E80700102241
:1027F800DA614F4ADA6497F90010582202FB013572
:1028080000234021C5E903314FF44031C5E90513E0
:1028180010204FF48061C5E90701294604F114002E
:10282800C5E9093300F0B2FA2846FFF7D9F8227A49
:102838002368032A40F06B815A6942F008025A6102
:10284800DA6842F00C02DA60DA6842F40052DA60C0
:10285800012005B0BDE8F08F2D4A93427FF426AFE2
:10286800237A012B08D0023B052B3FF61FAFDFE888
:1028780003F0032303032323617A062909D10023E4
:102888004FF0080E0222CDE9013E2A480092FFF7D8
:102898009DFAA17A072909D100234FF0080C0222DA
:1028A800CDE9013C23480092FFF790FAE17A082924
:1028B8007FF4FCAE0291C7E6617A062908D10023AD
:1028C80008270222CDE901370C480092FFF77EFA6B
:1028D800237A072B7FF4EAAE0821B8E5C3F38223F5
:1028E800C85C22FA00F0FDF7ADFD0B4B82468B4623
:1028F8000022FFE600500040A8010020000002402E
:10290800BC0100200000002000380240C43200084A
:10291800001401400000404000003040D003002077
:10292800802F0008B11E0008C00100208C2F00086D
:10293800A51E000800080240190642BFEA6842F0D6
:102948008002EA605A0642BFEA6842F04002EA6042
:10295800980642BFEA6842F02002EA60D90642BF00
:10296800EA6842F01002EA60DA0742BF6B6943F096
:1029780001036B61B54206D1684B002283F8252319
:1029880020225A60F8E6664B9D4202D1634B4022F2
:10299800F7E7644B9D4202D1604B8022F1E7624B1E
:1029A8009D4203D15D4B4FF48012EAE75F4B9D4295
:1029B80003D15A4B4FF40012E3E75D4B9D427FF47D
:1029C800DBAE564B80229A60DCE755498A420BD130
:1029D800584A07CA03F1580585E8070010225A67C4
:1029E800554AC3F8A420DCE64E498A420CD1534A22
:1029F80007CA03F1B00585E807001022C3F8CC2008
:102A08004F4AC3F8FC20CCE647498A420CD14D4ACC
:102A180007CA03F5847585E807001022C3F8242146
:102A2800494AC3F85421BCE640498A420CD1474A76
:102A380007CA03F5B07585E807001022C3F87C21A2
:102A4800434AC3F8AC21ACE6424A07CA03F5DC7531
:102A580085E807001022C3F8D4213F4AC3F80422AE
:102A68009FE6536923F040035361B3E62C498A4239
:102A78000BD13A4A07CA03F1580585E80700102226
:102A88005A67374AC3F8A420B5E626498A420CD1CA
:102A9800344A07CA03F1B00585E807001022C3F8D5
:102AA800CC20314AC3F8FC20A5E61F498A420CD144
:102AB8002E4A07CA03F5847585E807001022C3F873
:102AC80024212B4AC3F8542195E618498A420CD18F
:102AD800284A07CA03F5B07585E807001022C3F82D
:102AE8007C21254AC3F8AC2185E6244A07CA03F5A8
:102AF800DC7585E807001022C3F8D421204AC3F802
:102B0800042278E6536923F0800353618FE6052A8F
:102B180002BF1A6942F480421A6191E600E100E0BE
:102B28000044004000480040004C00400050004075
:102B380000140140982F0008C91E0008B02F000893
:102B4800E11E0008C82F0008F91E0008E02F000841
:102B5800111F0008F82F0008291F0008A42F0008DB
:102B6800BD1E0008BC2F0008D51E0008D42F000881
:102B7800ED1E0008EC2F0008051F000804300008AF
:102B88001D1F000808B500F073F8344B00225A6086
:102B98001A6842F480321A601A689003FCD51A6CDD
:102BA8002F4942F080521A640A6842F480420A604F
:102BB80001F5E6310A6842F4E06242F005020A6073
:102BC8005968284A0A435A605A6842F480025A608F
:102BD8009A689A609A6842F4A0529A609A6842F495
:102BE80000429A601A6842F080721A601B4B1A6899
:102BF8009101FCD59A6842F002029A609A6812071D
:102C0800FCD500F03FF8184BA8221B68B3FBF2F381
:102C1800013BB3F1807F0AD24FF0E022F0215361EB
:102C2800124B83F8231000239361072313610B4A87
:102C3800536C43F4804353644FF0E02300226FF059
:102C48007F411A6159619A6105221A614FF4E13096
:102C5800FDF7C0FFFDF788FFFEE700BF0038024020
:102C680000700040085400070000002000ED00E05C
:102C7800034AD2F8883043F47003C2F888307047AA
:102C880000ED00E0154B9A6802F00C02042A21D0EE
:102C9800082A21D159685A685B684902C3F3881326
:102CA8004CBF0F490F4902F03F02B1FBF2F2534308
:102CB8000A4A5268C2F3014201325200B3FBF2F3EE
:102CC800064A09499268C2F303128A5CD340074A4C
:102CD80013607047024BF3E7024BF1E700380240FC
:102CE80000127A000024F400CC3200080000002012
:102CF8000D488546FFF7BCFF0C480D490D4A0023D7
:102D080002E0D458C4500433C4188C42F9D30A4A98
:102D18000A4C002301E013600432A242FBD300F006
:102D280011F8FFF72FFFFEE7000002200000002047
:102D380004000020E432000804000020E005002020
:102D4800FEE7000070B50D4D0D4C641BA410002665
:102D5800A64209D10B4D0C4C00F0A2F8641BA4103C
:102D68000026A64205D170BD55F8043B98470136A8
:102D7800EEE755F8043B98470136F2E7DC320008E5
:102D8800DC320008DC320008E03200080A449142D4
:102D980000F1FF3300D1704710B511F8014B03F86B
:102DA800014F9142F9D110BD51EC100BC1F30A53F8
:102DB8002DE9F041A3F2FF36132E0C460546804656
:102DC8002EDC002E11DA32A3D3E90023FDF7FEF939
:102DD80000220023FDF740FE20B1002C4FDB2543E5
:102DE80051D12C462146284623E02B4F374101EA92
:102DF800070303431DD026A3D3E90023FDF7E6F913
:102E080000220023FDF728FE0028EBD0002CC2BFCB
:102E18004FF480133341E41824EA07040025E1E75E
:102E2800332E0ADDB6F5806F03D102460B46FDF757
:102E3800CDF941EC100BBDE8F081A3F213434FF03C
:102E4800FF37DF403842F4D011A3D3E90023FDF760
:102E5800BDF900220023FDF7FFFD0028C2D0002C99
:102E68000ADD142E01D1013406E0C6F1340601232F
:102E7800B3401D44A845F6D825EA0705B2E7002562
:102E88004FF00044AEE7054C0025ABE7AFF30080F8
:102E98009C7500883CE4377EFFFF0F000000F03F80
:102EA800F8B500BFF8BC08BC9E467047F8B500BF2F
:082EB800F8BC08BC9E467047FF
:102EC000006002401060024000000000006002400C
:102ED000886002400000000000600240586002402C
:102EE000000000000060024070600240000000002E
:102EF00000640240106402400300000000640240CD
:102F00005864024003000000006002405860024024
:102F100003000000006002407060024003000000F7
:102F20000060024040600240020000000060024079
:102F3000B86002400000000000600240886002406B
:102F40000100000000600240A0600240010000009B
:102F50000060024040600240070000000060024044
:102F6000B86002400700000000600240406002407C
:102F70000300000000600240706002400300000097
:102F8000006402404064024004000000006402400B
:102F9000B864024004000000006002408860024003
:102FA0000400000000600240A06002400400000035
:102FB00000600240286002400400000000600240FF
:102FC000586002400400000000600240406002407F
:102FD0000400000000600240706002400400000035
:102FE00000600240106002400400000000600240E7
:102FF000B8600240040000000064024028640240FF
:103000000500000000640240A064024005000000CA
:10301000006002405860024005000000006002406D
:10302000286002400500000000600240A0600240ED
:103030000500000000600240106002400500000032
:103040000064024088640240060000000064024000
:10305000286402400600000000640240A0640240B0
:103060000600000000640240A06402400600000068
:1030700000640240706402400600000000640240E8
:103080001064024006000000006402401064024028
:1030900006000000006402402864024007000000AF
:1030A00000640240406402400700000000640240E7
:1030B000706402400700000000640240A064024007
:1030C0000700000000640240B864024007000000EE
:1030D00000640240286402400700000000640240CF
:1030E000286402400700000000600240A060024027
:1030F00003000000006002408860024003000000FE
:1031000000600240B860024003000000006002401E
:10311000286002400300000000600240B8600240E6
:1031200003000000006002407060024005000000E3
:10313000006002408860024005000000006002401C
:10314000A0600240050000000060024040600240B4
:1031500005000000006002404060024005000000E1
:1031600000600240886002400500000000600240EC
:1031700010600240020000000060024058600240FF
:103180000200000000600240B8600240020000003F
:1031900000600240A06002400200000000600240A7
:1031A0004060024006000000006002407060024083
:1031B00006000000006002401060024006000000AF
:1031C00000600240A0600240060000000060024073
:1031D000A06002400600000000600240586002400B
:1031E0000600000000600240286002400700000066
:1031F000006002404060024001000000000000004A
:10320000000000000000000000600240A0600240DA
:1032100007000000006402405864024004000000FF
:103220000064024028640240010000000064024083
:10323000106402400000000000640240406402404C
:103240000100000000640240286402400200000007
:10325000000000002000000000000000400000000E
:1032600080000000000000000000010000000200DB
:103270000000030000000000000800000010000033
:1032800000000000002000000040000000010000DD
:103290000000000010000000080000000400000012
:1032A0000200000080000000000000000004000098
:1032B0000000000000020000000000000000040008
:1032C00000000400000000000102030400000000F0
:0C32D000000000000102030406070809CA
:0432DC00AD01000838
:0432E0008901000858
:0432E4000024F400CE
:0400000508002CF9CA
:00000001FF
