:020000040800F2
:100000000000022065230008B5230008B52300087E
:10001000B5230008B5230008B52300080000000040
:10002000000000000000000000000000B5230008F0
:10003000B523000800000000B5230008B523000820
:10004000B5230008B5230008B5230008B523000830
:1000500000000000B523000891180008BD18000832
:10006000E91800081519000841190008E9010008FD
:100070007D03000811050008B506000849080008BE
:1000800099090008E90A0008B5230008B52300080B
:10009000B5230008B5230008B52300086D19000832
:1000A000B5230008B5230008B5230008B5230008D0
:1000B000B5230008B5230008B5230008B5230008C0
:1000C000B5230008B5230008B5230008B5230008B0
:1000D000B5230008E91D0008B5230008B523000872
:1000E000D5190008B5230008B5230008B52300087A
:1000F000B5230008B5230008B5230008390C000813
:10010000B5230008B5230008B5230008B52300086F
:10011000791C0008B5230008B5230008B5230008A2
:10012000890D00081D0F00086D100008BD110008A2
:1001300051130008B5230008B5230008B5230008B3
:10014000B5230008B5230008B5230008B52300082F
:10015000A1140008F115000841170008B523000894
:10016000B5230008B5230008B5230008B52300080F
:10017000B5230008B5230008B5230008B5230008FF
:08018000B5230008B5230008B7
:1001880010B5054C237833B9044B13B10448AFF3C9
:1001980000800123237010BD04000020000000002F
:1001A8000024000808B5034B1BB103490348AFF30B
:1001B800008008BD0000000008000020002400089E
:1001C80080B400AF054B1B6B044A43F480531363A0
:1001D80000BFBD465DF8047B704700BF0038024091
:1001E80080B500AF604B1B68604A13605F4B1B68AB
:1001F80003F00103002B15D05D4B1B68DB698022DF
:100208001340002B0ED05A4B1B68DB6B002B09D018
:10021800574B1B68DB6B9847534B9B68524A43F01C
:1002280001039360514B1B6803F00403002B15D0A6
:100238004F4B1B68DB6902221340002B0ED04C4B3E
:100248001B681B6C002B09D0494B1B681B6C98471B
:10025800454B9B68444A43F004039360434B1B6837
:1002680003F00803002B15D0414B1B68DB690422FF
:100278001340002B0ED03E4B1B685B6C002B09D043
:100288003B4B1B685B6C9847374B9B68364A43F07F
:1002980008039360354B1B6803F01003002B2DD027
:1002A800334B1B68DB6908221340002B26D0304BE8
:1002B8001B689B6C002B21D02D4B1B689B6C9847AF
:1002C800294B9B68284A43F010039360284B1B680E
:1002D8009B6B4FF48022934210D1254B1B685B68BF
:1002E8001B6803F48023002B04D0214B1B681B6D73
:1002F800984703E01E4B1B685B6D98471B4B1B68B8
:1003080003F02003002B2DD0194B1B68DB6910224A
:100318001340002B26D0164B1B68DB6C002B21D01A
:10032800134B1B68DB6C98470F4B9B680E4A43F0D6
:10033800200393600E4B1B689B6B4FF48022934203
:1003480010D10B4B1B685B681B6803F48023002BE0
:1003580004D0074B1B681B6D984703E0044B1B68D0
:100368005B6D984700BF80BD0060024060000020C0
:100378002000002080B500AF604B1B68604A136006
:100388005F4B1B6803F04003002B15D05D4B1B68C7
:10039800DB6980221340002B0ED05A4B1B68DB6BA5
:1003A800002B09D0574B1B68DB6B9847534B9B6856
:1003B800524A43F040039360514B1B6803F4807327
:1003C800002B15D04F4B1B68DB6902221340002B12
:1003D8000ED04C4B1B681B6C002B09D0494B1B687B
:1003E8001B6C9847454B9B68444A43F48073936061
:1003F800434B1B6803F40073002B15D0414B1B685B
:10040800DB6904221340002B0ED03E4B1B685B6C4B
:10041800002B09D03B4B1B685B6C9847374B9B689C
:10042800364A43F400739360354B1B6803F48063CA
:10043800002B2DD0334B1B68DB6908221340002B9F
:1004480026D0304B1B689B6C002B21D02D4B1B6892
:100458009B6C9847294B9B68284A43F480639360B8
:10046800284B1B689B6B4FF48022934210D1254B7D
:100478001B685B681B6803F48023002B04D0214BA6
:100488001B681B6D984703E01E4B1B685B6D984704
:100498001B4B1B6803F40063002B2DD0194B1B6802
:1004A800DB6910221340002B26D0164B1B68DB6C2F
:1004B800002B21D0134B1B68DB6C98470F4B9B68B4
:1004C8000E4A43F4006393600E4B1B689B6B4FF41A
:1004D8008022934210D10B4B1B685B681B6803F4A6
:1004E8008023002B04D0074B1B681B6D984703E043
:1004F800044B1B685B6D984700BF80BD00600240DD
:10050800600000202400002080B500AF644B1B6809
:10051800644A1360634B1B6803F48033002B15D0C7
:10052800614B1B68DB6980221340002B0ED05E4BA9
:100538001B68DB6B002B09D05B4B1B68DB6B984798
:10054800574B9B68564A43F480339360554B1B685E
:1005580003F48023002B15D0534B1B68DB69022260
:100568001340002B0ED0504B1B681B6C002B09D07E
:100578004D4B1B681B6C9847494B9B68484A43F492
:1005880080239360474B1B6803F40023002B1CD087
:10059800454B1B68DB6904221340002B15D0424BE6
:1005A8001B68DB6904221340002B0ED03E4B1B68EE
:1005B8005B6C002B09D03C4B1B685B6C9847384B35
:1005C8009B68374A43F400239360364B1B6803F457
:1005D8008013002B2DD0344B1B68DB690822134095
:1005E800002B26D0304B1B689B6C002B21D02E4B48
:1005F8001B689B6C98472A4B9B68294A43F48013D5
:100608009360294B1B689B6B4FF48022934210D157
:10061800254B1B685B681B6803F48023002B04D000
:10062800214B1B681B6D984703E01F4B1B685B6DD4
:1006380098471C4B1B6803F40013002B2DD01A4B52
:100648001B68DB6910221340002B26D0164B1B6851
:10065800DB6C002B21D0144B1B68DB6C9847104BCC
:100668009B680F4A43F4001393600F4B1B689B6B06
:100678004FF48022934210D10B4B1B685B681B68B8
:1006880003F48023002B04D0074B1B681B6D98478D
:1006980003E0054B1B685B6D984700BF80BD00BF3A
:1006A80000600240600000202800002080B500AFF4
:1006B800604B1B68604A13605F4B1B6803F4800340
:1006C800002B15D05D4B1B68DB6980221340002B83
:1006D8000ED05A4B1B68DB6B002B09D0574B1B689D
:1006E800DB6B9847534B9B68524A43F480039360F3
:1006F800514B1B6803F08073002B15D04F4B1B68C0
:10070800DB6902221340002B0ED04C4B1B681B6C7C
:10071800002B09D0494B1B681B6C9847454B9B68BD
:10072800444A43F080739360434B1B6803F00073A3
:10073800002B15D0414B1B68DB6904221340002BAA
:100748000ED03E4B1B685B6C002B09D03B4B1B68E3
:100758005B6C9847374B9B68364A43F0007393604D
:10076800354B1B6803F08063002B2DD0334B1B687F
:10077800DB6908221340002B26D0304B1B689B6C8A
:10078800002B21D02D4B1B689B6C9847294B9B68ED
:10079800284A43F080639360284B1B689B6B4FF497
:1007A8008022934210D1254B1B685B681B6803F4B9
:1007B8008023002B04D0214B1B681B6D984703E056
:1007C8001E4B1B685B6D98471B4B1B6803F000634F
:1007D800002B2DD0194B1B68DB6910221340002B0E
:1007E80026D0164B1B68DB6C002B21D0134B1B68E3
:1007F800DB6C98470F4B9B680E4A43F0006393608D
:100808000E4B1B689B6B4FF48022934210D10B4B0D
:100818001B685B681B6803F48023002B04D0074B1C
:100828001B681B6D984703E0044B1B685B6D98477A
:1008380000BF80BD00600240600000202C00002046
:1008480080B500AF4F4B5B684F4A13604E4B1B6837
:1008580003F00103002B0ED04C4B1B68DB6B002B05
:1008680009D04A4B1B68DB6B9847464B9B68454A47
:1008780043F040039360444B1B6803F00403002BD0
:100888000ED0424B1B681B6C002B09D03F4B1B68DA
:100898001B6C98473B4BDB683A4A43F00403D36030
:1008A800394B1B6803F00803002B0ED0374B1B682D
:1008B8005B6C002B09D0354B1B685B6C9847314B40
:1008C800DB68304A43F00803D3602F4B1B6803F002
:1008D8001003002B26D02D4B1B689B6C002B21D0BE
:1008E8002A4B1B689B6C9847264BDB68254A43F0CC
:1008F8001003D360254B1B689B6B4FF480229342F7
:1009080010D1224B1B685B681B6803F48023002B03
:1009180004D01E4B1B681B6D984703E01B4B1B68DC
:100928005B6D9847184B1B6803F02003002B26D0FB
:10093800164B1B68DB6C002B21D0144B1B68DB6C3F
:100948009847104BDB680F4A43F02003D3600F4BE6
:100958001B689B6B4FF48022934210D10B4B1B6892
:100968005B681B6803F48023002B04D0074B1B68CB
:100978001B6D984703E0054B1B685B6D984700BFEC
:1009880080BD00BF006002406400002030000020ED
:1009980080B500AF4F4B5B684F4A13604E4B1B68E6
:1009A80003F04003002B0ED04C4B1B68DB6B002B75
:1009B80009D04A4B1B68DB6B9847464BDB68454AB6
:1009C80043F04003D360444B1B6803F48073002B4F
:1009D8000ED0424B1B681B6C002B09D03F4B1B6889
:1009E8001B6C98473B4BDB683A4A43F48073D360EF
:1009F800394B1B6803F40073002B0ED0374B1B6870
:100A08005B6C002B09D0354B1B685B6C9847314BEE
:100A1800DB68304A43F40073D3602F4B1B6803F440
:100A28008063002B26D02D4B1B689B6C002B21D09C
:100A38002A4B1B689B6C9847264BDB68254A43F476
:100A48008063D360254B1B689B6B4FF480229342D5
:100A580010D1224B1B685B681B6803F48023002BB2
:100A680004D01E4B1B681B6D984703E01B4B1B688B
:100A78005B6D9847184B1B6803F40063002B26D066
:100A8800164B1B68DB6C002B21D0144B1B68DB6CEE
:100A98009847104BDB680F4A43F40063D3600F4B51
:100AA8001B689B6B4FF48022934210D10B4B1B6841
:100AB8005B681B6803F48023002B04D0074B1B687A
:100AC8001B6D984703E0054B1B685B6D984700BF9B
:100AD80080BD00BF00600240640000203400002098
:100AE80080B500AF4F4B5B684F4A13604E4B1B6895
:100AF80003F48033002B0ED04C4B1B68DB6B002BB0
:100B080009D04A4B1B68DB6B9847464BDB68454A64
:100B180043F48033D360444B1B6803F48023002BD9
:100B28000ED0424B1B681B6C002B09D03F4B1B6837
:100B38001B6C98473B4BDB683A4A43F48023D360ED
:100B4800394B1B6803F40023002B0ED0374B1B686E
:100B58005B6C002B09D0354B1B685B6C9847314B9D
:100B6800DB68304A43F40023D3602F4B1B6803F43F
:100B78008013002B26D02D4B1B689B6C002B21D09B
:100B88002A4B1B689B6C9847264BDB68254A43F425
:100B98008013D360254B1B689B6B4FF480229342D4
:100BA80010D1224B1B685B681B6803F48023002B61
:100BB80004D01E4B1B681B6D984703E01B4B1B683A
:100BC8005B6D9847184B1B6803F40013002B26D065
:100BD800164B1B68DB6C002B21D0144B1B68DB6C9D
:100BE8009847104BDB680F4A43F40013D3600F4B50
:100BF8001B689B6B4FF48022934210D10B4B1B68F0
:100C08005B681B6803F48023002B04D0074B1B6828
:100C18001B6D984703E0054B1B685B6D984700BF49
:100C280080BD00BF00600240640000203800002042
:100C380080B500AF4F4B5B684F4A13604E4B1B6843
:100C480003F48003002B0ED04C4B1B68DB6B002B8E
:100C580009D04A4B1B68DB6B9847464BDB68454A13
:100C680043F48003D360444B1B6803F08073002B6C
:100C78000ED0424B1B681B6C002B09D03F4B1B68E6
:100C88001B6C98473B4BDB683A4A43F08073D36050
:100C9800394B1B6803F00073002B0ED0374B1B68D1
:100CA8005B6C002B09D0354B1B685B6C9847314B4C
:100CB800DB68304A43F00073D3602F4B1B6803F0A6
:100CC8008063002B26D02D4B1B689B6C002B21D0FA
:100CD8002A4B1B689B6C9847264BDB68254A43F0D8
:100CE8008063D360254B1B689B6B4FF48022934233
:100CF80010D1224B1B685B681B6803F48023002B10
:100D080004D01E4B1B681B6D984703E01B4B1B68E8
:100D18005B6D9847184B1B6803F00063002B26D0C7
:100D2800164B1B68DB6C002B21D0144B1B68DB6C4B
:100D38009847104BDB680F4A43F00063D3600F4BB2
:100D48001B689B6B4FF48022934210D10B4B1B689E
:100D58005B681B6803F48023002B04D0074B1B68D7
:100D68001B6D984703E0054B1B685B6D984700BFF8
:100D780080BD00BF00600240640000203C000020ED
:100D880080B500AF604B1B68604A13605F4B1B68FF
:100D980003F00103002B15D05D4B1B68DB69802233
:100DA8001340002B0ED05A4B1B68DB6B002B09D06D
:100DB800574B1B68DB6B9847534B9B68524A43F071
:100DC80001039360514B1B6803F00403002B15D0FB
:100DD8004F4B1B68DB6902221340002B0ED04C4B93
:100DE8001B681B6C002B09D0494B1B681B6C984770
:100DF800454B9B68444A43F004039360434B1B688C
:100E080003F00803002B15D0414B1B68DB69042253
:100E18001340002B0ED03E4B1B685B6C002B09D097
:100E28003B4B1B685B6C9847374B9B68364A43F0D3
:100E380008039360354B1B6803F01003002B2DD07B
:100E4800334B1B68DB6908221340002B26D0304B3C
:100E58001B689B6C002B21D02D4B1B689B6C984703
:100E6800294B9B68284A43F010039360284B1B6862
:100E78009B6B4FF48022934210D1254B1B685B6813
:100E88001B6803F48023002B04D0214B1B681B6DC7
:100E9800984703E01E4B1B685B6D98471B4B1B680C
:100EA80003F02003002B2DD0194B1B68DB6910229F
:100EB8001340002B26D0164B1B68DB6C002B21D06F
:100EC800134B1B68DB6C98470F4B9B680E4A43F02B
:100ED800200393600E4B1B689B6B4FF48022934258
:100EE80010D10B4B1B685B681B6803F48023002B35
:100EF80004D0074B1B681B6D984703E0044B1B6825
:100F08005B6D984700BF80BD006402406000002010
:100F18004000002080B500AF4F4B1B684F4A13605C
:100F28004E4B1B6803F04003002B0ED04C4B1B6844
:100F3800DB6B002B09D04A4B1B68DB6B9847464B91
:100F48009B68454A43F040039360444B1B6803F495
:100F58008073002B0ED0424B1B681B6C002B09D0F2
:100F68003F4B1B681B6C98473B4B9B683A4A43F4C2
:100F780080739360394B1B6803F40073002B0ED009
:100F8800374B1B685B6C002B09D0354B1B685B6CBF
:100F98009847314B9B68304A43F4007393602F4B5A
:100FA8001B6803F48063002B26D02D4B1B689B6CB9
:100FB800002B21D02A4B1B689B6C9847264B9B68BB
:100FC800254A43F480639360254B1B689B6B4FF461
:100FD8008022934210D1224B1B685B681B6803F484
:100FE8008023002B04D01E4B1B681B6D984703E021
:100FF8001B4B1B685B6D9847184B1B6803F4006319
:10100800002B26D0164B1B68DB6C002B21D0144B11
:101018001B68DB6C9847104B9B680F4A43F40063CE
:1010280093600F4B1B689B6B4FF48022934210D147
:101038000B4B1B685B681B6803F48023002B04D0F0
:10104800074B1B681B6D984703E0054B1B685B6DDE
:10105800984700BF80BD00BF0064024060000020C8
:101068004400002080B500AF4F4B1B684F4A136007
:101078004E4B1B6803F48033002B0ED04C4B1B687F
:10108800DB6B002B09D04A4B1B68DB6B9847464B40
:101098009B68454A43F480339360444B1B6803F4D0
:1010A8008023002B0ED0424B1B681B6C002B09D0F1
:1010B8003F4B1B681B6C98473B4B9B683A4A43F471
:1010C80080239360394B1B6803F40023002B0ED058
:1010D800374B1B685B6C002B09D0354B1B685B6C6E
:1010E8009847314B9B68304A43F4002393602F4B59
:1010F8001B6803F48013002B26D02D4B1B689B6CB8
:10110800002B21D02A4B1B689B6C9847264B9B6869
:10111800254A43F480139360254B1B689B6B4FF45F
:101128008022934210D1224B1B685B681B6803F432
:101138008023002B04D01E4B1B681B6D984703E0CF
:101148001B4B1B685B6D9847184B1B6803F4001317
:10115800002B26D0164B1B68DB6C002B21D0144BC0
:101168001B68DB6C9847104B9B680F4A43F40013CD
:1011780093600F4B1B689B6B4FF48022934210D1F6
:101188000B4B1B685B681B6803F48023002B04D09F
:10119800074B1B681B6D984703E0054B1B685B6D8D
:1011A800984700BF80BD00BF006402406000002077
:1011B8004800002080B500AF604B1B68604A136090
:1011C8005F4B1B6803F48003002B15D05D4B1B6835
:1011D800DB6980221340002B0ED05A4B1B68DB6B57
:1011E800002B09D0574B1B68DB6B9847534B9B6808
:1011F800524A43F480039360514B1B6803F0807399
:10120800002B15D04F4B1B68DB6902221340002BC3
:101218000ED04C4B1B681B6C002B09D0494B1B682C
:101228001B6C9847454B9B68444A43F08073936016
:10123800434B1B6803F00073002B15D0414B1B6810
:10124800DB6904221340002B0ED03E4B1B685B6CFD
:10125800002B09D03B4B1B685B6C9847374B9B684E
:10126800364A43F000739360354B1B6803F0806384
:10127800002B2DD0334B1B68DB6908221340002B51
:1012880026D0304B1B689B6C002B21D02D4B1B6844
:101298009B6C9847294B9B68284A43F0806393606E
:1012A800284B1B689B6B4FF48022934210D1254B2F
:1012B8001B685B681B6803F48023002B04D0214B58
:1012C8001B681B6D984703E01E4B1B685B6D9847B6
:1012D8001B4B1B6803F00063002B2DD0194B1B68B8
:1012E800DB6910221340002B26D0164B1B68DB6CE1
:1012F800002B21D0134B1B68DB6C98470F4B9B6866
:101308000E4A43F0006393600E4B1B689B6B4FF4CF
:101318008022934210D10B4B1B685B681B6803F457
:101328008023002B04D0074B1B681B6D984703E0F4
:10133800044B1B685B6D984700BF80BD006402408A
:10134800600000204C00002080B500AF4F4B5B6868
:101358004F4A13604E4B1B6803F00103002B0ED05D
:101368004C4B1B68DB6B002B09D04A4B1B68DB6BB3
:101378009847464B9B68454A43F040039360444B6B
:101388001B6803F00403002B0ED0424B1B681B6C38
:10139800002B09D03F4B1B681B6C98473B4BDB6805
:1013A8003A4A43F00403D360394B1B6803F008033F
:1013B800002B0ED0374B1B685B6C002B09D0354BCC
:1013C8001B685B6C9847314BDB68304A43F0080375
:1013D800D3602F4B1B6803F01003002B26D02D4B36
:1013E8001B689B6C002B21D02A4B1B689B6C984771
:1013F800264BDB68254A43F01003D360254B1B6856
:101408009B6B4FF48022934210D1224B1B685B6880
:101418001B6803F48023002B04D01E4B1B681B6D34
:10142800984703E01B4B1B685B6D9847184B1B687C
:1014380003F02003002B26D0164B1B68DB6C002B17
:1014480021D0144B1B68DB6C9847104BDB680F4AA4
:1014580043F02003D3600F4B1B689B6B4FF4802233
:10146800934210D10B4B1B685B681B6803F4802305
:10147800002B04D0074B1B681B6D984703E0054BF6
:101488001B685B6D984700BF80BD00BF00640240C9
:10149800640000205000002080B500AF4F4B5B680F
:1014A8004F4A13604E4B1B6803F04003002B0ED0CD
:1014B8004C4B1B68DB6B002B09D04A4B1B68DB6B62
:1014C8009847464BDB68454A43F04003D360444B9A
:1014D8001B6803F48073002B0ED0424B1B681B6CF7
:1014E800002B09D03F4B1B681B6C98473B4BDB68B4
:1014F8003A4A43F48073D360394B1B6803F4007392
:10150800002B0ED0374B1B685B6C002B09D0354B7A
:101518001B685B6C9847314BDB68304A43F40073B7
:10152800D3602F4B1B6803F48063002B26D02D4B10
:101538001B689B6C002B21D02A4B1B689B6C98471F
:10154800264BDB68254A43F48063D360254B1B6830
:101558009B6B4FF48022934210D1224B1B685B682F
:101568001B6803F48023002B04D01E4B1B681B6DE3
:10157800984703E01B4B1B685B6D9847184B1B682B
:1015880003F40063002B26D0164B1B68DB6C002B82
:1015980021D0144B1B68DB6C9847104BDB680F4A53
:1015A80043F40063D3600F4B1B689B6B4FF480229E
:1015B800934210D10B4B1B685B681B6803F48023B4
:1015C800002B04D0074B1B681B6D984703E0054BA5
:1015D8001B685B6D984700BF80BD00BF0064024078
:1015E800640000205400002080B500AF4F4B5B68BA
:1015F8004F4A13604E4B1B6803F48033002B0ED008
:101608004C4B1B68DB6B002B09D04A4B1B68DB6B10
:101618009847464BDB68454A43F48033D360444BD4
:101628001B6803F48023002B0ED0424B1B681B6CF5
:10163800002B09D03F4B1B681B6C98473B4BDB6862
:101648003A4A43F48023D360394B1B6803F40023E0
:10165800002B0ED0374B1B685B6C002B09D0354B29
:101668001B685B6C9847314BDB68304A43F40023B6
:10167800D3602F4B1B6803F48013002B26D02D4B0F
:101688001B689B6C002B21D02A4B1B689B6C9847CE
:10169800264BDB68254A43F48013D360254B1B682F
:1016A8009B6B4FF48022934210D1224B1B685B68DE
:1016B8001B6803F48023002B04D01E4B1B681B6D92
:1016C800984703E01B4B1B685B6D9847184B1B68DA
:1016D80003F40013002B26D0164B1B68DB6C002B81
:1016E80021D0144B1B68DB6C9847104BDB680F4A02
:1016F80043F40013D3600F4B1B689B6B4FF480229D
:10170800934210D10B4B1B685B681B6803F4802362
:10171800002B04D0074B1B681B6D984703E0054B53
:101728001B685B6D984700BF80BD00BF0064024026
:10173800640000205800002080B500AF4F4B5B6864
:101748004F4A13604E4B1B6803F48003002B0ED0E6
:101758004C4B1B68DB6B002B09D04A4B1B68DB6BBF
:101768009847464BDB68454A43F48003D360444BB3
:101778001B6803F08073002B0ED0424B1B681B6C58
:10178800002B09D03F4B1B681B6C98473B4BDB6811
:101798003A4A43F08073D360394B1B6803F00073F7
:1017A800002B0ED0374B1B685B6C002B09D0354BD8
:1017B8001B685B6C9847314BDB68304A43F0007319
:1017C800D3602F4B1B6803F08063002B26D02D4B72
:1017D8001B689B6C002B21D02A4B1B689B6C98477D
:1017E800264BDB68254A43F08063D360254B1B6892
:1017F8009B6B4FF48022934210D1224B1B685B688D
:101808001B6803F48023002B04D01E4B1B681B6D40
:10181800984703E01B4B1B685B6D9847184B1B6888
:1018280003F00063002B26D0164B1B68DB6C002BE3
:1018380021D0144B1B68DB6C9847104BDB680F4AB0
:1018480043F00063D3600F4B1B689B6B4FF48022FF
:10185800934210D10B4B1B685B681B6803F4802311
:10186800002B04D0074B1B681B6D984703E0054B02
:101878001B685B6D984700BF80BD00BF00640240D5
:10188800640000205C00002080B500AF074B1B6897
:10189800002B02D0054B1B689847054B5B69044A2F
:1018A80043F00103536100BF80BD00BF6800002002
:1018B800003C014080B500AF074B5B68002B02D0AD
:1018C800054B5B689847054B5B69044A43F0020384
:1018D800536100BF80BD00BF68000020003C01408C
:1018E80080B500AF074B9B68002B02D0054B9B6867
:1018F8009847054B5B69044A43F00403536100BFF2
:1019080080BD00BF68000020003C014080B500AFEA
:10191800074BDB68002B02D0054BDB689847054B6B
:101928005B69044A43F00803536100BF80BD00BFF0
:1019380068000020003C014080B500AF074B1B69E0
:10194800002B02D0054B1B699847054B5B69044A7D
:1019580043F01003536100BF80BD00BF6800002042
:10196800003C014080B582B000AF05237B6020E0D9
:10197800144B5B6901217A6801FA02F21340002BCB
:1019880014D0114A7B6852F82330002B0ED00E4A2F
:101998007B6852F8233098470A4B5B6901217A68C3
:1019A80001FA02F21146074A0B4353617B6801337F
:1019B8007B607B68092BDBDD00BF00BF0837BD46B5
:1019C80080BD00BF003C01406800002080B582B0A7
:1019D80000AF0A237B6020E0144B5B6901217A6821
:1019E80001FA02F21340002B14D0114A7B6852F816
:1019F8002330002B0ED00E4A7B6852F823309847CC
:101A08000A4B5B6901217A6801FA02F21146074A1A
:101A18000B4353617B6801337B607B680F2BDBDDF5
:101A280000BF00BF0837BD4680BD00BF003C014075
:101A38006800002080B483B000AF78607B68304ACB
:101A480093424BD02E4A93424FD82E4A93423ED0CF
:101A58002C4A934249D82C4A934231D02A4A93427D
:101A680043D82A4A934224D0284A93423DD8284A48
:101A7800934217D0264A934237D8264A934203D036
:101A8800254A934207D030E0244B1B6B234A43F08E
:101A9800010313632CE0214B1B6B204A43F0020324
:101AA800136325E01D4B1B6B1C4A43F004031363AF
:101AB8001EE01A4B1B6B194A43F00803136317E027
:101AC800164B1B6B154A43F01003136310E0134BBE
:101AD8001B6B124A43F02003136309E00F4B1B6B87
:101AE8000E4A43F08003136302E04FF0FF3300E037
:101AF800002318460C37BD465DF8047B704700BFCD
:101B0800001C02400014024000100240000C024079
:101B18000008024000000240000402400038024071
:101B280080B582B000AF7860084611461A46034671
:101B3800FB700B46BB7013467B707868FFF77AFF23
:101B48007B681B68FA785200032101FA02F2D2433B
:101B58001A407B681A607B681B68B978FA7852006B
:101B680001FA02F21A437B681A607B685B68FA78AC
:101B7800012101FA02F2D2431A407B685A6002221C
:101B88007B78934208D07B685B687978FA7801FAA9
:101B980002F21A437B685A607B689B68FA785200A5
:101BA800032101FA02F2D2431A407B689A600422A8
:101BB8003B7C934209D07B689B68397CFA78520059
:101BC80001FA02F21A437B689A607B68DB68FA784C
:101BD8005200032101FA02F2D2431A407B68DA600C
:101BE80004223B7D934209D07B68DB68397DFA7813
:101BF800520001FA02F21A437B68DA600222BB78CB
:101C080093422FD1FB78072B15D87B681B6AFA788B
:101C180092000F2101FA02F2D2431A407B681A623D
:101C28007B681B6A397EFA78920001FA02F21A433D
:101C38007B681A6216E07B685B6AFA78083A920059
:101C48000F2101FA02F2D2431A407B685A627B687C
:101C58005B6A397EFA78083A920001FA02F21A436E
:101C68007B685A62002318460837BD4680BD0000CD
:101C780080B500AF574B1B689AB2574B1A80564B2A
:101C88001B889BB203F40073002B10D0534B1B68C6
:101C9800D3F8D830002B0AD0504B1B68D3F8D83073
:101CA80098474C4B1B684B4A23F4007313604A4B0C
:101CB8001B889BB203F48073002B10D0474B1B6822
:101CC800D3F8E030002B0AD0444B1B68D3F8E0303F
:101CD8009847404B1B683F4A23F4807313603E4B80
:101CE8001B889BB203F08003002B10D03B4B1B6872
:101CF800D3F8C830002B0AD0384B1B68D3F8C8304B
:101D08009847344B1B68334A23F080031360324BE7
:101D18001B889BB203F04003002B10D02F4B1B688D
:101D2800D3F8CC30002B0AD02C4B1B68D3F8CC301E
:101D38009847284B1B68274A23F040031360264B1B
:101D48001B889BB203F02003002B10D0234B1B6889
:101D5800D3F8D030002B0AD0204B1B68D3F8D030F2
:101D680098471C4B1B681B4A23F0200313601A4B2F
:101D78001B889BB203F01003002B10D0174B1B6875
:101D8800D3F8D430002B0AD0144B1B68D3F8D430C6
:101D98009847104B1B680F4A23F0100313600E4B33
:101DA8001B889BB203F00103002B10D00B4B1B6860
:101DB800D3F8C430002B0AD0084B1B68D3F8C430C2
:101DC8009847044B1B68034A23F00103136000BFC4
:101DD80080BD00BF004C0040B0000020AC000020D7
:101DE80080B500AF574B1B689AB2574B1A80564BB9
:101DF8001B889BB203F40073002B10D0534B1B6855
:101E0800D3F8D830002B0AD0504B1B68D3F8D83001
:101E180098474C4B1B684B4A23F4007313604A4B9A
:101E28001B889BB203F48073002B10D0474B1B68B0
:101E3800D3F8E030002B0AD0444B1B68D3F8E030CD
:101E48009847404B1B683F4A23F4807313603E4B0E
:101E58001B889BB203F08003002B10D03B4B1B6800
:101E6800D3F8C830002B0AD0384B1B68D3F8C830D9
:101E78009847344B1B68334A23F080031360324B76
:101E88001B889BB203F04003002B10D02F4B1B681C
:101E9800D3F8CC30002B0AD02C4B1B68D3F8CC30AD
:101EA8009847284B1B68274A23F040031360264BAA
:101EB8001B889BB203F02003002B10D0234B1B6818
:101EC800D3F8D030002B0AD0204B1B68D3F8D03081
:101ED80098471C4B1B681B4A23F0200313601A4BBE
:101EE8001B889BB203F01003002B10D0174B1B6804
:101EF800D3F8D430002B0AD0144B1B68D3F8D43055
:101F08009847104B1B680F4A23F0100313600E4BC1
:101F18001B889BB203F00103002B10D00B4B1B68EE
:101F2800D3F8C430002B0AD0084B1B68D3F8C43050
:101F38009847044B1B68034A23F00103136000BF52
:101F480080BD00BF00100140B0000020A8000020A4
:101F580080B483B000AF03463960FB7197F907304E
:101F6800002B0ADB3B68DAB20C4997F907301201FB
:101F7800D2B20B4483F800230AE03B68DAB208497E
:101F8800FB7903F00F03043B1201D2B20B441A761B
:101F980000BF0C37BD465DF8047B704700E100E0E8
:101FA80000ED00E080B582B000AF78607B68013B4F
:101FB800B3F1807F01D301230FE00A4A7B68013B1C
:101FC80053600F214FF0FF30FFF7C2FF054B00228F
:101FD8009A60044B07221A60002318460837BD464A
:101FE80080BD00BF10E000E080B582B000AF00F017
:101FF80023F90823FB714FF4A873BB800023FB70FF
:102008000723BB703C4B00225A603B4B1B683A4A83
:1020180043F48033136000BF374B1B6803F400336D
:10202800002BF9D0344B1B6C334A43F080531364B4
:10203800324B1B68314A43F480431360304B1B68B2
:102048002F4A43F4E06343F0050313602A4B5B68AF
:10205800BA781106FA7812041143BA88920111432A
:10206800FA790A431146244A0B435360224B5B68B2
:10207800214A43F4800353601F4B1F4A9B689360B7
:102088001D4B9B681C4A43F4A05393601A4B9B68F2
:10209800194A43F400439360174B1B68164A43F0F0
:1020A8008073136000BF144B1B6803F00073002B90
:1020B800F9D0114B9B68104A43F00203936000BFAC
:1020C8000D4B9B6803F00803082BF9D100F0C6F804
:1020D8000C4B1B68DB080C4AA2FB03235B08184661
:1020E800FFF760FF044B5B6C034A43F4804353647F
:1020F80000BF0837BD4680BD003802400070004070
:10210800003C0240000000201986611880B400AF2E
:10211800094B00221A60084B6FF07F425A60064B49
:1021280000229A60044B05221A6000231846BD4617
:102138005DF8047B704700BF10E000E080B485B014
:1021480000AF87ED010AD7ED017A9FED117A67EEAE
:10215800877AFCEEE77A17EE903AFB600D4AFB6847
:1021680053600C4B00229A600A4B1B68094A43F0E3
:102178000103136000BF074B1B6803F48033002B77
:10218800F9D0002318461437BD465DF8047B704724
:102198000010244810E000E080B582B000AF7860FD
:1021A8007B684FF47A7202FB03F37B6006E0B7EEBC
:1021B800000AFFF7C3FF7B68013B7B607B68002B4D
:1021C800F5D1002318460837BD4680BD80B483B0DA
:1021D80000AF786039607B685B6901213A6801FA71
:1021E80002F2D2431A407B685A6100BF0C37BD46E1
:1021F8005DF8047B704780B483B000AF78603960C5
:102208007B685B6901213A6801FA02F21A437B682C
:102218005A6100BF0C37BD465DF8047B704780B536
:1022280000AFFFF7E1FEFFF771FFFDF7C9FF05F00B
:10223800E3FE0023184680BD80B400AF064BD3F8F8
:102248008830054A43F47003C2F8883000BFBD46A1
:102258005DF8047B704700BF00ED00E080B487B0F4
:1022680000AF00233B6100237B610223FB60002356
:10227800BB6002237B60344B9B6803F00C033B611B
:102288003B69082B11D03B69082B44D83B69002BCC
:1022980003D03B69042B04D03DE02C4B2C4A1A6038
:1022A8003DE02A4B2B4A1A6039E0274B5B689B0DAF
:1022B80003F00103BB60244B5B6803F03F037B60C2
:1022C800BB68002B0CD0234A7B68B2FBF3F31E4A91
:1022D80052689209C2F3080202FB03F37B610BE028
:1022E8001B4A7B68B2FBF3F3174A52689209C2F3A0
:1022F800080202FB03F37B61134B5B681B0C03F0C2
:10230800030301335B00FB607A69FB68B2FBF3F3FC
:102318000E4A136003E00D4B0D4A1A6000BF0A4BCA
:102328009B681B0903F00F030B4AD35C3B61074B07
:102338001A683B6922FA03F3044A136000BF1C378A
:10234800BD465DF8047B704700380240000000205D
:102358000024F40000127A00182400080D4885466D
:10236800FFF76AFF0C480D490D4A002302E0D458D4
:10237800C4500433C4188C42F9D30A4A0A4C0023C7
:1023880001E013600432A242FBD300F011F8FFF71A
:1023980046FFFEE7000002200000002004000020A5
:1023A8003024000804000020B4000020FEE70000EC
:1023B80070B50D4D0D4C641BA4100026A64209D122
:1023C8000B4D0C4C00F018F8641BA4100026A64214
:1023D80005D170BD55F8043B98470136EEE755F82E
:1023E800043B98470136F2E728240008282400080F
:1023F800282400082C240008F8B500BFF8BC08BC45
:102408009E467047F8B500BFF8BC08BC9E467047AA
:10241800000000000000000001020304060708098C
:04242800AD010008FA
:04242C00890100081A
:042430000024F40090
:1080000090B585B004AF0120002402230422002192
:10801000029101920093234602460C210948F9F788
:1080200083FD0C210748FAF7EAF80120FAF7B8F8BF
:108030000C210448FAF7CEF80120FAF7B1F800BF96
:08804000EFE700BF000C024055
:040000050800236567
:00000001FF
