:020000040800F2
:100000000000022081320008D1320008D1320008FD
:10001000D1320008D1320008D132000800000000BF
:10002000000000000000000000000000D1320008C5
:10003000D132000800000000D1320008D13200089F
:10004000D1320008D1320008D1320008D132000884
:1000500000000000D1320008691E0008891E000857
:10006000A91E0008C91E0008E91E0008910D00081D
:100070007D0E0008690F00085510000841110008A6
:100080000D120008D9120008D1320008D132000840
:10009000D1320008D1320008D1320008091F00080F
:1000A000D1320008D1320008D1320008D132000824
:1000B000D1320008D1320008D1320008D132000814
:1000C000D1320008D1320008D1320008D132000804
:1000D000D132000849220008D1320008D13200088C
:1000E000411F0008D1320008D1320008D132000887
:1000F000D1320008D1320008D1320008A51300081F
:10010000D1320008D1320008D1320008D1320008C3
:100110006D210008D1320008D1320008D132000828
:10012000711400085D15000829160008F51600086E
:10013000E1170008D1320008D1320008D13200089E
:10014000D1320008D1320008D1320008D132000883
:10015000AD18000879190008451A0008D1320008C6
:10016000D1320008D1320008D1320008D132000863
:10017000D1320008D1320008D1320008D132000853
:08018000D1320008D132000861
:1001900010B5054C237833B9044B13B10448AFF3C1
:1001A00000800123237010BD5400002000000000D7
:1001B0008046000808B5034B1BB103490348AFF361
:1001C000008008BD000000005800002080460008A4
:1001D000034613F8012B002AFBD1181A0138704787
:1001E00001F0FF01102A2BDB10F0070F08D010F8E8
:1001F000013B013A8B422DD010F0070F42B3F6D1EC
:10020000F0B441EA012141EA014122F007047FF004
:1002100000070023F0E80256083C85EA010586EA5B
:10022000010685FA47F5A3FA87F586FA47F6A5FA97
:1002300087F68EB9EED1F0BC01F0FF0102F00702A3
:1002400032B110F8013B013A83EA010313B1F8D14E
:100250000020704701387047002D06BF354603382F
:10026000073815F0010F07D1013015F4807F02BF68
:10027000013015F4C03F0130F0BC0138704700BFB9
:1002800081F0004102E000BF83F0004330B54FEA47
:1002900041044FEA430594EA050F08BF90EA020FB4
:1002A0001FBF54EA000C55EA020C7FEA645C7FEA47
:1002B000655C00F0E2804FEA5454D4EB5555B8BF6A
:1002C0006D420CDD2C4480EA020281EA030382EADB
:1002D000000083EA010180EA020281EA0303362D6D
:1002E00088BF30BD11F0004F4FEA01314FF4801C40
:1002F0004CEA113102D0404261EB410113F0004F52
:100300004FEA03334CEA133302D0524263EB430308
:1003100094EA050F00F0A780A4F10104D5F1200EA6
:100320000DDB02FA0EFC22FA05F2801841F1000101
:1003300003FA0EF2801843FA05F359410EE0A5F1D5
:1003400020050EF1200E012A03FA0EFC28BF4CF006
:10035000020C43FA05F3C01851EBE37101F00045BC
:1003600007D54FF0000EDCF1000C7EEB00006EEBC9
:100370000101B1F5801F1BD3B1F5001F0CD3490853
:100380005FEA30004FEA3C0C04F101044FEA4452AA
:1003900012F5800F80F09A80BCF1004F08BF5FEA31
:1003A000500C50F1000041EB045141EA050130BD11
:1003B0005FEA4C0C404141EB0101013C28BFB1F523
:1003C000801FE9D291F0000F04BF01460020B1FA6E
:1003D00081F308BF2033A3F10B03B3F120020CDA41
:1003E0000C3208DD02F1140CC2F10C0201FA0CF01F
:1003F00021FA02F10CE002F11402D8BFC2F1200C84
:1004000001FA02F120FA0CFCDCBF41EA0C01904039
:10041000E41AA2BF01EB0451294330BD6FEA040482
:100420001F3C1CDA0C340EDC04F11404C4F120026D
:1004300020FA04F001FA02F340EA030021FA04F37F
:1004400045EA030130BDC4F10C04C4F1200220FAD6
:1004500002F001FA04F340EA0300294630BD21FA14
:1004600004F0294630BD94F0000F83F4801306BFDA
:1004700081F480110134013D4EE77FEA645C18BFCE
:100480007FEA655C29D094EA050F08BF90EA020F65
:1004900005D054EA000C04BF1946104630BD91EA5D
:1004A000030F1EBF0021002030BD5FEA545C05D160
:1004B0004000494128BF41F0004130BD14F580049F
:1004C0003CBF01F5801130BD01F0004545F0FE4113
:1004D00041F470014FF0000030BD7FEA645C1ABF48
:1004E000194610467FEA655C1CBF0B46024650EA7F
:1004F000013406BF52EA033591EA030F41F40021AB
:1005000030BD00BF90F0000F04BF0021704730B530
:100510004FF4806404F132044FF000054FF0000105
:1005200050E700BF90F0000F04BF0021704730B5C6
:100530004FF4806404F1320410F0004548BF40429B
:100540004FF000013EE700BF42004FEAE2014FEAF0
:1005500031014FEA02701FBF12F07F4393F07F4FCB
:1005600081F06051704732F07F4208BF704793F0CE
:100570007F4F04BF41F40021704730B54FF46074E1
:1005800001F0004521F000411CE700BF50EA0102E4
:1005900008BF704730B54FF000050AE050EA01028D
:1005A00008BF704730B511F0004502D5404261EBFD
:1005B00041014FF4806404F132045FEA915C3FF43E
:1005C000D8AE4FF003025FEADC0C18BF03325FEADB
:1005D000DC0C18BF033202EBDC02C2F1200300FA8C
:1005E00003FC20FA02F001FA03FE40EA0E0021FAB1
:1005F00002F11444BDE600BF70B54FF0FF0C4CF49F
:10060000E06C1CEA11541DBF1CEA135594EA0C0F50
:1006100095EA0C0F00F0DEF82C4481EA030621EA8B
:100620004C5123EA4C5350EA013518BF52EA0335C6
:1006300041F4801143F4801338D0A0FB02CE4FF078
:100640000005E1FB02E506F00042E0FB03E54FF0A8
:100650000006E1FB03569CF0000F18BF4EF0010EA0
:10066000A4F1FF04B6F5007F64F5407404D25FEA9C
:100670004E0E6D4146EB060642EAC62141EA55514F
:100680004FEAC52040EA5E504FEACE2EB4F1FD0C91
:1006900088BFBCF5E06F1ED8BEF1004F08BF5FEA0F
:1006A000500E50F1000041EB045170BD06F00046C1
:1006B00046EA010140EA020081EA0301B4EB5C046E
:1006C000C2BFD4EB0C0541EA045170BD41F4801166
:1006D0004FF0000E013C00F3AB8014F1360FDEBF8B
:1006E000002001F0004170BDC4F10004203C35DA67
:1006F0000C341BDC04F11404C4F1200500FA05F3EA
:1007000020FA04F001FA05F240EA020001F000428A
:1007100021F0004110EBD37021FA04F642EB060100
:100720005EEA430E08BF20EAD37070BDC4F10C042A
:10073000C4F1200500FA04F320FA05F001FA04F2EE
:1007400040EA020001F0004110EBD37041F10001DA
:100750005EEA430E08BF20EAD37070BDC4F12005E5
:1007600000FA05F24EEA020E20FA04F301FA05F24D
:1007700043EA020321FA04F001F0004121FA04F2F5
:1007800020EA020000EBD3705EEA430E08BF20EAC5
:10079000D37070BD94F0000F0FD101F000464000FF
:1007A00041EB010111F4801F08BF013CF7D041EA81
:1007B000060195F0000F18BF704703F00046520085
:1007C00043EB030313F4801F08BF013DF7D043EA56
:1007D0000603704794EA0C0F0CEA135518BF95EA0C
:1007E0000C0F0CD050EA410618BF52EA4306D1D193
:1007F00081EA030101F000414FF0000070BD50EAB2
:10080000410606BF1046194652EA430619D094EA3B
:100810000C0F02D150EA013613D195EA0C0F05D125
:1008200052EA03361CBF104619460AD181EA030179
:1008300001F0004141F0FE4141F470014FF0000031
:1008400070BD41F0FE4141F4780170BD70B54FF0CC
:10085000FF0C4CF4E06C1CEA11541DBF1CEA13554C
:1008600094EA0C0F95EA0C0F00F0A7F8A4EB05042E
:1008700081EA030E52EA03354FEA013100F0888025
:100880004FEA03334FF0805545EA131343EA1263EE
:100890004FEA022245EA111545EA10654FEA0026A3
:1008A0000EF000419D4208BF964244F1FD0404F55C
:1008B000407402D25B084FEA3202B61A65EB0305B8
:1008C0005B084FEA32024FF480104FF4002CB6EB75
:1008D000020E75EB030E22BFB61A754640EA0C00F5
:1008E0005B084FEA3202B6EB020E75EB030E22BF35
:1008F000B61A754640EA5C005B084FEA3202B6EB76
:10090000020E75EB030E22BFB61A754640EA9C0034
:100910005B084FEA3202B6EB020E75EB030E22BF04
:10092000B61A754640EADC0055EA060E18D04FEAC2
:10093000051545EA16754FEA06164FEAC30343EA62
:1009400052734FEAC2025FEA1C1CC0D111F4801F2F
:100950000BD141EA00014FF000004FF0004CB6E728
:1009600011F4801F04BF01430020B4F1FD0C88BFC7
:10097000BCF5E06F3FF6AFAEB5EB030C04BFB6EBD2
:10098000020C5FEA500C50F1000041EB045170BDC5
:100990000EF0004E4EEA113114EB5C04C2BFD4EBF2
:1009A0000C0541EA045170BD41F480114FF0000E76
:1009B000013C90E645EA060E8DE60CEA135594EAF2
:1009C0000C0F08BF95EA0C0F3FF43BAF94EA0C0FF5
:1009D0000AD150EA01347FF434AF95EA0C0F7FF46A
:1009E00025AF104619462CE795EA0C0F06D152EABE
:1009F00003353FF4FDAE1046194622E750EA4106A2
:100A000018BF52EA43067FF4C5AE50EA41047FF4B2
:100A10000DAF52EA43057FF4EBAE12E74FF0FF3C17
:100A200006E000BF4FF0010C02E000BF4FF0010CE8
:100A30004DF804CD4FEA410C7FEA6C5C4FEA430C61
:100A400018BF7FEA6C5C1BD001B050EA410C0CBFB0
:100A500052EA430C91EA030F02BF90EA020F002012
:100A6000704710F1000F91EA030F58BF994208BF79
:100A700090422CBFD8176FEAE37040F00100704736
:100A80004FEA410C7FEA6C5C02D150EA013C07D18D
:100A90004FEA430C7FEA6C5CD6D152EA033CD3D0D8
:100AA0005DF8040B704700BF8446104662468C46D2
:100AB0001946634600E000BF01B5FFF7B7FF002805
:100AC00048BF10F1000F01BD4DF808EDFFF7F4FF2E
:100AD0000CBF012000205DF808FB00BF4DF808EDB9
:100AE000FFF7EAFF34BF012000205DF808FB00BFDC
:100AF0004DF808EDFFF7E0FF94BF012000205DF8FE
:100B000008FB00BF4DF808EDFFF7CEFF94BF0120B2
:100B100000205DF808FB00BF4DF808EDFFF7C4FFAB
:100B200034BF012000205DF808FB00BF4FEA4102FE
:100B300012F5001215D211D56FF47873B3EB62522F
:100B400012D94FEAC12343F0004343EA505311F056
:100B5000004F23FA02F018BF404270474FF00000E8
:100B6000704750EA013005D111F0004008BF6FF026
:100B7000004070474FF00000704700BF38B50022BA
:100B8000002304460D46FFF7A9FF28B92046294651
:100B9000BDE8384000F00AB8204605F1004100F0F9
:100BA00005F8404261EB410138BD00BFD0B50C4BA8
:100BB000002206460F46FFF71FFD00F015F8044619
:100BC000FFF7A0FC074B0022FFF716FD02460B467D
:100BD00030463946FFF758FB00F006F82146D0BDF5
:100BE0000000F03D0000F0414A0011D212F5001261
:100BF00011D20DD56FF47873B3EB62520ED44FEA75
:100C0000C12343F0004343EA505323FA02F07047F4
:100C10004FF00000704750EA013002D14FF0FF3032
:100C200070474FF000007047024A136B43F4805343
:100C30001363704700380240114B1B68012B1DD114
:100C4000104B1A685B6872B60F4B1B6F1A6822F064
:100C500001021A6059680D4AC1F1C801116011689A
:100C6000C8294FF0C801C8BF116059601A6842F026
:100C700001021A6062B6064B01221A60704700BF7B
:100C800024020020004C0040700000201C020020C4
:100C90002002002038B50D4C0546204601F064FBCB
:100CA0000B4BC4E9003540F6012323810B23A372CB
:100CB0001023A3734FF440732382064BC4F8D4303F
:100CC0002046BDE8384001F0A1BB00BF7000002005
:100CD000004C0040390C00080FB413B50A4C04ABAB
:100CE000C82153F8042B0193204602F01FFB204635
:100CF000FFF76EFA214682B2044802F063F802B0B0
:100D0000BDE8104004B0704754010020700000207E
:100D10000FB473B5134E14491448154D01233360B5
:100D2000C822002302F0C2F82B68002BFCD0114B24
:100D30001A68012A4FF0000408DC34604FF0FF30DD
:100D40002C6002B0BDE8704004B070471B680648D4
:100D50000699013B07AAC454019202F019FB3460C2
:100D60002C60EEE7240200205401002070000020D7
:100D7000200200201C020020044A4109012300F047
:100D80001F00834042F82130704700BF00E100E0BF
:100D900070B5374D374C2B6823602368DB070BD5C4
:100DA000354B1B68DA69160606D5DB6B23B198470D
:100DB000AB6843F00103AB6023685D070CD52E4B95
:100DC0001B68DA69900707D51B6C2BB19847284A36
:100DD000936843F004039360236819070CD5264BEE
:100DE0001B68DA69520707D55B6C2BB19847204A1C
:100DF000936843F0080393602368DB0618D51E4D03
:100E00002B68DA69160713D59B6C8BB19847184A83
:100E1000936843F0100393602B689A6BB2F5802FB0
:100E200006D15A68126855034CBF1B6D5B6D98471D
:100E3000236898061AD5104C2368DA69D10615D5AF
:100E4000DB6C9BB198470A4A936843F02003936098
:100E500023689A6BB2F5802F08D15A681268520342
:100E6000BDE870404CBF1B6D5B6D184770BD00BF87
:100E7000006002402C0200206C02002070B5374D4B
:100E8000374C2B68236023685B060BD5354B1B68FA
:100E9000DA69160606D5DB6B23B19847AB6843F0D9
:100EA0004003AB602368DD050CD52E4B1B68DA6967
:100EB000900707D51B6C2BB19847284A936843F4D9
:100EC00080739360236899050CD5264B1B68DA69FB
:100ED000520707D55B6C2BB19847204A936843F4BF
:100EE0000073936023685B0518D51E4D2B68DA6983
:100EF000160713D59B6C8BB19847184A936843F437
:100F0000806393602B689A6BB2F5802F06D15A6884
:100F1000126855034CBF1B6D5B6D9847236818051D
:100F20001AD5104C2368DA69D10615D5DB6C9BB154
:100F300098470A4A936843F40063936023689A6B66
:100F4000B2F5802F08D15A6812685203BDE870408C
:100F50004CBF1B6D5B6D184770BD00BF0060024049
:100F60002C0200206802002070B5374D374C2B68EA
:100F700023602368DB030BD5354B1B68DA69160643
:100F800006D5DB6B23B19847AB6843F48033AB6085
:100F900023685D030CD52E4B1B68DA69900707D5D3
:100FA0001B6C2BB19847284A936843F480239360C5
:100FB000236819030CD5264B1B68DA69520707D53D
:100FC0005B6C2BB19847204A936843F400239360ED
:100FD0002368DB0218D51E4D2B68DA69160713D576
:100FE0009B6C8BB19847184A936843F480139360C5
:100FF0002B689A6BB2F5802F06D15A681268550398
:101000004CBF1B6D5B6D9847236898021AD5104C36
:101010002368DA69D10615D5DB6C9BB198470A4A7B
:10102000936843F40013936023689A6BB2F5802FA2
:1010300008D15A6812685203BDE870404CBF1B6D5E
:101040005B6D184770BD00BF006002402C0200209D
:101050006402002070B5374D374C2B68236023683D
:101060005B020BD5354B1B68DA69160606D5DB6BC0
:1010700023B19847AB6843F48003AB602368DD017C
:101080000CD52E4B1B68DA69900707D51B6C2BB16A
:101090009847284A936843F08073936023689901C6
:1010A0000CD5264B1B68DA69520707D55B6C2BB150
:1010B0009847204A936843F00073936023685B016C
:1010C00018D51E4D2B68DA69160713D59B6C8BB1AA
:1010D0009847184A936843F0806393602B689A6B33
:1010E000B2F5802F06D15A68126855034CBF1B6DAC
:1010F0005B6D9847236818011AD5104C2368DA698C
:10110000D10615D5DB6C9BB198470A4A936843F02A
:101110000063936023689A6BB2F5802F08D15A68F8
:1011200012685203BDE870404CBF1B6D5B6D1847E1
:1011300070BD00BF006002402C0200206002002051
:1011400070B52F4D2F4C6B6823602368DA0708D5E4
:101150002D4B1B68DB6B23B19847AB6843F0400312
:10116000AB6023685B0709D5274B1B681B6C2BB151
:101170009847234AD36843F00403D36023681E07CB
:1011800009D5214B1B685B6C2BB198471C4AD3686F
:1011900043F00803D3602368DD0615D51A4D2B688C
:1011A0009B6C8BB19847164AD36843F01003D36009
:1011B0002B689A6BB2F5802F06D15A6812685003DB
:1011C0004CBF1B6D5B6D98472368990617D50E4C75
:1011D0002368DB6C9BB19847094AD36843F020032E
:1011E000D36023689A6BB2F5802F08D15A681268D1
:1011F0005203BDE870404CBF1B6D5B6D184770BD5E
:1012000000600240280200205C02002070B52F4DD3
:101210002F4C6B68236023685A0608D52D4B1B683A
:10122000DB6B23B19847EB6843F04003EB60236826
:10123000DB0509D5274B1B681B6C2BB19847234A4C
:10124000D36843F48073D36023689E0509D5214B8E
:101250001B685B6C2BB198471C4AD36843F400733E
:10126000D36023685D0515D51A4D2B689B6C8BB137
:101270009847164AD36843F48063D3602B689A6B0F
:10128000B2F5802F06D15A68126850034CBF1B6D0F
:101290005B6D98472368190517D50E4C2368DB6CE6
:1012A0009BB19847094AD36843F40063D36023682D
:1012B0009A6BB2F5802F08D15A6812685203BDE8C4
:1012C00070404CBF1B6D5B6D184770BD00600240E5
:1012D000280200205802002070B52F4D2F4C6B685B
:1012E00023602368DA0308D52D4B1B68DB6B23B121
:1012F0009847EB6843F48033EB6023685B0309D5C0
:10130000274B1B681B6C2BB19847234AD36843F4C7
:101310008023D36023681E0309D5214B1B685B6CB7
:101320002BB198471C4AD36843F40023D360236849
:10133000DD0215D51A4D2B689B6C8BB19847164A68
:10134000D36843F48013D3602B689A6BB2F5802F77
:1013500006D15A68126850034CBF1B6D5B6D9847ED
:101360002368990217D50E4C2368DB6C9BB1984714
:10137000094AD36843F40013D36023689A6BB2F52B
:10138000802F08D15A6812685203BDE870404CBFE4
:101390001B6D5B6D184770BD006002402802002085
:1013A0005402002070B52F4D2F4C6B6823602368CA
:1013B0005A0208D52D4B1B68DB6B23B19847EB68AD
:1013C00043F48003EB602368DB0109D5274B1B68DE
:1013D0001B6C2BB19847234AD36843F08073D360CA
:1013E00023689E0109D5214B1B685B6C2BB1984784
:1013F0001C4AD36843F00073D36023685D0115D5A0
:101400001A4D2B689B6C8BB19847164AD36843F0F2
:101410008063D3602B689A6BB2F5802F06D15A682F
:10142000126850034CBF1B6D5B6D98472368190110
:1014300017D50E4C2368DB6C9BB19847094AD368DB
:1014400043F00063D36023689A6BB2F5802F08D114
:101450005A6812685203BDE870404CBF1B6D5B6D4B
:10146000184770BD00600240280200205002002092
:1014700070B5374D374C2B6823602368DB070BD5DD
:10148000354B1B68DA69160606D5DB6B23B1984726
:10149000AB6843F00103AB6023685D070CD52E4BAE
:1014A0001B68DA69900707D51B6C2BB19847284A4F
:1014B000936843F004039360236819070CD5264B07
:1014C0001B68DA69520707D55B6C2BB19847204A35
:1014D000936843F0080393602368DB0618D51E4D1C
:1014E0002B68DA69160713D59B6C8BB19847184A9D
:1014F000936843F0100393602B689A6BB2F5802FCA
:1015000006D15A68126855034CBF1B6D5B6D984736
:10151000236898061AD5104C2368DA69D10615D5C8
:10152000DB6C9BB198470A4A936843F020039360B1
:1015300023689A6BB2F5802F08D15A68126852035B
:10154000BDE870404CBF1B6D5B6D184770BD00BFA0
:10155000006402402C0200204C02002070B52F4D88
:101560002F4C2B68236023685A0608D52D4B1B6827
:10157000DB6B23B19847AB6843F04003AB60236853
:10158000DB0509D5274B1B681B6C2BB19847234AF9
:10159000936843F48073936023689E0509D5214BBB
:1015A0001B685B6C2BB198471C4A936843F400732B
:1015B000936023685D0515D51A4D2B689B6C8BB124
:1015C0009847164A936843F4806393602B689A6B3C
:1015D000B2F5802F06D15A68126850034CBF1B6DBC
:1015E0005B6D98472368190517D50E4C2368DB6C93
:1015F0009BB19847094A936843F40063936023685A
:101600009A6BB2F5802F08D15A6812685203BDE870
:1016100070404CBF1B6D5B6D184770BD006402408D
:101620002C0200204802002070B52F4D2F4C2B6853
:1016300023602368DA0308D52D4B1B68DB6B23B1CD
:101640009847AB6843F48033AB6023685B0309D5EC
:10165000274B1B681B6C2BB19847234A936843F4B4
:101660008023936023681E0309D5214B1B685B6CA4
:101670002BB198471C4A936843F400239360236876
:10168000DD0215D51A4D2B689B6C8BB19847164A15
:10169000936843F4801393602B689A6BB2F5802FA4
:1016A00006D15A68126850034CBF1B6D5B6D98479A
:1016B0002368990217D50E4C2368DB6C9BB19847C1
:1016C000094A936843F40013936023689A6BB2F558
:1016D000802F08D15A6812685203BDE870404CBF91
:1016E0001B6D5B6D184770BD006402402C0200202A
:1016F0004402002070B5374D374C2B6823602368B7
:101700005B020BD5354B1B68DA69160606D5DB6B19
:1017100023B19847AB6843F48003AB602368DD01D5
:101720000CD52E4B1B68DA69900707D51B6C2BB1C3
:101730009847284A936843F080739360236899011F
:101740000CD5264B1B68DA69520707D55B6C2BB1A9
:101750009847204A936843F00073936023685B01C5
:1017600018D51E4D2B68DA69160713D59B6C8BB103
:101770009847184A936843F0806393602B689A6B8C
:10178000B2F5802F06D15A68126855034CBF1B6D05
:101790005B6D9847236818011AD5104C2368DA69E5
:1017A000D10615D5DB6C9BB198470A4A936843F084
:1017B0000063936023689A6BB2F5802F08D15A6852
:1017C00012685203BDE870404CBF1B6D5B6D18473B
:1017D00070BD00BF006402402C02002040020020C7
:1017E00070B52F4D2F4C6B6823602368DA0708D53E
:1017F0002D4B1B68DB6B23B19847AB6843F040036C
:10180000AB6023685B0709D5274B1B681B6C2BB1AA
:101810009847234AD36843F00403D36023681E0724
:1018200009D5214B1B685B6C2BB198471C4AD368C8
:1018300043F00803D3602368DD0615D51A4D2B68E5
:101840009B6C8BB19847164AD36843F01003D36062
:101850002B689A6BB2F5802F06D15A681268500334
:101860004CBF1B6D5B6D98472368990617D50E4CCE
:101870002368DB6C9BB19847094AD36843F0200387
:10188000D36023689A6BB2F5802F08D15A6812682A
:101890005203BDE870404CBF1B6D5B6D184770BDB7
:1018A00000640240280200203C02002070B52F4D49
:1018B0002F4C6B68236023685A0608D52D4B1B6894
:1018C000DB6B23B19847EB6843F04003EB60236880
:1018D000DB0509D5274B1B681B6C2BB19847234AA6
:1018E000D36843F48073D36023689E0509D5214BE8
:1018F0001B685B6C2BB198471C4AD36843F4007398
:10190000D36023685D0515D51A4D2B689B6C8BB190
:101910009847164AD36843F48063D3602B689A6B68
:10192000B2F5802F06D15A68126850034CBF1B6D68
:101930005B6D98472368190517D50E4C2368DB6C3F
:101940009BB19847094AD36843F40063D360236886
:101950009A6BB2F5802F08D15A6812685203BDE81D
:1019600070404CBF1B6D5B6D184770BD006402403A
:10197000280200203802002070B52F4D2F4C6B68D4
:1019800023602368DA0308D52D4B1B68DB6B23B17A
:101990009847EB6843F48033EB6023685B0309D519
:1019A000274B1B681B6C2BB19847234AD36843F421
:1019B0008023D36023681E0309D5214B1B685B6C11
:1019C0002BB198471C4AD36843F40023D3602368A3
:1019D000DD0215D51A4D2B689B6C8BB19847164AC2
:1019E000D36843F48013D3602B689A6BB2F5802FD1
:1019F00006D15A68126850034CBF1B6D5B6D984747
:101A00002368990217D50E4C2368DB6C9BB198476D
:101A1000094AD36843F40013D36023689A6BB2F584
:101A2000802F08D15A6812685203BDE870404CBF3D
:101A30001B6D5B6D184770BD0064024028020020DA
:101A40003402002070B52F4D2F4C6B682360236843
:101A50005A0208D52D4B1B68DB6B23B19847EB6806
:101A600043F48003EB602368DB0109D5274B1B6837
:101A70001B6C2BB19847234AD36843F08073D36023
:101A800023689E0109D5214B1B685B6C2BB19847DD
:101A90001C4AD36843F00073D36023685D0115D5F9
:101AA0001A4D2B689B6C8BB19847164AD36843F04C
:101AB0008063D3602B689A6BB2F5802F06D15A6889
:101AC000126850034CBF1B6D5B6D9847236819016A
:101AD00017D50E4C2368DB6C9BB19847094AD36835
:101AE00043F00063D36023689A6BB2F5802F08D16E
:101AF0005A6812685203BDE870404CBF1B6D5B6DA5
:101B0000184770BD00640240280200203002002007
:101B10000368094A934206D1A2F52052136B43F49D
:101B2000001313637047054A9342FBD1A2F530526C
:101B3000136B43F48003F4E700600240006402404A
:101B400010B5FFF7E5FF43681A68D107044606D5CC
:101B50001A6822F001021A601A68D207FCD41A68C7
:101B6000217A42EA41621A601A68A1690A431A603E
:101B70001A68E1680A431A601A6861690A431A60C0
:101B80001A68A16A0A431A601A68616A0A431A60ED
:101B90001A6821690A431A60E269002A29D01006EE
:101BA00042BF596911435961D10642BF196841F0DA
:101BB00010011960100742BF196841F0080119604F
:101BC000510742BF196841F004011960920748BFEC
:101BD0001A684B4944BF42F002021A6022688A42E6
:101BE0004BD1484A934217D1474B0B201C60FFF75B
:101BF000C3F86368228C19680A431A601968628CFA
:101C00000A431A60A269B2F5807F71D11A6842F462
:101C100080721A60012010BD3C4A934203D13C4BB4
:101C20000C201C60E3E73B4A934203D13A4B0D2062
:101C30001C60DCE7394A934203D1394B0E201C600B
:101C4000D5E7384A934203D1374B0F201C60CEE7CB
:101C5000364A934203D1364B10201C60C7E7354A01
:101C6000934203D1344B11201C60C0E7334A9342A6
:101C7000BFD1334B2F201C60B9E732498A42B8D11B
:101C8000314A934203D1314B38201C60AFE7304AD0
:101C9000934203D12F4B39201C60A8E72E4A934270
:101CA00003D12E4B3A201C60A1E72D4A934203D169
:101CB0002C4B3B201C609AE72B4A934203D12B4BC1
:101CC0003C201C6093E72A4A934203D1294B4420CD
:101CD0001C608CE7284A934203D1284B45201C60A6
:101CE00085E7274A934284D1264B46201C607EE735
:101CF0001AB91A6822F480728BE74FF0FF308AE736
:101D000000600240106002406C0200202860024027
:101D100068020020406002406402002058600240D7
:101D200060020020706002405C0200208860024077
:101D300058020020A060024054020020B860024017
:101D40005002002000640240106402404C02002057
:101D500028640240480200204064024044020020FF
:101D60005864024040020020706402403C0200209F
:101D70008864024038020020A0640240340200203F
:101D8000B86402403002002043681A6822F0010261
:101D90001A608269D2B91A6822F480721A601A68CD
:101DA000416A22F4F8421A601A680A431A601A68F3
:101DB000816A0A431A60828E5A601A6842F480620D
:101DC0001A60026BDA60C26A9A607047B2F5807F6F
:101DD000E5D11A6842F48072E0E7000003681A4A0D
:101DE000934210B503D002F58062934212D141684C
:101DF000164A0A44482A0ED8154C9868D2106243F5
:101E0000144CA45C3F22A24002439A600B6843F04A
:101E100001030B6010BD104A0A44482A0AD80C4C32
:101E2000D868D21062430D4CA45C3F22A24002430A
:101E3000DA60EBE70A4A0A44482ADDD9094A0A442B
:101E4000482AE3D8EBE700BF00600240F09FFDBFE7
:101E5000ABAAAAAAA4460008909FFDBFA44600080A
:101E6000F09BFDBF909BFDBF08B5054B1B6803B100
:101E70009847044A536943F00103536108BD00BF0A
:101E800070020020003C014008B5054B5B6803B1BF
:101E90009847044A536943F00203536108BD00BFE9
:101EA00070020020003C014008B5054B9B6803B15F
:101EB0009847044A536943F00403536108BD00BFC7
:101EC00070020020003C014008B5054BDB6803B1FF
:101ED0009847044A536943F00803536108BD00BFA3
:101EE00070020020003C014008B5054B1B6903B19E
:101EF0009847044A536943F01003536108BD00BF7B
:101F000070020020003C01402DE9F0410A4EDFF84C
:101F10002C8005240127736907FA04F52B4206D0AB
:101F200058F824301BB1984773691D43756101341B
:101F30000A2CF0D1BDE8F081003C01407002002085
:101F40002DE9F0410A4EDFF82C800A24012773693D
:101F500007FA04F52B4206D058F824301BB19847F5
:101F600073691D4375610134102CF0D1BDE8F08117
:101F7000003C014070020020214B984230D00ED826
:101F8000A3F50063984221D003F58063984222D0E4
:101F9000A3F50063984212D04FF0FF307047194B01
:101FA000984222D003F50063984223D0A3F5406302
:101FB0009842F1D1144A136B43F0100303E0124A24
:101FC000136B43F001031363002070470E4A136B39
:101FD00043F00203F7E70C4A136B43F00403F2E704
:101FE000094A136B43F00803EDE7074A136B43F00C
:101FF0002003E8E7044A136B43F08003E3E700BFE4
:10200000000C024000140240003802402DE9F84361
:1020100004461D4617469DF820909DF824809DF8A3
:102020002860FFF7A9FFD4F800E04B0003229A4094
:102030006FEA020C2EEA02022260D4F800E007FAEE
:1020400003F242EA0E02226062684FF0010E0EFABD
:1020500001FE22EA0E026260022D1FBFD4F804E0E6
:1020600005FA01F242EA0E026260A2680CEA02027C
:10207000A260B9F1040F1FBFA26809FA03F5154366
:10208000A560E2680CEA0202B8F1040FE2601FBF2B
:10209000E26808FA03F31343E360022F08B20ED19B
:1020A00007294FF00F020DD8216A83009A4021EAD8
:1020B00002022262226A06FA03F31343236200201B
:1020C000BDE8F8830839636A89008A4023EA02037D
:1020D0006362636A8E401E436662F0E7014B012231
:1020E0001A707047BB020020014B01221A70704722
:1020F000BA020020014B01221A707047B902002079
:10210000014B01221A707047B8020020014B0122D6
:102110001A707047B7020020014B01221A707047F5
:10212000B6020020014B01221A707047B502002050
:10213000014B01221A707047B4020020014B0122AA
:102140001A707047B3020020014B01221A707047C9
:10215000B2020020014B01221A707047B102002028
:10216000014B01221A707047B002002038B5334D80
:10217000334C2B689BB2238023889A0509D5314BB9
:102180001B68D3F8D83023B198472B6823F4007329
:102190002B602388DB050AD52A4B1B68D3F8E03077
:1021A0002BB19847254A136823F480731360238862
:1021B0001D060AD5234B1B68D3F8C8302BB19847AE
:1021C0001E4A136823F080031360238858060AD53B
:1021D0001C4B1B68D3F8CC302BB19847174A1368B7
:1021E00023F040031360238899060AD5154B1B681A
:1021F000D3F8D0302BB19847104A136823F020034E
:1022000013602388DA060AD50E4B1B68D3F8D43046
:102210002BB19847094A136823F0100313602388F1
:10222000DB070AD5074B1B68D3F8C4302BB198479E
:10223000024A136823F00103136038BD004C0040CC
:10224000BC020020C402002038B5304C304D236859
:102250009BB22B802B88990509D52E4B1B68D3F890
:10226000D83023B19847236823F4007323602B8868
:10227000DA0509D5274B1B68D3F8E03023B198471E
:10228000236823F4807323602B881B0609D5214B18
:102290001B68D3F8C83023B19847236823F0800324
:1022A00023602B88580609D51A4B1B68D3F8CC300D
:1022B00023B19847236823F0400323602B889906B5
:1022C00009D5144B1B68D3F8D03023B19847236845
:1022D00023F0200323602B88DA0609D50D4B1B68F9
:1022E000D3F8D43023B19847236823F01003236038
:1022F0002B88DB0709D5074B1B68D3F8C43023B103
:102300009847236823F00103236038BD0010014083
:10231000BC020020D00200200068124B984217D067
:10232000A3F54C43984215D003F58063984213D02F
:1023300003F58063984211D003F5806398420FD073
:1023400003F54443984214BF4FF0FF300520704717
:10235000002070470120704702207047032070471B
:10236000042070470010014000234FF416520372FE
:1023700042604374C381704703681E4A934207D189
:1023800002F59432536C43F01003536401207047FC
:10239000194A934206D102F5FA32136C43F4003322
:1023A0001364F3E7154A934205D102F5F832136C32
:1023B00043F48023F4E7124A934205D102F5F63242
:1023C000136C43F40023EBE70E4A934205D102F568
:1023D000F432136C43F48013E2E70B4A934205D1C5
:1023E00002F59232536C43F02003CEE74FF0FF30FA
:1023F000704700BF0010014000440040004800400A
:10240000004C004000500040001401402DE9F04F06
:10241000044685B0FFF7B0FFA34E2368B34240F0F7
:102420009780A24B1C60237A012B08D0023B052B1E
:1024300000F25C82DFE803F0037403037474617AD2
:1024400009295AD100230725CDE9013502229848F0
:102450000092FFF7DBFDA17A0A2958D10722002359
:10246000CDE90132924802220092FFF7CFFD227A95
:10247000022A0BD1E17A082908D100234FF0070B7B
:10248000CDE9013B8A480092FFF7C0FDE37B002BBA
:1024900000F02C82012B0AD100234FF0070A022200
:1024A000CDE9013A824800920B21FFF7AFFDE27BB4
:1024B000022A09D100234FF00709CDE901397C48F0
:1024C00000920C21FFF7A2FDE37B032B40F00E826C
:1024D000002702254FF007083B462A460B21CDE98D
:1024E000017873480095FFF791FDCDE901780095DB
:1024F0003B462A460C216E4860E10629ABD10720F5
:1025000000230222CDE9013000926A48A1E70729A1
:10251000ADD102220023CDE9002366480291A4E751
:10252000617A092909D100234FF007080222CDE979
:1025300001385F480092FFF769FD237A072B40F0CE
:10254000D581029302220023CDE900230821D2E79E
:10255000594A934240F0B680584B1C60237A012BB5
:1025600008D0023B052B00F2C181DFE803F0037ABB
:1025700003037A7A617A022943D100234FF0070ED0
:10258000CDE9013E4A4800910A46FFF73FFDA17A96
:10259000032941D100230727CDE90137022244480E
:1025A0000092FFF733FD227A022A0AD1E17A042948
:1025B0003CD1072302930023CDE900233C48FFF7D9
:1025C00025FDE37B002B00F09181012B0AD1E17AFC
:1025D00081BB0723022236480092CDE901130B4646
:1025E000FFF714FDE37B023B012B00F27F81E17AD0
:1025F00001292AD10723029302220023CDE90023D7
:1026000079E70529C3D100234FF0070C0222CDE959
:10261000013C2B480092B8E70629C4D100230725C6
:102620000222CDE9013526480092BAE70729C8D130
:102630000291C0E7032940F05981072000230222BC
:10264000CDE9013000921E48CAE7042940F04E81CE
:10265000072100230222CDE901310092042118480C
:10266000ACE0617A022914D10722002310480091BE
:10267000CDE901320A46FFF7C9FC237A072B40F067
:102680003581E17A0429B6D0072940F02F810291E3
:10269000B2E70529F1D100234FF0070B0222CDE963
:1026A000013B07480092E6E700100140D0020020FD
:1026B000000002400004024000440040CC02002020
:1026C000000C0240734A934240F0B480724B1C608D
:1026D000237A012B08D0023B052B00F20781DFE8AB
:1026E00003F0038303038383617A0B290AD1002358
:1026F0004FF0070ACDE9013A022268480092FFF73D
:1027000085FC0CE00A2908D100234FF007090222BA
:10271000CDE9013962480092F1E70829F4D0A17AA5
:102720000A290AD100234FF00708CDE90138022217
:102730005A480092FFF76AFC0DE00B2908D10023EC
:102740004FF0070E0222CDE9013E55480092F1E715
:10275000617A0829F3D0227A022A0BD1E17A0C2976
:102760002FD100234FF0070CCDE9013C4C480092DB
:10277000FFF74CFCE37B002B00F0B88003F0FD0377
:10278000012B0AD1E17A29BB072302224448009297
:10279000CDE901130B46FFF739FCE37B023B012B2C
:1027A00000F2A480E17A01297FF44FAF00234FF0BB
:1027B000070BCDE9013B022239480092FFF726FCC6
:1027C00094E00A29D6D100230727CDE901373548FF
:1027D0000092CDE70329E0D1002307250222CDE9AD
:1027E000013530480092D6E7617A0B2909D10720DC
:1027F0000023CDE90130022228480092FFF706FCB1
:102800000BE00A2907D107220023CDE90132022279
:1028100023480092F2E70829F5D0E17A0C29C5D0C7
:102820000A2963D100234FF0070A0222CDE9013AB9
:10283000009214E71C4A93423CD11C4B1C60237A43
:10284000012B02D0043B012B50D8617A69B90823CF
:10285000022212480092CDE901130B46FFF7D6FB86
:10286000A17A01290CD10823C5E60A29F8D1002351
:102870004FF008090222CDE901390D480092EDE739
:102880000B2933D10823029302220023CDE9002330
:10289000074893E700480040C802002000000240BB
:1028A00000040240000C0240004C0040C402002022
:1028B000000802409F4A934240F0EE809E4B1C600D
:1028C000237A012B02D0043B012B0FD8627A022A13
:1028D00009D100234FF00808CDE90138974800924C
:1028E0001146FFF793FBA17A0C29BCD02046FFF7D5
:1028F00013FD934F451C387000F0CB80D4E9005095
:10290000FDF700FE8F4B1A688F4BB54289469B68D6
:102910008E49804603D08E48854240F0FF80C3F345
:102920004233C85C22FA00F0FDF7ECFD894B824689
:102930008B46002240464946FDF75EFE02460B46A6
:1029400050465946FDF782FF82468B46FEF716F940
:10295000FDF724FE02460B468046894650465946FE
:10296000FDF792FC7C4B0022FDF746FE41EC100B7C
:1029700001F00AFE51EC100BFEF7D8F849468246EA
:102980004046FEF7D3F84AEA0010A860EA68A37C44
:102990001343EB60A37B002B40F0EE80EB6823F445
:1029A000F873EB602B6923F040032B616B6923F410
:1029B000806323F001036B612268237C11690B4360
:1029C0001361637C9B0740F16C81B242634B40F022
:1029D0001C81634A07CA83E807001022DA61614A52
:1029E000DA6497F90010582202FB013500234FF4F6
:1029F0008061C5E908134FF40031C5E9043104F1E1
:102A00006C002946AB61EB60AB6200F0F7FC284636
:102A1000FFF796F8637C2268DD0740F19381B242AC
:102A2000514B40F04381514A07CA83E80700102206
:102A3000DA614F4ADA6497F90010582202FB013537
:102A400000234021C5E903314FF44031C5E90513A6
:102A500010204FF48061C5E90701294604F11400F4
:102A6000C5E9093300F0CAFC2846FFF769F8227A65
:102A70002368032A40F06B815A6942F008025A61C8
:102A8000DA6842F00C02DA60DA6842F40052DA6086
:102A9000012005B0BDE8F08F2D4A93427FF426AFA8
:102AA000237A012B08D0023B052B3FF61FAFDFE84E
:102AB00003F0032303032323617A062909D10023AA
:102AC0004FF0080E0222CDE9013E2A480092FFF79E
:102AD0009DFAA17A072909D100234FF0080C0222A0
:102AE000CDE9013C23480092FFF790FAE17A0829EA
:102AF0007FF4FCAE0291C7E6617A062908D1002373
:102B000008270222CDE901370C480092FFF77EFA30
:102B1000237A072B7FF4EAAE0821B8E5C3F38223BA
:102B2000C85C22FA00F0FDF7EDFC0B4B82468B46A9
:102B30000022FFE600500040C002002000000240DA
:102B4000D402002000000020003802405A4C000847
:102B5000001401400000404000003040E804002024
:102B600068470008E9200008D802002074470008E0
:102B7000DD20000800080240190642BFEA6842F062
:102B80008002EA605A0642BFEA6842F04002EA6008
:102B9000980642BFEA6842F02002EA60D90642BFC6
:102BA000EA6842F01002EA60DA0742BF6B6943F05C
:102BB00001036B61B54206D1684B002283F82523DF
:102BC00020225A60F8E6664B9D4202D1634B4022B8
:102BD000F7E7644B9D4202D1604B8022F1E7624BE4
:102BE0009D4203D15D4B4FF48012EAE75F4B9D425B
:102BF00003D15A4B4FF40012E3E75D4B9D427FF443
:102C0000DBAE564B80229A60DCE755498A420BD1F5
:102C1000584A07CA03F1580585E8070010225A6789
:102C2000554AC3F8A420DCE64E498A420CD1534AE7
:102C300007CA03F1B00585E807001022C3F8CC20CD
:102C40004F4AC3F8FC20CCE647498A420CD14D4A92
:102C500007CA03F5847585E807001022C3F824210C
:102C6000494AC3F85421BCE640498A420CD1474A3C
:102C700007CA03F5B07585E807001022C3F87C2168
:102C8000434AC3F8AC21ACE6424A07CA03F5DC75F7
:102C900085E807001022C3F8D4213F4AC3F8042274
:102CA0009FE6536923F040035361B3E62C498A42FF
:102CB0000BD13A4A07CA03F1580585E807001022EC
:102CC0005A67374AC3F8A420B5E626498A420CD190
:102CD000344A07CA03F1B00585E807001022C3F89B
:102CE000CC20314AC3F8FC20A5E61F498A420CD10A
:102CF0002E4A07CA03F5847585E807001022C3F839
:102D000024212B4AC3F8542195E618498A420CD154
:102D1000284A07CA03F5B07585E807001022C3F8F2
:102D20007C21254AC3F8AC2185E6244A07CA03F56D
:102D3000DC7585E807001022C3F8D421204AC3F8C7
:102D4000042278E6536923F0800353618FE6052A55
:102D500002BF1A6942F480421A6191E600E100E084
:102D60000044004000480040004C0040005000403B
:102D7000001401408047000801210008984700081E
:102D800019210008B047000831210008C847000891
:102D900049210008E0470008612100088C4700082D
:102DA000F5200008A44700080D210008BC470008D2
:102DB00025210008D44700083D210008EC47000801
:102DC00055210008F8B50446FFF7A6FA637C294EA2
:102DD00043F001036374236830701D6825F04005DB
:102DE00043F8045B244D582707FB0050C0E90B3122
:102DF0008286FEF7C9FF96F9000000FB0750FEF738
:102E0000EDFF23685A6942F080025A611B4A9342DF
:102E100007D11B4B1A78002AFCD000221A7001201F
:102E2000F8BD184A934204D1174B1A78002AFCD0F7
:102E3000F3E7164A934204D1154B1A78002AFCD0C6
:102E4000EBE7144A934204D1134B1A78002AFCD0C2
:102E5000E3E7124A934204D1114B1A78002AFCD0BE
:102E6000DBE7104A9342DAD10F4B1A78002AFCD0E4
:102E7000D3E700BFD4020020D80200200010014098
:102E8000BB02002000440040B9020020004800407E
:102E9000B7020020004C0040B50200200050004066
:102EA000B302002000140140B10200202DE9F041DE
:102EB000DFF8E0802A4E98F900400546407C58270C
:102EC00040F00200687483F0010307FB04601B02FA
:102ED00083612B6801630433C3628286FEF754FF6B
:102EE00098F9000000FB0760FEF778FF2B685A692D
:102EF00042F040025A611B4A934208D11A4B1A7899
:102F0000002AFCD000221A700120BDE8F081174A87
:102F1000934204D1164B1A78002AFCD0F2E7154AE6
:102F2000934204D1144B1A78002AFCD0EAE7134AE2
:102F3000934204D1124B1A78002AFCD0E2E7114ADE
:102F4000934204D1104B1A78002AFCD0DAE70F4ADA
:102F50009342D9D10E4B1A78002AFCD0D2E700BF99
:102F6000E804002000100140BA02002000440040A4
:102F7000B802002000480040B6020020004C00408B
:102F8000B402002000500040B202002000140140B2
:102F9000B0020020D402002007B500F031F96B4BDD
:102FA00000225A601A6842F480321A601A6890034C
:102FB000FCD51A6C664942F080521A640A6842F4E1
:102FC00080420A6001F5E6310A6842F4E06242F0AC
:102FD00005020A6059685F4A0A435A605A6842F417
:102FE00080025A609A689A609A6842F4A0529A6085
:102FF0009A6842F400429A601A6842F080721A603D
:10300000524B1A689101FCD59A6842F002029A600C
:103010009A681207FCD500F0FDF84F4BA8221B68F8
:10302000B3FBF2F3013BB3F1807F0AD24FF0E02211
:10303000F0215361494B83F8231000239361072348
:103040001361424A464C536C464D43F480435364EB
:103050004FF0E02300226FF07F411A6159619A61BD
:1030600005221A614FF4E130FDF714FEFDF7DCFD97
:103070002378082BFDD8DFE803F005545A5C5E6026
:10308000626466003848FDF727FE3848FDF724FEE5
:103090003548FDF721FE3648FDF71EFE3548FDF7A1
:1030A0001BFE3548FDF718FE3448FDF715FE344881
:1030B000FDF712FE3348FDF70FFE3348FDF70CFE17
:1030C0003248FDF709FE3248FDF706FE2648FDF7B7
:1030D00003FE3048FDF700FE2F480DF10701FDF714
:1030E00017FE9DF80730312B05D101232B482370A3
:1030F000FDF7F2FDBCE7323B052B10D8DFE803F00B
:10310000030507090B0D0223F0E70423EEE705236F
:10311000ECE70623EAE70723E8E70823E6E7204889
:10312000E6E72048FDF7D8FD00232370A0E71E48FE
:10313000F8E71E48F6E71E48F4E71E48F2E71E4887
:10314000F0E71E48EEE72846ECE700BF00380240F3
:1031500000700040085400070000002000ED00E06F
:10316000F8060020D84B0008AC4A0008EE4A0008D8
:10317000154B0008294B0008454B0008584B000828
:103180006D4B0008884B00089D4B0008B74B0008AA
:10319000D54B0008E64B0008FB4B00089A4B000893
:1031A000FE4B00081B4C00082D4C00085B4B000830
:1031B000704B00088B4B0008A04B00083E4C0008E9
:1031C0000B4A116810B5034609B90A491160106825
:1031D00009490A4C0344091B8B4206D900F0E2F866
:1031E0000C2303604FF0FF3010BD1360FCE700BFFD
:1031F000FC06002048080020000002200004000017
:10320000034AD2F8883043F47003C2F8883070471C
:1032100000ED00E0154B9A6802F00C02042A21D060
:10322000082A21D159685A685B684902C3F3881398
:103230004CBF0F490F4902F03F02B1FBF2F253437A
:103240000A4A5268C2F3014201325200B3FBF2F360
:10325000064A09499268C2F303128A5CD340074ABE
:1032600013607047024BF3E7024BF1E7003802406E
:1032700000127A000024F400624C000800000020D4
:103280000D488546FFF7BCFF0C480D490D4A002349
:1032900002E0D458C4500433C4188C42F9D30A4A0B
:1032A0000A4C002301E013600432A242FBD300F079
:1032B0007FF8FFF771FEFEE700000220000000200B
:1032C00054000020D44D000854000020480800207D
:1032D000FEE70020704730B51446002C9BB0054631
:1032E0001A4605DA8B2303604FF0FF301BB030BD68
:1032F0004FF40273ADF80C3014BF04F1FF332346D2
:10330000029305934FF6FF7300910491ADF80E30D0
:1033100069461E9B00F0D4F9431CBCBF8B232B6075
:10332000002CE3D0009B00221A70DFE707B5009362
:1033300013460A46014603480068FFF7CCFF03B076
:103340005DF804FB0400002070B59AB004461E46E8
:1033500008464FF401731546ADF80C300091049106
:10336000FCF736FF094B099300230D9312934FF698
:10337000FF7301900590ADF80E302A46334669463A
:10338000204600F0F1FA1AB070BD00BFD332000839
:1033900013460A46014602480068FFF7D5BF00BF42
:1033A00004000020014B1868704700BF0400002093
:1033B00070B50D4D0D4C641BA4100026A64209D11A
:1033C0000B4D0C4C01F05CF9641BA4100026A642C6
:1033D00005D170BD55F8043B98470136EEE755F826
:1033E000043B98470136F2E7CC4D0008CC4D00086D
:1033F000CC4D0008D04D0008704770470A449142F8
:1034000000F1FF3300D1704710B511F8014B03F8FC
:10341000014F9142F9D110BD38B50546002941D080
:1034200051F8043C0C1F002BB8BFE41800F0E0F882
:103430001D4A136833B9636014602846BDE83840FC
:1034400000F0DCB8A34208D9206821188B4201BFE4
:1034500019685B6809182160EDE71A465B680BB1D3
:10346000A342FAD911685018A0420BD12068014438
:10347000501883421160E0D118685B6853600844BB
:103480001060DAE702D90C232B60D6E720682118F8
:103490008B4204BF19685B68636004BF0918216030
:1034A0005460CAE738BD00BF4408002070B50F4E15
:1034B0000C463168054611B900F034FF30602146F2
:1034C000284600F02FFF431C03D14FF0FF34204665
:1034D00070BDC41C24F00304A042F8D0211A284671
:1034E00000F020FF0130F2D1EFE700BF40080020DC
:1034F0002DE9F843CD1C25F0030508350C2D38BF08
:103500000C25002D064601DBA94204D90C233360AB
:103510000020BDE8F883DFF8D48000F069F8D8F81F
:1035200000301C4644BB29463046FFF7BFFF431C12
:10353000044658D1D8F800402746002F43D1002C2C
:103540004BD023683946304604EB030900F0EAFE0D
:10355000814542D121686D1A29463046FFF7A6FF02
:1035600001303AD023682B442360D8F800305A68E1
:1035700062BBC8F800700FE02268521B20D40B2AEF
:1035800017D96119A342256018BF5960636808BF45
:10359000C8F8001062514B60304600F02FF804F17B
:1035A0000B00231D20F00700C21A1CBF1B1AA350DA
:1035B000AFE76268A3420CBFC8F800205A60EBE78F
:1035C00023466468AEE73C467F68B6E71A465B6808
:1035D000A342FBD100235360DEE70C233360304667
:1035E00000F00CF894E70560D6E700BF440800201F
:1035F0000148FFF701BF00BF3C0800200148FFF76A
:10360000FCBE00BF3C0800202DE9F0478E681F4635
:10361000BE420B6882460C4690462DD8B1F90C206C
:1036200012F4906F26D06569096905EB4505A3EB97
:10363000010905EBD5757B1C4B446D109D4238BFCD
:103640001D46530527D52946FFF752FF064660B3AE
:1036500021694A46FFF7D2FEA38923F4906343F021
:103660008003A381266165614E44A5EB09052660B0
:10367000A5603E46BE4200D93E46206832464146DD
:1036800000F035FEA3689B1BA360236833442360CE
:103690000020BDE8F0872A4600F054FE06460028C8
:1036A000E0D121695046FFF7B7FE0C23CAF800307D
:1036B000A38943F04003A3814FF0FF30E9E7000006
:1036C0002DE9F04F98468B891B069DB007460D46A5
:1036D000144610D50B6973B94021FFF709FF286024
:1036E000286130B90C233B604FF0FF301DB0BDE8BE
:1036F000F08F40236B610023099320238DF829303C
:10370000CDF80C803023DFF89C818DF82A304FF003
:10371000010923469A4613F8012B0AB1252AF9D14B
:10372000BAEB040B0BD05B46224629463846FFF71E
:103730006BFF013000F0A780099A5A4409929AF869
:103740000030002B00F09F8000234FF0FF32CDE9C6
:1037500005230AF1010A049307938DF853301A9355
:103760005446052214F8011B4E48FCF739FD049A13
:10377000D8B9D00644BF20238DF85330110744BF79
:103780002B238DF853309AF800302A2B15D0079A46
:10379000544600204FF00A0C214611F8013B303B03
:1037A000092B4BD9B0B1079214E0A0EB080309FA3A
:1037B00003F313430493A246D2E7039B191D1B682E
:1037C0000391002BBBBF5B4242F0020207930793B9
:1037D000B8BF049223782E2B0AD163782A2B32D1DA
:1037E000039B1A1D1B68039243EAE373023405939B
:1037F000DFF8C0A0217803225046FCF7F1FC38B175
:10380000049BA0EB0A00402282401343013404933E
:1038100014F8011B24488DF828100622FCF7E0FC60
:10382000002836D0214B1BBB039B073323F0070333
:1038300008330393099B334409936AE70CFB023274
:103840000C460120A8E700230134059319464FF0E8
:103850000A0C204610F8012B303A092A03D9002B14
:10386000C6D00591C4E70CFB012104460123F0E713
:1038700003AB00932A460E4B04A93846AFF30080F1
:10388000421C0646D6D1AB895B063FF52DAF0998A1
:103890002CE703AB00932A46054B04A9384600F0F9
:1038A00045FAEDE7724C00087C4C0008000000006F
:1038B00009360008784C000838B54B1C144603D173
:1038C0004FF0FF35284638BD938923F020039381BC
:1038D0005368526BCDB28AB1A26B9A4208DD23685D
:1038E0005A1E226003F8015C636801336360E9E7F4
:1038F000214600F0C2FC0028F1D0E1E721692268EE
:1039000041B1914206D212F8011CA94202D1013AFA
:103910002260EAE7C4E90F2304F14403636303234D
:10392000A363234603F8465F23600123DEE710B557
:103930000C46496B69B104F14403994201D0FFF789
:103940006BFD236C63600020606313B1E36B236045
:1039500010BD2369236000236360A38943F0200323
:10396000A3814FF0FF30F3E72DE9F0470C46ADF5AA
:10397000227D0021CDE94411A549A0910DF1040853
:10398000A449A54FCDF818810646A191009313785C
:10399000002B00F05881F95C11F0080102F10105DB
:1039A00019D06368002B0FDD23681A78BA5C120700
:1039B00001D42A46EBE7459A013245926268013309
:1039C000013A62602360ECE7A19B214630469847AC
:1039D0000028E9D0EDE7252B12D099466368002B2B
:1039E00040F39380226813784B4540F02C81636844
:1039F000013B6360459B0132013322604593D8E768
:103A00004191439153782A2B02BF1023951C419377
:103A10000A22A94619F8011BA1F13003092B1ED96E
:103A2000DFF8F8A103225046FCF7DAFB38B1419ADF
:103A3000A0EB0A0001238340134341934D4615F840
:103A4000013B782B06D8572B10D8252BC5D057D83B
:103A5000002B65D0032347930A23429378E0439BCE
:103A600002FB0311303943914D46D2E7A3F15802CE
:103A7000202AEFD801A151F822F000BF2F3B000807
:103A8000553A0008553A0008893B0008553A0008A5
:103A9000553A0008553A0008553A0008553A0008CA
:103AA000553A0008553A00089F3B0008853B00083E
:103AB000073B0008073B0008073B0008553A000891
:103AC000413B0008553A0008553A0008553A0008AD
:103AD000553A0008AF3B0008493B0008273B000867
:103AE000553A0008553A0008AB3B0008553A000823
:103AF000853B0008553A0008553A00082F3B00085E
:103B0000453B022BA6D8052321E0A19B2146304648
:103B1000984700283FF466AF4498002840F08B8017
:103B20004FF0FF308BE0419A42F020024192419ADF
:103B300042F40072419210226E2B429202D905E0AB
:103B400000234293032302E0082342930423479374
:103B50006368002B39DD419B590604D423681A7829
:103B6000BA5C120738D4479B022B47DC6B462246CF
:103B700041A9304600F0FAF9012864D002287FF408
:103B800018AFC9E70A22D7E72946404600F03CFBB8
:103B9000419B43F04003419305460123D7E7419BF6
:103BA00043F0400341930023D1E70223CFE741983C
:103BB000C3063FF5FEAE009B459A191D00911B6898
:103BC000C0074CBF1A801A60F3E6A19B214630461D
:103BD00098470028BFD09FE7459A01324592626816
:103BE000013A002A626002DD01332360B6E7A19B3F
:103BF0002146304698470028B0D08DE7042B0FDCD3
:103C00006B46224641A9304600F00AFAB4E700BFED
:103C1000B93800082F390008C14C0008784C00085A
:103C20000A4B002B3FF4C5AE6B46224641A93046F5
:103C3000AFF30080A0E7A3895B063FF571AF0DF5F8
:103C4000227DBDE8F0874498F9E700BF000000003E
:103C50002DE9F047164698468A680B69DDF82090F2
:103C60009342B8BF1346336091F8432007460C4691
:103C70000AB1013333602368990642BF33680233C7
:103C80003360256815F0060506D104F1190AE368CA
:103C900032689B1AAB4226DC94F843302268003B22
:103CA00018BF012392062BD404F143024146384643
:103CB000C84701301ED02368226903F00603042B95
:103CC00002BFE5683368ED1AA3680CBF25EAE57505
:103CD00000259342C4BF9B1AED1800261A34B54242
:103CE0001AD1002008E00123524641463846C84711
:103CF000013003D14FF0FF30BDE8F0870135C6E752
:103D0000E1185A1C302081F84300224494F84510F1
:103D100082F843100233C7E7012322464146384662
:103D2000C8470130E6D00136D9E700002DE9FF474A
:103D30000F7E0C9E782F914680460C469A4601F1E4
:103D4000430207D8622F0AD8002F00F0D280582FE4
:103D500000F0B98004F1420684F842703AE0A7F11D
:103D60006303152BF6D801A151F823F0C53D0008D7
:103D7000D93D0008553D0008553D0008553D000857
:103D8000553D0008D93D0008553D0008553D000847
:103D9000553D0008553D0008D93E0008033E000887
:103DA000933E0008553D0008553D0008FB3E0008C5
:103DB000553D0008033E0008553D0008553D0008EC
:103DC0009B3E000833681A1D1B68326004F14206EE
:103DD00084F8423001239DE033682068191D31606A
:103DE000060601D51D6803E04506FBD5B3F9005072
:103DF000002D03DA2D236D4284F8433059480A23FD
:103E000011E021683368080653F8045B02D44906C0
:103E100048BFADB26F2F5348336014BF0A23082345
:103E2000002184F843106668A660002EA2BF2168B6
:103E300021F0040121600DB9002E4BD01646B5FBD0
:103E4000F3F103FB1157C75D06F8017D2F46BB4216
:103E50000D46F4D9082B0BD12368DF0708D5236959
:103E600061689942DEBF302306F8013C06F1FF3657
:103E7000921B2261CDF800A04B4603AA2146404682
:103E8000FFF7E6FE01304AD14FF0FF3004B0BDE845
:103E9000F087236843F0200323603348782784F8B1
:103EA0004570236831681F0651F8045B02D45F0631
:103EB00048BFADB23160D90744BF43F0200323604F
:103EC0001DB11023ACE72748E9E7236823F020035E
:103ED0002360F6E71646BDE7336825686169181D5B
:103EE00030602E061B6801D5196002E06806FBD51C
:103EF0001980002323611646BCE733681A1D32601F
:103F00001E68626800213046FCF76AF908B1801B20
:103F1000606063682361002384F84330AAE7236963
:103F2000324649464046D0470130ADD023689B0712
:103F300013D4E068039B9842B8BF1846A6E7012354
:103F4000324649464046D04701309DD00135E368AE
:103F500003995B1AAB42F2DCEBE7002504F119068A
:103F6000F5E700BF834C0008944C00082DE9F843A6
:103F700015468A6880460C4632B98A69002A14BF01
:103F80004FF0FF3201228A602268DFF89090D1065C
:103F90005FBF1A68111D196016680027A06988B1F3
:103FA000012807D12B681A7863699B5C53B9002FED
:103FB00031D022E0022820D12B681B7819F8033079
:103FC0001B071AD42368DA065EBF2B681B7806F835
:103FD000013B2A686B6801322A60A268013B013A02
:103FE0006B600137A26042B1002BD7DCD4F880317E
:103FF0002946404698470028D0D0236813F0100384
:1040000005D1E2680132E260A26902B1337023692E
:104010003B4423610020BDE8F88300BFC14C000889
:104020002DE9F04F9846744B0C468246164693E8AD
:10403000070087B003AB83E80700704BA169704AA3
:10404000032908BF1A46A36801925A1EB2F5AE7F33
:1040500088BF6FF4AE75274682BF03EB050940F2B7
:104060005D13A36057F81C3B43F4506398BF4FF0B7
:10407000000923603D464FF0000B316803AB09781F
:1040800053F82B000222FCF7ABF828B3BBF1010F69
:1040900059D162682AB92268082142F4007261602D
:1040A0002260226822F4A0622260A268511EA160F0
:1040B00092B13268511C3160127805F8012B726898
:1040C000013A002A726007DCD4F88021314650465C
:1040D0009047002840F085800BF1010BBBF1030FE6
:1040E000CBD163680BB90A23636063684549606993
:1040F000C91A00F089F84FF0000BA3682268002B62
:104100003DD03168606991F800C010F80C000028BB
:1041100035D0BCF1300F24D1100522D50BF1010BA5
:10412000B9F1000F03D0013309F1FF39A3607368BF
:10413000013B002B73601BDD336801333360A368E0
:10414000013BA360D9E7BBF1020FAED1226802F4B4
:10415000C061B1F5007FBFD11021616042F480726F
:10416000A2E722F4106222600B7805F8013BDEE73B
:10417000D4F880313146504698470028DFD0236874
:10418000D9050DD5BD4209D915F8011CD4F87C31EB
:1041900032465046984705F1FF394D46BD4228D07A
:1041A000226812F0100213D12A706368019E39460A
:1041B0005046B047D8F8003021681A1DC8F80020D2
:1041C00011F0200F1B680FD01860E3680133E36023
:1041D0002369ED1B5D442B442361002007B0BDE83B
:1041E000F08F4FF0000BCAE7CA074CBF1880186069
:1041F000EBE70120F2E700BF98460008954400086D
:1042000075450008B54C000870B50B7804465E2B68
:104210000BBF4B784A1C8A1C002108BF01210138C2
:1042200004F1FF0500F8011FA842FBD10BB9501E95
:1042300070BD81F00101E1541046024612F8015BA5
:104240002D2D05D05D2D16D0002DF1D02B46F2E797
:1042500046785D2EFAD0B342F8DC02301A460132BD
:104260009642A154FBDCF21A013A5D1CB342A8BF8E
:104270000022AB18E1E71046DAE72DE9F0410C46E1
:10428000496B04F1440399421DD14FF48061FFF75B
:104290002FF918B94FF0FF30BDE8F0814FF480637B
:1042A000A36394F84630606380F8FF3394F8453098
:1042B00080F8FE3394F8443080F8FD3300F2FD308E
:1042C00020600020E8E7A66B77003A4600F03AF855
:1042D00005460028DED000EB06080146324640467F
:1042E000FFF78CF8C4E90D57C4F80080E9E788426D
:1042F00010B501EB020402D98442234607D8431EBD
:10430000A14208D011F8012B03F8012FF8E702446D
:1043100001468A4200D110BD13F8014D02F8014D4B
:10432000F7E7000038B5064D0023044608462B6029
:10433000FEF746FF431C02D12B6803B1236038BD52
:10434000380800202DE9F041804615460C4621B979
:10435000BDE8F0411146FFF7CBB82AB9FFF75CF88A
:1043600000242046BDE8F08100F006F985420646AB
:1043700002D8B5EB500FF4D829464046FFF7B8F8FD
:1043800007460028ECD0B5422A46214628BF3246CF
:10439000FFF734F821464046FFF73EF83C46E0E799
:1043A000242B2DE9F0478646904601D8012B06D1F3
:1043B000FEF7F8FF162303600020BDE8F0873448BD
:1043C0000D462A4615F8014B065D16F00806F8D191
:1043D0002D2C2DD12C780126951C33F0100209D1FB
:1043E000302C2AD12A7802F0DF02582A25D16C78A5
:1043F0001023023506F1004C0CF1FF3C0022BCFBFF
:10440000F3F9104603FB19CAA4F13007092F1BD892
:104410003C46A34227DD571C07D0814520D301D15C
:10442000A2451DDB00FB0340012215F8014BEBE721
:104430002B2C04BF2C78951CCFE7002BDAD1302C25
:104440000CBF08230A23D5E7A4F14107192F01D88F
:10445000373CDEE7A4F16107192F04D8573CD8E7B1
:104460004FF0FF32E1E7531C08D12223CEF8003091
:104470006046B8F1000FA0D0691E06E006B14042C8
:10448000B8F1000F99D0002AF6D1C8F8001094E7CF
:10449000C14C0008FFF784BF2DE9F043344E864637
:1044A0000D46284615F8014B375D17F00807F8D17F
:1044B0002D2C2FD12C780127851C33F0100009D129
:1044C000302C2CD1287800F0DF00582827D16C78C8
:1044D000102302354FF0FF380026B8FBF3F803FB3A
:1044E00008F96FEA09093046A4F1300CBCF1090F54
:1044F0001CD86446A3422ADDB6F1FF3F07D08045B1
:1045000022D301D1A1451FDB00FB0340012615F892
:10451000014BE9E72B2C04BF2C78851CCDE7002B41
:10452000D8D1302C0CBF08230A23D3E7A4F1410CC7
:10453000BCF1190F01D8373CDCE7A4F1610CBCF1E8
:10454000190F04D8573CD5E74FF0FF36DFE7731C4F
:1045500006D12223CEF80030304632B9BDE8F083D0
:1045600007B14042002AF9D006B1691E1160F5E793
:10457000C14C0008FFF790BF51F8043C181F002BF6
:10458000BCBF0B58C018704751EC100BC1F30A5355
:104590002DE9F041A3F2FF36132E0C460546804666
:1045A0002EDC002E11DA32A3D3E90023FBF76EFED6
:1045B00000220023FCF7B0FA20B1002C4FDB25438A
:1045C00051D12C462146284623E02B4F374101EAA2
:1045D000070303431DD026A3D3E90023FBF756FEB0
:1045E00000220023FCF798FA0028EBD0002CC2BF71
:1045F0004FF480133341E41824EA07040025E1E76F
:10460000332E0ADDB6F5806F03D102460B46FBF769
:104610003DFE41EC100BBDE8F081A3F213434FF0D7
:10462000FF37DF403842F4D011A3D3E90023FBF772
:104630002DFE00220023FCF76FFA0028C2D0002CC8
:104640000ADD142E01D1013406E0C6F1340601233F
:10465000B3401D44A845F6D825EA0705B2E7002572
:104660004FF00044AEE7054C0025ABE7AFF3008008
:104670009C7500883CE4377EFFFF0F000000F03F90
:10468000F8B500BFF8BC08BC9E467047F8B500BF3F
:08469000F8BC08BC9E4670470F
:10469800B74C0008BA4C0008BD4C000800061016BC
:1046A800006002401060024000000000006002400C
:1046B800886002400000000000600240586002402C
:1046C800000000000060024070600240000000002E
:1046D80000640240106402400300000000640240CD
:1046E8005864024003000000006002405860024025
:1046F80003000000006002407060024003000000F8
:104708000060024040600240020000000060024079
:10471800B86002400000000000600240886002406B
:104728000100000000600240A0600240010000009B
:104738000060024040600240070000000060024044
:10474800B86002400700000000600240406002407C
:104758000300000000600240706002400300000097
:10476800006402404064024004000000006402400B
:10477800B864024004000000006002408860024003
:104788000400000000600240A06002400400000035
:1047980000600240286002400400000000600240FF
:1047A800586002400400000000600240406002407F
:1047B8000400000000600240706002400400000035
:1047C80000600240106002400400000000600240E7
:1047D800B8600240040000000064024028640240FF
:1047E8000500000000640240A064024005000000CB
:1047F800006002405860024005000000006002406E
:10480800286002400500000000600240A0600240ED
:104818000500000000600240106002400500000032
:104828000064024088640240060000000064024000
:10483800286402400600000000640240A0640240B0
:104848000600000000640240A06402400600000068
:1048580000640240706402400600000000640240E8
:104868001064024006000000006402401064024028
:1048780006000000006402402864024007000000AF
:1048880000640240406402400700000000640240E7
:10489800706402400700000000640240A064024007
:1048A8000700000000640240B864024007000000EE
:1048B80000640240286402400700000000640240CF
:1048C800286402400700000000600240A060024027
:1048D80003000000006002408860024003000000FE
:1048E80000600240B860024003000000006002401F
:1048F800286002400300000000600240B8600240E7
:1049080003000000006002407060024005000000E3
:10491800006002408860024005000000006002401C
:10492800A0600240050000000060024040600240B4
:1049380005000000006002404060024005000000E1
:1049480000600240886002400500000000600240EC
:1049580010600240020000000060024058600240FF
:104968000200000000600240B8600240020000003F
:1049780000600240A06002400200000000600240A7
:104988004060024006000000006002407060024083
:1049980006000000006002401060024006000000AF
:1049A80000600240A0600240060000000060024073
:1049B800A06002400600000000600240586002400B
:1049C8000600000000600240286002400700000066
:1049D800006002404060024001000000000000004A
:1049E800000000000000000000600240A0600240DB
:1049F8000700000000640240586402400400000000
:104A08000064024028640240010000000064024083
:104A1800106402400000000000640240406402404C
:104A28000100000000640240286402400200000007
:104A3800000000002000000000000000400000000E
:104A480080000000000000000000010000000200DB
:104A58000000030000000000000800000010000033
:104A680000000000002000000040000000010000DD
:104A78000000000010000000080000000400000012
:104A88000200000080000000000000000004000098
:104A98000000000000020000000000000000040008
:104AA800000004003D3D3D3D3D3D3D3D3D3D3D3D1E
:104AB8003D3D3D3D3D3D3D3D3D3D3D3D3D3D3D3D1E
:104AC8003D3D3D3D3D3D3D3D3D3D3D3D3D3D3D3D0E
:104AD8003D3D3D3D3D3D3D3D3D3D3D3D3D3D3D3DFE
:104AE8003D3D3D0D0A0020202020202020202020B0
:104AF800202020202020202020202020202020428C
:104B08006F6F746C6F61646572200D0A0053656C79
:104B180065637420616E206F7074696F6E200D0A72
:104B280000312E20446F776E6C6F6164206E65775C
:104B3800206669726D77617265200D0A00322E2039
:104B480052656164204669726D776172650D0A006D
:104B5800332E204572617365204669726D776172E4
:104B680065200D0A00342E20476574204669726D51
:104B7800776172652056657273696F6E200D0A0041
:104B8800352E204765742050726F64756374204910
:104B980044200D0A00362E204765742050726F6439
:104BA8007563742056657273696F6E200D0A00373D
:104BB8002E20476574204170706C69636174696F59
:104BC8006E2056657273696F6E200D0A00382E20AC
:104BD8005265626F6F74204D4355200D0A00456E73
:104BE8007465722063686F696365205B312D385D79
:104BF8000D0A00256300496E76616C69642063685C
:104C08006F6963652E2054727920616761696E2E21
:104C18000D0A005772697465204669726D77617272
:104C280065200D0A0052656164204669726D7761DE
:104C38007265200D0A0052656164204170706C69CC
:104C4800636174696F6E2056657273696F6E200DAB
:104C58000A00000000000102030400000000000038
:104C680000000102030406070809232D302B200049
:104C7800686C4C006566674546470030313233340E
:104C880035363738394142434445460030313233AE
:104C980034353637383961626364656600412D46BC
:104CA800612D66383930313233343536375D002B73
:104CB8002D003030007858000020202020202020AF
:104CC80020202828282828202020202020202020B4
:104CD80020202020202020202088101010101010C4
:104CE8001010101010101010100404040404040410
:104CF80004040410101010101010414141414141AA
:104D0800010101010101010101010101010101018B
:104D1800010101011010101010104242424242429B
:104D2800020202020202020202020202020202025B
:104D38000202020210101010200000000000000003
:104D4800000000000000000000000000000000005B
:104D5800000000000000000000000000000000004B
:104D6800000000000000000000000000000000003B
:104D7800000000000000000000000000000000002B
:104D8800000000000000000000000000000000001B
:104D9800000000000000000000000000000000000B
:104DA80000000000000000000000000000000000FB
:0C4DB800000000000000000000000000EF
:084DC4000CB4FF7F01000000A8
:044DCC00B501000825
:044DD0009101000845
:104DD4000024F40008000020000000000007002068
:104DE40068070020D0070020000000000000000039
:104DF40000000000000000000000000000000000AF
:104E0400000000000000000000000000000000009E
:104E1400000000000000000000000000000000008E
:044E2400000000008A
:04000005080032813C
:00000001FF
