:020000040800F2
:1000000000000220C55100081552000815520008D2
:100010001552000815520008155200080000000093
:100020000000000000000000000000001552000861
:100030001552000800000000155200081552000873
:1000400015520008155200081552000815520008F4
:100050000000000015520008452C0008712C000813
:100060009D2C0008C92C0008F52C0008BD0D0008C7
:10007000510F0008E5100008891200081D1400083F
:100080006D150008BD16000815520008155200082D
:10009000155200081552000815520008212D0008BD
:1000A0001552000815520008155200081552000894
:1000B0001552000815520008155200081552000884
:1000C0001552000815520008155200081552000874
:1000D00015520008F933000815520008155200089F
:1000E000892D000815520008155200081552000805
:1000F0001552000815520008155200080D18000886
:100100001552000815520008155200081552000833
:1001100089320008155200081552000815520008CF
:100120005D190008F11A0008411C0008911D000823
:10013000251F000815520008155200081552000826
:1001400015520008155200081552000815520008F3
:1001500075200008C5210008152300081552000865
:1001600015520008155200081552000815520008D3
:1001700015520008155200081552000815520008C3
:08018000155200081552000899
:1001880010B5054C237833B9044B13B10448AFF3C9
:1001980000800123237010BD04000020000000002F
:1001A8007853000808B5034B1BB103490348AFF364
:1001B800008008BD000000000800002078530008F7
:1001C80081F0004102E000BF83F0004330B54FEA00
:1001D80041044FEA430594EA050F08BF90EA020F6D
:1001E8001FBF54EA000C55EA020C7FEA645C7FEA00
:1001F800655C00F0E2804FEA5454D4EB5555B8BF23
:100208006D420CDD2C4480EA020281EA030382EA93
:10021800000083EA010180EA020281EA0303362D25
:1002280088BF30BD11F0004F4FEA01314FF4801CF8
:100238004CEA113102D0404261EB410113F0004F0A
:100248004FEA03334CEA133302D0524263EB4303C1
:1002580094EA050F00F0A780A4F10104D5F1200E5F
:100268000DDB02FA0EFC22FA05F2801841F10001BA
:1002780003FA0EF2801843FA05F359410EE0A5F18E
:1002880020050EF1200E012A03FA0EFC28BF4CF0BF
:10029800020C43FA05F3C01851EBE37101F0004575
:1002A80007D54FF0000EDCF1000C7EEB00006EEB82
:1002B8000101B1F5801F1BD3B1F5001F0CD349080C
:1002C8005FEA30004FEA3C0C04F101044FEA445263
:1002D80012F5800F80F09A80BCF1004F08BF5FEAEA
:1002E800500C50F1000041EB045141EA050130BDCA
:1002F8005FEA4C0C404141EB0101013C28BFB1F5DC
:10030800801FE9D291F0000F04BF01460020B1FA26
:1003180081F308BF2033A3F10B03B3F120020CDAF9
:100328000C3208DD02F1140CC2F10C0201FA0CF0D7
:1003380021FA02F10CE002F11402D8BFC2F1200C3C
:1003480001FA02F120FA0CFCDCBF41EA0C019040F2
:10035800E41AA2BF01EB0451294330BD6FEA04043B
:100368001F3C1CDA0C340EDC04F11404C4F1200226
:1003780020FA04F001FA02F340EA030021FA04F338
:1003880045EA030130BDC4F10C04C4F1200220FA8F
:1003980002F001FA04F340EA0300294630BD21FACD
:1003A80004F0294630BD94F0000F83F4801306BF93
:1003B80081F480110134013D4EE77FEA645C18BF87
:1003C8007FEA655C29D094EA050F08BF90EA020F1E
:1003D80005D054EA000C04BF1946104630BD91EA16
:1003E800030F1EBF0021002030BD5FEA545C05D119
:1003F8004000494128BF41F0004130BD14F5800458
:100408003CBF01F5801130BD01F0004545F0FE41CB
:1004180041F470014FF0000030BD7FEA645C1ABF00
:10042800194610467FEA655C1CBF0B46024650EA37
:10043800013406BF52EA033591EA030F41F4002163
:1004480030BD00BF90F0000F04BF0021704730B5E9
:100458004FF4806404F132044FF000054FF00001BE
:1004680050E700BF90F0000F04BF0021704730B57F
:100478004FF4806404F1320410F0004548BF404254
:100488004FF000013EE700BF42004FEAE2014FEAA9
:1004980031014FEA02701FBF12F07F4393F07F4F84
:1004A80081F06051704732F07F4208BF704793F087
:1004B8007F4F04BF41F40021704730B54FF460749A
:1004C80001F0004521F000411CE700BF50EA01029D
:1004D80008BF704730B54FF000050AE050EA010246
:1004E80008BF704730B511F0004502D5404261EBB6
:1004F80041014FF4806404F132045FEA915C3FF4F7
:10050800D8AE4FF003025FEADC0C18BF03325FEA93
:10051800DC0C18BF033202EBDC02C2F1200300FA44
:1005280003FC20FA02F001FA03FE40EA0E0021FA69
:1005380002F11444BDE600BF70B54FF0FF0C4CF457
:10054800E06C1CEA11541DBF1CEA135594EA0C0F09
:1005580095EA0C0F00F0DEF82C4481EA030621EA44
:100568004C5123EA4C5350EA013518BF52EA03357F
:1005780041F4801143F4801338D0A0FB02CE4FF031
:100588000005E1FB02E506F00042E0FB03E54FF061
:100598000006E1FB03569CF0000F18BF4EF0010E59
:1005A800A4F1FF04B6F5007F64F5407404D25FEA55
:1005B8004E0E6D4146EB060642EAC62141EA555108
:1005C8004FEAC52040EA5E504FEACE2EB4F1FD0C4A
:1005D80088BFBCF5E06F1ED8BEF1004F08BF5FEAC8
:1005E800500E50F1000041EB045170BD06F000467A
:1005F80046EA010140EA020081EA0301B4EB5C0427
:10060800C2BFD4EB0C0541EA045170BD41F480111E
:100618004FF0000E013C00F3AB8014F1360FDEBF43
:10062800002001F0004170BDC4F10004203C35DA1F
:100638000C341BDC04F11404C4F1200500FA05F3A2
:1006480020FA04F001FA05F240EA020001F0004243
:1006580021F0004110EBD37021FA04F642EB0601B9
:100668005EEA430E08BF20EAD37070BDC4F10C04E3
:10067800C4F1200500FA04F320FA05F001FA04F2A7
:1006880040EA020001F0004110EBD37041F1000193
:100698005EEA430E08BF20EAD37070BDC4F120059E
:1006A80000FA05F24EEA020E20FA04F301FA05F206
:1006B80043EA020321FA04F001F0004121FA04F2AE
:1006C80020EA020000EBD3705EEA430E08BF20EA7E
:1006D800D37070BD94F0000F0FD101F000464000B8
:1006E80041EB010111F4801F08BF013CF7D041EA3A
:1006F800060195F0000F18BF704703F0004652003E
:1007080043EB030313F4801F08BF013DF7D043EA0E
:100718000603704794EA0C0F0CEA135518BF95EAC4
:100728000C0F0CD050EA410618BF52EA4306D1D14B
:1007380081EA030101F000414FF0000070BD50EA6A
:10074800410606BF1046194652EA430619D094EAF4
:100758000C0F02D150EA013613D195EA0C0F05D1DE
:1007680052EA03361CBF104619460AD181EA030132
:1007780001F0004141F0FE4141F470014FF00000EA
:1007880070BD41F0FE4141F4780170BD70B54FF085
:10079800FF0C4CF4E06C1CEA11541DBF1CEA135505
:1007A80094EA0C0F95EA0C0F00F0A7F8A4EB0504E7
:1007B80081EA030E52EA03354FEA013100F08880DE
:1007C8004FEA03334FF0805545EA131343EA1263A7
:1007D8004FEA022245EA111545EA10654FEA00265C
:1007E8000EF000419D4208BF964244F1FD0404F515
:1007F800407402D25B084FEA3202B61A65EB030571
:100808005B084FEA32024FF480104FF4002CB6EB2D
:10081800020E75EB030E22BFB61A754640EA0C00AD
:100828005B084FEA3202B6EB020E75EB030E22BFED
:10083800B61A754640EA5C005B084FEA3202B6EB2E
:10084800020E75EB030E22BFB61A754640EA9C00ED
:100858005B084FEA3202B6EB020E75EB030E22BFBD
:10086800B61A754640EADC0055EA060E18D04FEA7B
:10087800051545EA16754FEA06164FEAC30343EA1B
:1008880052734FEAC2025FEA1C1CC0D111F4801FE8
:100898000BD141EA00014FF000004FF0004CB6E7E1
:1008A80011F4801F04BF01430020B4F1FD0C88BF80
:1008B800BCF5E06F3FF6AFAEB5EB030C04BFB6EB8B
:1008C800020C5FEA500C50F1000041EB045170BD7E
:1008D8000EF0004E4EEA113114EB5C04C2BFD4EBAB
:1008E8000C0541EA045170BD41F480114FF0000E2F
:1008F800013C90E645EA060E8DE60CEA135594EAAB
:100908000C0F08BF95EA0C0F3FF43BAF94EA0C0FAD
:100918000AD150EA01347FF434AF95EA0C0F7FF422
:1009280025AF104619462CE795EA0C0F06D152EA76
:1009380003353FF4FDAE1046194622E750EA41065A
:1009480018BF52EA43067FF4C5AE50EA41047FF46B
:100958000DAF52EA43057FF4EBAE12E74FF0FF3CD0
:1009680006E000BF4FF0010C02E000BF4FF0010CA1
:100978004DF804CD4FEA410C7FEA6C5C4FEA430C1A
:1009880018BF7FEA6C5C1BD001B050EA410C0CBF69
:1009980052EA430C91EA030F02BF90EA020F0020CB
:1009A800704710F1000F91EA030F58BF994208BF32
:1009B80090422CBFD8176FEAE37040F001007047EF
:1009C8004FEA410C7FEA6C5C02D150EA013C07D146
:1009D8004FEA430C7FEA6C5CD6D152EA033CD3D091
:1009E8005DF8040B704700BF8446104662468C468B
:1009F8001946634600E000BF01B5FFF7B7FF0028BE
:100A080048BF10F1000F01BD4DF808EDFFF7F4FFE6
:100A18000CBF012000205DF808FB00BF4DF808ED71
:100A2800FFF7EAFF34BF012000205DF808FB00BF94
:100A38004DF808EDFFF7E0FF94BF012000205DF8B6
:100A480008FB00BF4DF808EDFFF7CEFF94BF01206B
:100A580000205DF808FB00BF4DF808EDFFF7C4FF64
:100A680034BF012000205DF808FB00BF4FEA4102B7
:100A780012F5001215D211D56FF47873B3EB6252E8
:100A880012D94FEAC12343F0004343EA505311F00F
:100A9800004F23FA02F018BF404270474FF00000A1
:100AA800704750EA013005D111F0004008BF6FF0DF
:100AB800004070474FF00000704700BF38B5002273
:100AC800002304460D46FFF7A9FF28B9204629460A
:100AD800BDE8384000F00AB8204605F1004100F0B2
:100AE80005F8404261EB410138BD00BFD0B50C4B61
:100AF800002206460F46FFF71FFD00F015F80446D2
:100B0800FFF7A0FC074B0022FFF716FD02460B4635
:100B180030463946FFF758FB00F006F82146D0BDAD
:100B28000000F03D0000F0414A0011D212F5001219
:100B380011D20DD56FF47873B3EB62520ED44FEA2D
:100B4800C12343F0004343EA505323FA02F07047AD
:100B58004FF00000704750EA013002D14FF0FF30EB
:100B680070474FF00000704780B400AF054B1B6B17
:100B7800044A43F48053136300BFBD465DF8047B09
:100B8800704700BF0038024080B400AF054B9B6837
:100B9800044A43F00103936000BFBD465DF8047B3F
:100BA800704700BF0030024080B584B000AF786065
:100BB80039600023FB72FFF7E7FF0023FB600AE0C0
:100BC8007A68FB6813441B78FB72084AFB7A136047
:100BD800FB680133FB60FA683B689A42F0D3034B29
:100BE8001B6818461037BD4680BD00BF0030024064
:100BF80080B400AF1C4B1B68012B30D11B4B1B680A
:100C08001A4B5B6872B600BF194B1B6F1A68184BFA
:100C18001B6F22F001021A60154B1B6F5B68C3F54E
:100C280080731A46134B1A60124B1B68B3F5807F0A
:100C380003DD104B4FF480721A600D4B1B6F4FF49D
:100C480080725A600A4B1B6F1A68094B1B6F42F07F
:100C580001021A6062B600BF074B01221A6000BF8A
:100C6800BD465DF8047B704720000020004C004022
:100C78002C010020280000202400002080B582B02C
:100C880000AF7860154802F0ADFC144B144A1A60A6
:100C98007B68124A53600122104B1A720023DAB2A1
:100CA8000E4B1A740A220D4B5A720B220B4B9A7276
:100CB8001023DAB2094B9A73012202231343DAB2E2
:100CC800064B5A74054B074AC3F8D420034803F06F
:100CD800C7FA00BF0837BD4680BD00BF2C01002001
:100CE800004C0040F90B000880B588B004AF78606C
:100CF8001C4B01221A6000234FF480721A491B48CA
:100D080003F010FF00BF1A4B1B68002BFBD0194BD8
:100D18001B68012B08DC134B00221A60144B0022BD
:100D28001A604FF6FF7318E0124B1B68FB60114BFB
:100D38001B689BB2029301230193012300937B68F4
:100D480008220821084801F0B5FE064B00221A6067
:100D5800074B00221A60FB689BB218461037BD4645
:100D680080BD00BF200000202C0000202C010020A6
:100D7800240000202800002080B483B000AF034680
:100D8800FB7197F90730002B0BDBFB7903F01F028F
:100D9800074997F907305B09012000FA02F241F888
:100DA800232000BF0C37BD465DF8047B704700BFA9
:100DB80000E100E080B500AF604B1B68604A13603B
:100DC8005F4B1B6803F00103002B15D05D4B1B68BC
:100DD800DB6980221340002B0ED05A4B1B68DB6B5B
:100DE800002B09D0574B1B68DB6B9847534B9B680C
:100DF800524A43F001039360514B1B6803F004030C
:100E0800002B15D04F4B1B68DB6902221340002BC7
:100E18000ED04C4B1B681B6C002B09D0494B1B6830
:100E28001B6C9847454B9B68444A43F00403936006
:100E3800434B1B6803F00803002B15D0414B1B687C
:100E4800DB6904221340002B0ED03E4B1B685B6C01
:100E5800002B09D03B4B1B685B6C9847374B9B6852
:100E6800364A43F008039360354B1B6803F01003C0
:100E7800002B2DD0334B1B68DB6908221340002B55
:100E880026D0304B1B689B6C002B21D02D4B1B6848
:100E98009B6C9847294B9B68284A43F01003936042
:100EA800284B1B689B6B4FF48022934210D1254B33
:100EB8001B685B681B6803F48023002B04D0214B5C
:100EC8001B681B6D984703E01E4B1B685B6D9847BA
:100ED8001B4B1B6803F02003002B2DD0194B1B68FC
:100EE800DB6910221340002B26D0164B1B68DB6CE5
:100EF800002B21D0134B1B68DB6C98470F4B9B686A
:100F08000E4A43F0200393600E4B1B689B6B4FF413
:100F18008022934210D10B4B1B685B681B6803F45B
:100F28008023002B04D0074B1B681B6D984703E0F8
:100F3800044B1B685B6D984700BF80BD0060024092
:100F4800500200201002002080B500AF604B1B68E3
:100F5800604A13605F4B1B6803F04003002B15D0F9
:100F68005D4B1B68DB6980221340002B0ED05A4B67
:100F78001B68DB6B002B09D0574B1B68DB6B984752
:100F8800534B9B68524A43F040039360514B1B6894
:100F980003F48073002B15D04F4B1B68DB690222CA
:100FA8001340002B0ED04C4B1B681B6C002B09D038
:100FB800494B1B681B6C9847454B9B68444A43F454
:100FC80080739360434B1B6803F40073002B15D0A8
:100FD800414B1B68DB6904221340002B0ED03E4BAB
:100FE8001B685B6C002B09D03B4B1B685B6C9847FC
:100FF800374B9B68364A43F400739360354B1B6844
:1010080003F48063002B2DD0334B1B68DB69082267
:101018001340002B26D0304B1B689B6C002B21D033
:101028002D4B1B689B6C9847294B9B68284A43F4B7
:1010380080639360284B1B689B6B4FF4802293421C
:1010480010D1254B1B685B681B6803F48023002BB9
:1010580004D0214B1B681B6D984703E01E4B1B688F
:101068005B6D98471B4B1B6803F40063002B2DD066
:10107800194B1B68DB6910221340002B26D0164B36
:101088001B68DB6C002B21D0134B1B68DB6C98476B
:101098000F4B9B680E4A43F4006393600E4B1B682A
:1010A8009B6B4FF48022934210D10B4B1B685B68FB
:1010B8001B6803F48023002B04D0074B1B681B6DAF
:1010C800984703E0044B1B685B6D984700BF80BDE1
:1010D80000600240500200201402002080B500AFDA
:1010E800644B1B68644A1360634B1B6803F48033CA
:1010F800002B15D0614B1B68DB6980221340002B45
:101108000ED05E4B1B68DB6B002B09D05B4B1B685A
:10111800DB6B9847574B9B68564A43F48033936080
:10112800554B1B6803F48023002B15D0534B1B68C9
:10113800DB6902221340002B0ED0504B1B681B6C3E
:10114800002B09D04D4B1B681B6C9847494B9B687B
:10115800484A43F480239360474B1B6803F40023F9
:10116800002B1CD0454B1B68DB6904221340002B65
:1011780015D0424B1B68DB6904221340002B0ED0AC
:101188003E4B1B685B6C002B09D03C4B1B685B6CAF
:101198009847384B9B68374A43F400239360364B93
:1011A8001B6803F48013002B2DD0344B1B68DB69BC
:1011B80008221340002B26D0304B1B689B6C002B59
:1011C80021D02E4B1B689B6C98472A4B9B68294A59
:1011D80043F480139360294B1B689B6B4FF4802268
:1011E800934210D1254B1B685B681B6803F480236E
:1011F800002B04D0214B1B681B6D984703E01F4B45
:101208001B685B6D98471C4B1B6803F40013002B8D
:101218002DD01A4B1B68DB6910221340002B26D0F7
:10122800164B1B68DB6C002B21D0144B1B68DB6C46
:101238009847104B9B680F4A43F4001393600F4B79
:101248001B689B6B4FF48022934210D10B4B1B6899
:101258005B681B6803F48023002B04D0074B1B68D2
:101268001B6D984703E0054B1B685B6D984700BFF3
:1012780080BD00BF0060024050020020180200201C
:1012880080B500AF604B1B68604A13605F4B1B68FA
:1012980003F48003002B15D05D4B1B68DB698022AB
:1012A8001340002B0ED05A4B1B68DB6B002B09D068
:1012B800574B1B68DB6B9847534B9B68524A43F468
:1012C80080039360514B1B6803F08073002B15D08B
:1012D8004F4B1B68DB6902221340002B0ED04C4B8E
:1012E8001B681B6C002B09D0494B1B681B6C98476B
:1012F800454B9B68444A43F080739360434B1B689B
:1013080003F00073002B15D0414B1B68DB690422E6
:101318001340002B0ED03E4B1B685B6C002B09D092
:101328003B4B1B685B6C9847374B9B68364A43F0CE
:1013380000739360354B1B6803F08063002B2DD03E
:10134800334B1B68DB6908221340002B26D0304B37
:101358001B689B6C002B21D02D4B1B689B6C9847FE
:10136800294B9B68284A43F080639360284B1B688D
:101378009B6B4FF48022934210D1254B1B685B680E
:101388001B6803F48023002B04D0214B1B681B6DC2
:10139800984703E01E4B1B685B6D98471B4B1B6807
:1013A80003F00063002B2DD0194B1B68DB6910225A
:1013B8001340002B26D0164B1B68DB6C002B21D06A
:1013C800134B1B68DB6C98470F4B9B680E4A43F026
:1013D800006393600E4B1B689B6B4FF48022934213
:1013E80010D10B4B1B685B681B6803F48023002B30
:1013F80004D0074B1B681B6D984703E0044B1B6820
:101408005B6D984700BF80BD00600240500200201D
:101418001C02002080B500AF4F4B5B684F4A136039
:101428004E4B1B6803F00103002B0ED04C4B1B687E
:10143800DB6B002B09D04A4B1B68DB6B9847464B8C
:101448009B68454A43F040039360444B1B6803F094
:101458000403002B0ED0424B1B681B6C002B09D0D9
:101468003F4B1B681B6C98473B4BDB683A4A43F081
:101478000403D360394B1B6803F00803002B0ED01C
:10148800374B1B685B6C002B09D0354B1B685B6CBA
:101498009847314BDB68304A43F00803D3602F4B41
:1014A8001B6803F01003002B26D02D4B1B689B6C88
:1014B800002B21D02A4B1B689B6C9847264BDB6876
:1014C800254A43F01003D360254B1B689B6B4FF4F0
:1014D8008022934210D1224B1B685B681B6803F47F
:1014E8008023002B04D01E4B1B681B6D984703E01C
:1014F8001B4B1B685B6D9847184B1B6803F0200358
:10150800002B26D0164B1B68DB6C002B21D0144B0C
:101518001B68DB6C9847104BDB680F4A43F02003CD
:10152800D3600F4B1B689B6B4FF48022934210D102
:101538000B4B1B685B681B6803F48023002B04D0EB
:10154800074B1B681B6D984703E0054B1B685B6DD9
:10155800984700BF80BD00BF0060024054020020D1
:101568002002002080B500AF4F4B5B684F4A1360E4
:101578004E4B1B6803F04003002B0ED04C4B1B68EE
:10158800DB6B002B09D04A4B1B68DB6B9847464B3B
:10159800DB68454A43F04003D360444B1B6803F4BF
:1015A8008073002B0ED0424B1B681B6C002B09D09C
:1015B8003F4B1B681B6C98473B4BDB683A4A43F42C
:1015C8008073D360394B1B6803F40073002B0ED073
:1015D800374B1B685B6C002B09D0354B1B685B6C69
:1015E8009847314BDB68304A43F40073D3602F4B84
:1015F8001B6803F48063002B26D02D4B1B689B6C63
:10160800002B21D02A4B1B689B6C9847264BDB6824
:10161800254A43F48063D360254B1B689B6B4FF4CA
:101628008022934210D1224B1B685B681B6803F42D
:101638008023002B04D01E4B1B681B6D984703E0CA
:101648001B4B1B685B6D9847184B1B6803F40063C2
:10165800002B26D0164B1B68DB6C002B21D0144BBB
:101668001B68DB6C9847104BDB680F4A43F4006338
:10167800D3600F4B1B689B6B4FF48022934210D1B1
:101688000B4B1B685B681B6803F48023002B04D09A
:10169800074B1B681B6D984703E0054B1B685B6D88
:1016A800984700BF80BD00BF006002405402002080
:1016B8002402002080B500AF4F4B5B684F4A13608F
:1016C8004E4B1B6803F48033002B0ED04C4B1B6829
:1016D800DB6B002B09D04A4B1B68DB6B9847464BEA
:1016E800DB68454A43F48033D360444B1B6803F4FA
:1016F8008023002B0ED0424B1B681B6C002B09D09B
:101708003F4B1B681B6C98473B4BDB683A4A43F4DA
:101718008023D360394B1B6803F40023002B0ED0C1
:10172800374B1B685B6C002B09D0354B1B685B6C17
:101738009847314BDB68304A43F40023D3602F4B82
:101748001B6803F48013002B26D02D4B1B689B6C61
:10175800002B21D02A4B1B689B6C9847264BDB68D3
:10176800254A43F48013D360254B1B689B6B4FF4C9
:101778008022934210D1224B1B685B681B6803F4DC
:101788008023002B04D01E4B1B681B6D984703E079
:101798001B4B1B685B6D9847184B1B6803F40013C1
:1017A800002B26D0164B1B68DB6C002B21D0144B6A
:1017B8001B68DB6C9847104BDB680F4A43F4001337
:1017C800D3600F4B1B689B6B4FF48022934210D160
:1017D8000B4B1B685B681B6803F48023002B04D049
:1017E800074B1B681B6D984703E0054B1B685B6D37
:1017F800984700BF80BD00BF00600240540200202F
:101808002802002080B500AF4F4B5B684F4A136039
:101818004E4B1B6803F48003002B0ED04C4B1B6807
:10182800DB6B002B09D04A4B1B68DB6B9847464B98
:10183800DB68454A43F48003D360444B1B6803F0DC
:101848008073002B0ED0424B1B681B6C002B09D0F9
:101858003F4B1B681B6C98473B4BDB683A4A43F08D
:101868008073D360394B1B6803F00073002B0ED0D4
:10187800374B1B685B6C002B09D0354B1B685B6CC6
:101888009847314BDB68304A43F00073D3602F4BE5
:101898001B6803F08063002B26D02D4B1B689B6CC4
:1018A800002B21D02A4B1B689B6C9847264BDB6882
:1018B800254A43F08063D360254B1B689B6B4FF42C
:1018C8008022934210D1224B1B685B681B6803F48B
:1018D8008023002B04D01E4B1B681B6D984703E028
:1018E8001B4B1B685B6D9847184B1B6803F0006324
:1018F800002B26D0164B1B68DB6C002B21D0144B19
:101908001B68DB6C9847104BDB680F4A43F0006399
:10191800D3600F4B1B689B6B4FF48022934210D10E
:101928000B4B1B685B681B6803F48023002B04D0F7
:10193800074B1B681B6D984703E0054B1B685B6DE5
:10194800984700BF80BD00BF0060024054020020DD
:101958002C02002080B500AF604B1B68604A136002
:101968005F4B1B6803F00103002B15D05D4B1B6810
:10197800DB6980221340002B0ED05A4B1B68DB6BAF
:10198800002B09D0574B1B68DB6B9847534B9B6860
:10199800524A43F001039360514B1B6803F0040360
:1019A800002B15D04F4B1B68DB6902221340002B1C
:1019B8000ED04C4B1B681B6C002B09D0494B1B6885
:1019C8001B6C9847454B9B68444A43F0040393605B
:1019D800434B1B6803F00803002B15D0414B1B68D1
:1019E800DB6904221340002B0ED03E4B1B685B6C56
:1019F800002B09D03B4B1B685B6C9847374B9B68A7
:101A0800364A43F008039360354B1B6803F0100314
:101A1800002B2DD0334B1B68DB6908221340002BA9
:101A280026D0304B1B689B6C002B21D02D4B1B689C
:101A38009B6C9847294B9B68284A43F01003936096
:101A4800284B1B689B6B4FF48022934210D1254B87
:101A58001B685B681B6803F48023002B04D0214BB0
:101A68001B681B6D984703E01E4B1B685B6D98470E
:101A78001B4B1B6803F02003002B2DD0194B1B6850
:101A8800DB6910221340002B26D0164B1B68DB6C39
:101A9800002B21D0134B1B68DB6C98470F4B9B68BE
:101AA8000E4A43F0200393600E4B1B689B6B4FF468
:101AB8008022934210D10B4B1B685B681B6803F4B0
:101AC8008023002B04D0074B1B681B6D984703E04D
:101AD800044B1B685B6D984700BF80BD00640240E3
:101AE800500200203002002080B500AF4F4B1B6829
:101AF8004F4A13604E4B1B6803F04003002B0ED077
:101B08004C4B1B68DB6B002B09D04A4B1B68DB6B0B
:101B18009847464B9B68454A43F040039360444BC3
:101B28001B6803F48073002B0ED0424B1B681B6CA0
:101B3800002B09D03F4B1B681B6C98473B4B9B689D
:101B48003A4A43F480739360394B1B6803F400737B
:101B5800002B0ED0374B1B685B6C002B09D0354B24
:101B68001B685B6C9847314B9B68304A43F40073A1
:101B780093602F4B1B6803F48063002B26D02D4BFA
:101B88001B689B6C002B21D02A4B1B689B6C9847C9
:101B9800264B9B68254A43F480639360254B1B685A
:101BA8009B6B4FF48022934210D1224B1B685B68D9
:101BB8001B6803F48023002B04D01E4B1B681B6D8D
:101BC800984703E01B4B1B685B6D9847184B1B68D5
:101BD80003F40063002B26D0164B1B68DB6C002B2C
:101BE80021D0144B1B68DB6C9847104B9B680F4A3D
:101BF80043F4006393600F4B1B689B6B4FF4802288
:101C0800934210D10B4B1B685B681B6803F480235D
:101C1800002B04D0074B1B681B6D984703E0054B4E
:101C28001B685B6D984700BF80BD00BF0064024021
:101C3800500200203402002080B500AF4F4B1B68D3
:101C48004F4A13604E4B1B6803F48033002B0ED0B1
:101C58004C4B1B68DB6B002B09D04A4B1B68DB6BBA
:101C68009847464B9B68454A43F480339360444BFE
:101C78001B6803F48023002B0ED0424B1B681B6C9F
:101C8800002B09D03F4B1B681B6C98473B4B9B684C
:101C98003A4A43F480239360394B1B6803F40023CA
:101CA800002B0ED0374B1B685B6C002B09D0354BD3
:101CB8001B685B6C9847314B9B68304A43F40023A0
:101CC80093602F4B1B6803F48013002B26D02D4BF9
:101CD8001B689B6C002B21D02A4B1B689B6C984778
:101CE800264B9B68254A43F480139360254B1B6859
:101CF8009B6B4FF48022934210D1224B1B685B6888
:101D08001B6803F48023002B04D01E4B1B681B6D3B
:101D1800984703E01B4B1B685B6D9847184B1B6883
:101D280003F40013002B26D0164B1B68DB6C002B2A
:101D380021D0144B1B68DB6C9847104B9B680F4AEB
:101D480043F4001393600F4B1B689B6B4FF4802286
:101D5800934210D10B4B1B685B681B6803F480230C
:101D6800002B04D0074B1B681B6D984703E0054BFD
:101D78001B685B6D984700BF80BD00BF00640240D0
:101D8800500200203802002080B500AF604B1B686D
:101D9800604A13605F4B1B6803F48003002B15D067
:101DA8005D4B1B68DB6980221340002B0ED05A4B19
:101DB8001B68DB6B002B09D0574B1B68DB6B984704
:101DC800534B9B68524A43F480039360514B1B6802
:101DD80003F08073002B15D04F4B1B68DB69022280
:101DE8001340002B0ED04C4B1B681B6C002B09D0EA
:101DF800494B1B681B6C9847454B9B68444A43F00A
:101E080080739360434B1B6803F00073002B15D05D
:101E1800414B1B68DB6904221340002B0ED03E4B5C
:101E28001B685B6C002B09D03B4B1B685B6C9847AD
:101E3800374B9B68364A43F000739360354B1B68F9
:101E480003F08063002B2DD0334B1B68DB6908221D
:101E58001340002B26D0304B1B689B6C002B21D0E5
:101E68002D4B1B689B6C9847294B9B68284A43F06D
:101E780080639360284B1B689B6B4FF480229342CE
:101E880010D1254B1B685B681B6803F48023002B6B
:101E980004D0214B1B681B6D984703E01E4B1B6841
:101EA8005B6D98471B4B1B6803F00063002B2DD01C
:101EB800194B1B68DB6910221340002B26D0164BE8
:101EC8001B68DB6C002B21D0134B1B68DB6C98471D
:101ED8000F4B9B680E4A43F0006393600E4B1B68E0
:101EE8009B6B4FF48022934210D10B4B1B685B68AD
:101EF8001B6803F48023002B04D0074B1B681B6D61
:101F0800984703E0044B1B685B6D984700BF80BD92
:101F180000640240500200203C02002080B500AF5F
:101F28004F4B5B684F4A13604E4B1B6803F001032D
:101F3800002B0ED04C4B1B68DB6B002B09D04A4B97
:101F48001B68DB6B9847464B9B68454A43F0400348
:101F58009360444B1B6803F00403002B0ED0424BE4
:101F68001B681B6C002B09D03F4B1B681B6C9847E8
:101F78003B4BDB683A4A43F00403D360394B1B6898
:101F880003F00803002B0ED0374B1B685B6C002B4B
:101F980009D0354B1B685B6C9847314BDB68304A7E
:101FA80043F00803D3602F4B1B6803F01003002B8A
:101FB80026D02D4B1B689B6C002B21D02A4B1B680D
:101FC8009B6C9847264BDB68254A43F01003D36087
:101FD800254B1B689B6B4FF48022934210D1224BF8
:101FE8001B685B681B6803F48023002B04D01E4B1E
:101FF8001B681B6D984703E01B4B1B685B6D98477C
:10200800184B1B6803F02003002B26D0164B1B68C7
:10201800DB6C002B21D0144B1B68DB6C9847104BF2
:10202800DB680F4A43F02003D3600F4B1B689B6BA0
:102038004FF48022934210D10B4B1B685B681B68DE
:1020480003F48023002B04D0074B1B681B6D9847B3
:1020580003E0054B1B685B6D984700BF80BD00BF60
:1020680000640240540200204002002080B500AF06
:102078004F4B5B684F4A13604E4B1B6803F040039D
:10208800002B0ED04C4B1B68DB6B002B09D04A4B46
:102098001B68DB6B9847464BDB68454A43F04003B7
:1020A800D360444B1B6803F48073002B0ED0424B63
:1020B8001B681B6C002B09D03F4B1B681B6C984797
:1020C8003B4BDB683A4A43F48073D360394B1B6857
:1020D80003F40073002B0ED0374B1B685B6C002B8E
:1020E80009D0354B1B685B6C9847314BDB68304A2D
:1020F80043F40073D3602F4B1B6803F48063002BF9
:1021080026D02D4B1B689B6C002B21D02A4B1B68BB
:102118009B6C9847264BDB68254A43F48063D36061
:10212800254B1B689B6B4FF48022934210D1224BA6
:102138001B685B681B6803F48023002B04D01E4BCC
:102148001B681B6D984703E01B4B1B685B6D98472A
:10215800184B1B6803F40063002B26D0164B1B6832
:10216800DB6C002B21D0144B1B68DB6C9847104BA1
:10217800DB680F4A43F40063D3600F4B1B689B6B0B
:102188004FF48022934210D10B4B1B685B681B688D
:1021980003F48023002B04D0074B1B681B6D984762
:1021A80003E0054B1B685B6D984700BF80BD00BF0F
:1021B80000640240540200204402002080B500AFB1
:1021C8004F4B5B684F4A13604E4B1B6803F48033D8
:1021D800002B0ED04C4B1B68DB6B002B09D04A4BF5
:1021E8001B68DB6B9847464BDB68454A43F48033F2
:1021F800D360444B1B6803F48023002B0ED0424B62
:102208001B681B6C002B09D03F4B1B681B6C984745
:102218003B4BDB683A4A43F48023D360394B1B6855
:1022280003F40023002B0ED0374B1B685B6C002B8C
:1022380009D0354B1B685B6C9847314BDB68304ADB
:1022480043F40023D3602F4B1B6803F48013002B47
:1022580026D02D4B1B689B6C002B21D02A4B1B686A
:102268009B6C9847264BDB68254A43F48013D36060
:10227800254B1B689B6B4FF48022934210D1224B55
:102288001B685B681B6803F48023002B04D01E4B7B
:102298001B681B6D984703E01B4B1B685B6D9847D9
:1022A800184B1B6803F40013002B26D0164B1B6831
:1022B800DB6C002B21D0144B1B68DB6C9847104B50
:1022C800DB680F4A43F40013D3600F4B1B689B6B0A
:1022D8004FF48022934210D10B4B1B685B681B683C
:1022E80003F48023002B04D0074B1B681B6D984711
:1022F80003E0054B1B685B6D984700BF80BD00BFBE
:1023080000640240540200204802002080B500AF5B
:102318004F4B5B684F4A13604E4B1B6803F48003B6
:10232800002B0ED04C4B1B68DB6B002B09D04A4BA3
:102338001B68DB6B9847464BDB68454A43F48003D0
:10234800D360444B1B6803F08073002B0ED0424BC4
:102358001B681B6C002B09D03F4B1B681B6C9847F4
:102368003B4BDB683A4A43F08073D360394B1B68B8
:1023780003F00073002B0ED0374B1B685B6C002BEF
:1023880009D0354B1B685B6C9847314BDB68304A8A
:1023980043F00073D3602F4B1B6803F08063002B5E
:1023A80026D02D4B1B689B6C002B21D02A4B1B6819
:1023B8009B6C9847264BDB68254A43F08063D360C3
:1023C800254B1B689B6B4FF48022934210D1224B04
:1023D8001B685B681B6803F48023002B04D01E4B2A
:1023E8001B681B6D984703E01B4B1B685B6D984788
:1023F800184B1B6803F00063002B26D0164B1B6894
:10240800DB6C002B21D0144B1B68DB6C9847104BFE
:10241800DB680F4A43F00063D3600F4B1B689B6B6C
:102428004FF48022934210D10B4B1B685B681B68EA
:1024380003F48023002B04D0074B1B681B6D9847BF
:1024480003E0054B1B685B6D984700BF80BD00BF6C
:1024580000640240540200204C02002080B483B083
:1024680000AF78607B681B680C4A934205D10C4B1F
:102478001B6B0B4A43F4001313637B681B68094A00
:10248800934205D1064B1B6B054A43F48003136343
:1024980000BF0C37BD465DF8047B70470060024002
:1024A800003802400064024080B582B000AF786016
:1024B8007868FFF7D3FF7B685B681B6803F001034C
:1024C800002B0FD07B685B681A687B685B6822F01A
:1024D80001021A6000BF7B685B681B6803F0010398
:1024E800002BF8D17B685B6819687B681B7A5A06F1
:1024F8007B685B680A431A607B685B6819687B685D
:102508009A697B685B680A431A607B685B6819682C
:102518007B68DA687B685B680A431A607B685B687B
:1025280019687B685A697B685B680A431A607B682C
:102538005B6819687B689A6A7B685B680A431A60FB
:102548007B685B6819687B685A6A7B685B680A43C2
:102558001A607B685B6819687B681A697B685B68C6
:102568000A431A607B68DB690022934200F01081FD
:102578007B68DB6980221340002B08D07B685B688E
:1025880059697B68DA697B685B680A435A617B68CA
:10259800DB6910221340002B07D07B685B681A6840
:1025A8007B685B6842F010021A607B68DB6908226E
:1025B8001340002B07D07B685B681A687B685B68F0
:1025C80042F008021A607B68DB6904221340002B82
:1025D80007D07B685B681A687B685B6842F0040216
:1025E8001A607B68DB6902221340002B07D07B68E6
:1025F8005B681A687B685B6842F002021A607B6855
:102608001B68804A93425FD17B685B687E4A93422D
:1026180006D17E4A7B6813600B20FEF7ADFBB7E05E
:102628007B685B687A4A934206D17A4A7B68136072
:102638000C20FEF7A1FBABE07B685B68764A93420F
:1026480006D1764A7B6813600D20FEF795FB9FE064
:102658007B685B68724A934206D1724A7B68136052
:102668000E20FEF789FB93E07B685B686E4A934215
:1026780006D16E4A7B6813600F20FEF77DFB87E06A
:102688007B685B686A4A934206D16A4A7B68136032
:102698001020FEF771FB7BE07B685B68664A93421B
:1026A80006D1664A7B6813601120FEF765FB6FE070
:1026B8007B685B68624A93426AD1624A7B681360AE
:1026C8002F20FEF759FB63E07B681B685E4A934244
:1026D8005ED17B685B685D4A934206D15C4A7B6841
:1026E80013603820FEF748FB52E07B685B68594A64
:1026F800934206D1584A7B6813603920FEF73CFBA9
:1027080046E07B685B68554A934206D1544A7B6829
:1027180013603A20FEF730FB3AE07B685B68514A69
:10272800934206D1504A7B6813603B20FEF724FB96
:102738002EE07B685B684D4A934206D14C4A7B6821
:1027480013603C20FEF718FB22E07B685B68494A6F
:10275800934206D1484A7B6813604420FEF70CFB7D
:1027680016E07B685B68454A934206D1444A7B6819
:1027780013604520FEF700FB0AE07B685B68414A6E
:10278800934205D1404A7B6813604620FEF7F4FA6D
:102798007B685B681A687B681B8C19467B685B687A
:1027A8000A431A607B685B681A687B685B8C194609
:1027B8007B685B680A431A607B689B694FF4807288
:1027C800934208D17B685B681A687B685B6842F44F
:1027D80080721A6010E07B689B690022934208D1DE
:1027E8007B685B681A687B685B6822F480721A6091
:1027F80002E04FF0FF3300E0012318460837BD46DA
:1028080080BD00BF0060024010600240100200203E
:102818002860024014020020406002401802002094
:10282800586002401C020020706002402002002014
:102838008860024024020020A06002402802002094
:10284800B86002402C02002000640240106402407C
:102858003002002028640240340200204064024014
:1028680038020020586402403C0200207064024094
:10287800400200208864024044020020A064024014
:1028880048020020B86402404C02002080B483B0A3
:1028980000AF78607B685B681A687B685B6822F0C9
:1028A80001021A607B689B690022934208D17B6809
:1028B8005B681A687B685B6822F480721A600DE0B6
:1028C8007B689B694FF48072934207D17B685B6891
:1028D8001A687B685B6842F480721A607B685B6880
:1028E8001A687B685B6822F4F8421A607B685B6848
:1028F80019687B685A6A7B685B680A431A607B6858
:102908005B6819687B689A6A7B685B680A431A6027
:102918007B689A8E7B685B685A607B685B681A681C
:102928007B685B6842F480621A607B685B687A68DF
:10293800126BDA607B685B687A68D26A9A6000BF5B
:102948000C37BD465DF8047B7047000080B487B043
:1029580000AF78607B681B687B617B685B683B6164
:102968007B69434A934203D07B69424A934278D1B8
:102978003B69414A934218D93B69404A934214D86B
:102988003A693F4B1344DB103E4A02FB03F31A46F5
:102998003D4B9B5CFB607B699B683F21FA6801FAB1
:1029A80002F21A437B699A6055E03B69374A9342C1
:1029B80018D93B69364A934214D83A69354B1344BF
:1029C800DB10304A02FB03F31A46334B9B5CFB6077
:1029D8007B69DB683F21FA6801FA02F21A437B69D6
:1029E800DA6038E03B692D4A934218D93B692C4A92
:1029F800934214D83A692B4B1344DB10214A02FB4B
:102A080003F31A46204B9B5CFB607B699B683F2164
:102A1800FA6801FA02F21A437B699A601BE03B6983
:102A2800214A934217D93B69204A934213D83A69FD
:102A38001F4B1344DB10134A02FB03F31A46164BD1
:102A48009B5CFB607B69DB683F21FA6801FA02F254
:102A58001A437B69DA603B691B6843F001023B69F2
:102A68001A6000BF1C37BD465DF8047B704700BF85
:102A780000600240006402400F600240586002405B
:102A8800F09FFDBFABAAAAAA905300086F6002404E
:102A9800B8600240909FFDBF945300080F64024045
:102AA80058640240F09BFDBF6F640240B864024066
:102AB800909BFDBF80B485B000AFF8607B600B468B
:102AC800FB721346BB725A4B1B6B594A43F4800383
:102AD8001363584B1B68574A03F060631360554BE8
:102AE8001B688021534A0B431360524B1B68514AA1
:102AF80043F4403343F010031360FB7A202B06D1D4
:102B08004C4B1B684B4A43F4C053136015E0FB7AE7
:102B1800102B0CD1474B1B68464A43F400631360E3
:102B2800444B1B68434A23F48053136005E0414B30
:102B38001B68404A23F4C0531360BB7A202B06D18C
:102B48003C4B1B683B4A43F4C043136015E0BB7A17
:102B5800102B0CD1374B1B68364A43F400531360D3
:102B6800344B1B68334A23F48043136005E0314B30
:102B78001B68304A23F4C04313603B7E002B06D009
:102B88002C4B1B682B4A43F40073136005E0294B58
:102B98001B68284A23F4007313603B7F002B06D080
:102BA800244B1B68234A43F48063136005E0214BE0
:102BB8001B68204A23F4806313601E4AFB689360F5
:102BC8001C4A7B68D3601B4A3B8C5360194B1B68BB
:102BD800184A43F00103136000BF174B1B6803F04A
:102BE8002003002BF9D0144B9B68134A43F03003A1
:102BF8009360104B00221A600E4B00225A610D4B55
:102C08000022DA600B4B00221A610A4B00225A603C
:102C1800084B00229A60074B1B68064A23F0010301
:102C2800136000BF1437BD465DF8047B704700BFD2
:102C380000380240106402400064024080B500AFD2
:102C4800074B1B68002B02D0054B1B689847054BA8
:102C58005B69044A43F00103536100BF80BD00BFB4
:102C680058020020003C014080B500AF074B5B686C
:102C7800002B02D0054B5B689847054B5B69044AFB
:102C880043F00203536100BF80BD00BF580200201B
:102C9800003C014080B500AF074B9B68002B02D079
:102CA800054B9B689847054B5B69044A43F004034E
:102CB800536100BF80BD00BF58020020003C0140A6
:102CC80080B500AF074BDB68002B02D0054BDB68F3
:102CD8009847054B5B69044A43F00803536100BFFA
:102CE80080BD00BF58020020003C014080B500AF05
:102CF800074B1B69002B02D0054B1B699847054BF6
:102D08005B69044A43F01003536100BF80BD00BFF4
:102D180058020020003C014080B582B000AF052376
:102D28007B6020E0144B5B6901217A6801FA02F2AA
:102D38001340002B14D0114A7B6852F82330002B23
:102D48000ED00E4A7B6852F8233098470A4B5B69CD
:102D580001217A6801FA02F21146074A0B435361CE
:102D68007B6801337B607B68092BDBDD00BF00BF1C
:102D78000837BD4680BD00BF003C01405802002016
:102D880080B582B000AF0A237B6020E0144B5B69FA
:102D980001217A6801FA02F21340002B14D0114A7B
:102DA8007B6852F82330002B0ED00E4A7B6852F80D
:102DB800233098470A4B5B6901217A6801FA02F2CD
:102DC8001146074A0B4353617B6801337B607B687C
:102DD8000F2BDBDD00BF00BF0837BD4680BD00BF3D
:102DE800003C01405802002080B483B000AF7860F6
:102DF8007B68304A93424BD02E4A93424FD82E4A92
:102E080093423ED02C4A934249D82C4A934231D01F
:102E18002A4A934243D82A4A934224D0284A9342C2
:102E28003DD8284A934217D0264A934237D8264A93
:102E3800934203D0254A934207D030E0244B1B6BC2
:102E4800234A43F0010313632CE0214B1B6B204AF8
:102E580043F00203136325E01D4B1B6B1C4A43F030
:102E6800040313631EE01A4B1B6B194A43F0080353
:102E7800136317E0164B1B6B154A43F010031363DB
:102E880010E0134B1B6B124A43F02003136309E055
:102E98000F4B1B6B0E4A43F08003136302E04FF0A5
:102EA800FF3300E0002318460C37BD465DF8047B6D
:102EB800704700BF001C024000140240001002408E
:102EC800000C0240000802400000024000040240DA
:102ED8000038024080B582B000AF786008461146DD
:102EE8001A460346FB700B46BB7013467B70786826
:102EF800FFF77AFF7B681B68FA785200032101FA12
:102F080002F2D2431A407B681A607B681B68B97862
:102F1800FA78520001FA02F21A437B681A607B6859
:102F28005B68FA78012101FA02F2D2431A407B6801
:102F38005A6002227B78934208D07B685B68797874
:102F4800FA7801FA02F21A437B685A607B689B6838
:102F5800FA785200032101FA02F2D2431A407B6840
:102F68009A6004223B7C934209D07B689B68397C39
:102F7800FA78520001FA02F21A437B689A607B6879
:102F8800DB68FA785200032101FA02F2D2431A40B0
:102F98007B68DA6004223B7D934209D07B68DB685A
:102FA800397DFA78520001FA02F21A437B68DA6036
:102FB8000222BB7893422FD1FB78072B15D87B6868
:102FC8001B6AFA7892000F2101FA02F2D2431A40E2
:102FD8007B681A627B681B6A397EFA78920001FA6C
:102FE80002F21A437B681A6216E07B685B6AFA7819
:102FF800083A92000F2101FA02F2D2431A407B6884
:103008005A627B685B6A397EFA78083A920001FA5C
:1030180002F21A437B685A62002318460837BD46F5
:1030280080BD000080B483B000AF0346FB7197F900
:103038000730002B0BDBFB7903F01F02074997F9D8
:1030480007305B09012000FA02F241F8232000BF93
:103058000C37BD465DF8047B704700BF00E100E017
:1030680080B483B000AF03463960FB7197F907302D
:10307800002B0ADB3B68DAB20C4997F907301201DA
:10308800D2B20B4483F800230AE03B68DAB208495D
:10309800FB7903F00F03043B1201D2B20B441A76FA
:1030A80000BF0C37BD465DF8047B704700E100E0C7
:1030B80000ED00E080B400AF074B1B68074A926838
:1030C800920A02F0070206498A5CD3401846BD46B8
:1030D8005DF8047B704700BF000000200038024004
:1030E800AC57000880B400AF074B1B68074A9268CA
:1030F800520B02F0070206498A5CD3401846BD46C7
:103108005DF8047B704700BF0000002000380240D3
:10311800AC57000880B584B000AF87ED020B78602B
:103128003960D7E90201FDF7C9FC02460B46104693
:103138001946FDF7D3F902460B463968C1E9002361
:103148003B68D3E90023D7E90201FDF73DF80246C1
:103158000B467968C1E9002300BF1037BD4680BD22
:1031680080B400AF034B01221A7000BFBD465DF862
:10317800047B7047D206002080B400AF034B0122C5
:103188001A7000BFBD465DF8047B7047D306002067
:1031980080B400AF034B01221A7000BFBD465DF832
:1031A800047B7047D406002080B400AF034B012293
:1031B8001A7000BFBD465DF8047B7047D506002035
:1031C80080B400AF034B01221A7000BFBD465DF802
:1031D800047B7047D606002080B400AF034B012261
:1031E8001A7000BFBD465DF8047B7047D706002003
:1031F80080B400AF034B01221A7000BFBD465DF8D2
:10320800047B7047D806002080B400AF034B01222E
:103218001A7000BFBD465DF8047B7047D9060020D0
:1032280080B400AF034B01221A7000BFBD465DF8A1
:10323800047B7047DA06002080B400AF034B0122FC
:103248001A7000BFBD465DF8047B7047DB0600209E
:1032580080B400AF034B01221A7000BFBD465DF871
:10326800047B7047DC06002080B400AF034B0122CA
:103278001A7000BFBD465DF8047B7047DD0600206C
:1032880080B500AF574B1B689AB2574B1A80564B04
:103298001B889BB203F40073002B10D0534B1B68A0
:1032A800D3F8D830002B0AD0504B1B68D3F8D8304D
:1032B80098474C4B1B684B4A23F4007313604A4BE6
:1032C8001B889BB203F48073002B10D0474B1B68FC
:1032D800D3F8E030002B0AD0444B1B68D3F8E03019
:1032E8009847404B1B683F4A23F4807313603E4B5A
:1032F8001B889BB203F08003002B10D03B4B1B684C
:10330800D3F8C830002B0AD0384B1B68D3F8C83024
:103318009847344B1B68334A23F080031360324BC1
:103328001B889BB203F04003002B10D02F4B1B6867
:10333800D3F8CC30002B0AD02C4B1B68D3F8CC30F8
:103348009847284B1B68274A23F040031360264BF5
:103358001B889BB203F02003002B10D0234B1B6863
:10336800D3F8D030002B0AD0204B1B68D3F8D030CC
:1033780098471C4B1B681B4A23F0200313601A4B09
:103388001B889BB203F01003002B10D0174B1B684F
:10339800D3F8D430002B0AD0144B1B68D3F8D430A0
:1033A8009847104B1B680F4A23F0100313600E4B0D
:1033B8001B889BB203F00103002B10D00B4B1B683A
:1033C800D3F8C430002B0AD0084B1B68D3F8C4309C
:1033D8009847044B1B68034A23F00103136000BF9E
:1033E80080BD00BF004C0040D0060020C806002069
:1033F80080B500AF574B1B689AB2574B1A80564B93
:103408001B889BB203F40073002B10D0534B1B682E
:10341800D3F8D830002B0AD0504B1B68D3F8D830DB
:1034280098474C4B1B684B4A23F4007313604A4B74
:103438001B889BB203F48073002B10D0474B1B688A
:10344800D3F8E030002B0AD0444B1B68D3F8E030A7
:103458009847404B1B683F4A23F4807313603E4BE8
:103468001B889BB203F08003002B10D03B4B1B68DA
:10347800D3F8C830002B0AD0384B1B68D3F8C830B3
:103488009847344B1B68334A23F080031360324B50
:103498001B889BB203F04003002B10D02F4B1B68F6
:1034A800D3F8CC30002B0AD02C4B1B68D3F8CC3087
:1034B8009847284B1B68274A23F040031360264B84
:1034C8001B889BB203F02003002B10D0234B1B68F2
:1034D800D3F8D030002B0AD0204B1B68D3F8D0305B
:1034E80098471C4B1B681B4A23F0200313601A4B98
:1034F8001B889BB203F01003002B10D0174B1B68DE
:10350800D3F8D430002B0AD0144B1B68D3F8D4302E
:103518009847104B1B680F4A23F0100313600E4B9B
:103528001B889BB203F00103002B10D00B4B1B68C8
:10353800D3F8C430002B0AD0084B1B68D3F8C4302A
:103548009847044B1B68034A23F00103136000BF2C
:1035580080BD00BF00100140D0060020BC0600203E
:1035680080B483B000AF78607B681B68174A9342C9
:1035780001D1002324E07B681B68154A934201D1DE
:1035880001231DE07B681B68124A934201D1022384
:1035980016E07B681B68104A934201D103230FE0B1
:1035A8007B681B680D4A934201D1042308E07B68BD
:1035B8001B680B4A934201D1052301E04FF0FF330A
:1035C80018460C37BD465DF8047B70470010014073
:1035D8000044004000480040004C004000500040BB
:1035E8000014014080B483B000AF786000227B688B
:1035F8001A7200227B68DA737B684FF416525A609D
:10360800002200231343DAB27B685A740023DAB22B
:103618007B689A7300BF0C37BD465DF8047B704722
:1036280080B483B000AF78607B681B68274A9342F8
:1036380006D1274B5B6C264A43F0100353643EE0E7
:103648007B681B68234A934206D1214B1B6C204A96
:1036580043F40033136432E07B681B681E4A9342CC
:1036680006D11B4B1B6C1A4A43F48023136426E0D3
:103678007B681B68194A934206D1154B1B6C144A88
:1036880043F4002313641AE07B681B68144A9342CE
:1036980006D10F4B1B6C0E4A43F4801313640EE0E3
:1036A8007B681B680F4A934206D1094B5B6C084A3A
:1036B80043F02003536402E04FF0FF3300E001239E
:1036C80018460C37BD465DF8047B70470010014072
:1036D800003802400044004000480040004C0040D0
:1036E8000050004000140140B0B586B004AF7860C7
:1036F8007B681B68A44A934240F01281A34A7B6806
:1037080013607B681B7A012293420FD07B681B7A77
:10371800022293420AD07B681B7A0422934205D086
:103728007B681B7A0522934240F0BF807B685B7AF6
:10373800092293420FD109200224002502230022E6
:1037480007210291019200932B4622460146904898
:10375800FFF7C0FB13E07B685B7A062293420ED129
:10376800062002240025022300220721029101924B
:1037780000932B46224601468648FFF7ABFB7B6841
:103788009B7A0A2293420FD10A20022400250223A1
:10379800002207210291019200932B4622460146FE
:1037A8007B48FFF797FB13E07B689B7A07229342DD
:1037B8000ED10720022400250223002207210291AE
:1037C800019200932B46224601467248FFF782FB7E
:1037D8007B681B7A0222934213D17B68DB7A08222A
:1037E80093420ED10820022400250223002207213B
:1037F8000291019200932B46224601466448FFF746
:1038080069FB7B68DB7B0022934200F01A857B68AA
:10381800DB7B012293420ED10B20022400250223D8
:10382800002207210291019200932B46224601466D
:103838005748FFF74FFB7B68DB7B022293420ED190
:103848000C20022400250223002207210291019264
:1038580000932B46224601464D48FFF73BFB7B6809
:10386800DB7B0322934240F0EC840B2002240025EA
:103878000223002207210291019200932B4622463F
:1038880001464348FFF726FB0C20022400250223AB
:10389800002207210291019200932B4622460146FD
:1038A8003B48FFF717FB00F0CCBC7B681B7A06226D
:1038B80093420AD07B681B7A0722934205D07B6823
:1038C8001B7A0322934240F0C1847B685B7A092209
:1038D80093420ED109200224002502230022072149
:1038E8000291019200932B46224601462848FFF791
:1038F800F1FA7B681B7A0722934240F0A7840820DC
:10390800022400250223002207210291019200933C
:103918002B46224601461E48FFF7DCFA00F096BC0B
:103928007B681B681C4A934240F082811B4A7B6873
:1039380013607B681B7A012293420FD07B681B7A45
:10394800022293420AD07B681B7A0422934205D054
:103958007B681B7A0522934240F0FC807B685B7A87
:10396800022293421CD102200224002502230022B5
:1039780007210291019200932B46224601460448F2
:10398800FFF7A8FA20E000BF00100140BC060020A5
:10399800000002400004024000440040C00600202D
:1039A8007B685B7A052293420ED10520022400250C
:1039B8000223002207210291019200932B462246FE
:1039C80001469948FFF786FA7B689B7A032293425F
:1039D8000FD103200224002502230022072102918F
:1039E800019200932B46224601469048FFF772FA4F
:1039F80013E07B689B7A062293420ED106200224AC
:103A080000250223002207210291019200932B46F0
:103A1800224601468448FFF75DFA7B681B7A02223A
:103A2800934228D17B68DB7A042293420FD1042089
:103A3800022400250223002207210291019200930B
:103A48002B46224601467948FFF744FA13E07B6883
:103A5800DB7A072293420ED1072002240025022395
:103A6800002207210291019200932B46224601462B
:103A78006E48FFF72FFA7B68DB7B0022934205D163
:103A88007B68DB7B0322934240F0DD837B68DB7B32
:103A98000122934228D17B68DB7A002293420FD11E
:103AA800002002240025022300220721029101920E
:103AB80000932B46224601465C48FFF70BFA13E0B9
:103AC8007B68DB7A032293420ED10320022400256F
:103AD8000223002207210291019200932B462246DD
:103AE80001465148FFF7F6F97B68DB7B02229342D7
:103AF80005D07B68DB7B0322934240F0A4837B687C
:103B0800DB7A012293420FD10120022400250223EF
:103B1800002207210291019200932B46224601467A
:103B28004248FFF7D7F98EE37B68DB7A0422934299
:103B380040F0898304200224002502230022072163
:103B48000291019200932B46224601463648FFF720
:103B5800C1F978E37B681B7A062293420AD07B6816
:103B68001B7A0722934205D07B681B7A0322934273
:103B780040F06C837B685B7A022293420FD102206B
:103B880002240025022300220721029101920093BA
:103B98002B46224601462548FFF79CF913E07B682F
:103BA8005B7A052293420ED10520022400250223C8
:103BB800002207210291019200932B4622460146DA
:103BC8001948FFF787F97B681B7A0722934240F070
:103BD8003D837B68DB7A042293420FD104200224C0
:103BE80000250223002207210291019200932B460F
:103BF800224601460D48FFF76DF927E37B68DB7A1B
:103C08000722934240F02283072002240025022342
:103C1800002207210291019200932B462246014679
:103C28000248FFF757F911E3000C02400000024078
:103C38007B681B689A4A934240F0B581994A7B6831
:103C480013607B681B7A012293420FD07B681B7A32
:103C5800022293420AD07B681B7A0422934205D041
:103C68007B681B7A0522934240F024817B685B7A4B
:103C78000B2293420FD10B2002240025022300229D
:103C880007210291019200932B462246014686485D
:103C9800FFF720F928E07B685B7A0A2293420FD16C
:103CA8000A20022400250223002207210291019202
:103CB80000932B46224601467C48FFF70BF913E098
:103CC8007B685B7A082293420ED1082002240025E3
:103CD8000223002207210291019200932B462246DB
:103CE80001467248FFF7F6F87B689B7A0A229342EE
:103CF8000FD10A2002240025022300220721029165
:103D0800019200932B46224601466748FFF7E2F8E6
:103D180028E07B689B7A0B2293420FD10B20022468
:103D280000250223002207210291019200932B46CD
:103D3800224601465D48FFF7CDF813E07B685B7AC1
:103D4800082293420ED108200224002502230022D3
:103D580007210291019200932B46224601465348BF
:103D6800FFF7B8F87B681B7A0222934228D17B6858
:103D7800DB7A0C2293420FD10C2002240025022367
:103D8800002207210291019200932B462246014608
:103D98004648FFF79FF813E07B68DB7A0A229342D4
:103DA8000ED10A20022400250223002207210291B5
:103DB800019200932B46224601463D48FFF78AF8B8
:103DC8007B68DB7B0022934200F03F827B68DB7BD1
:103DD8000122934204D07B68DB7B0322934228D1E3
:103DE8007B68DB7A002293420FD100200224002551
:103DF8000223002207210291019200932B462246BA
:103E080001462A48FFF766F813E07B68DB7A03224D
:103E180093420ED103200224002502230022072109
:103E28000291019200932B46224601462048FFF753
:103E380051F87B68DB7B0222934205D07B68DB7BF1
:103E48000322934240F001827B68DB7A012293428D
:103E58000FD101200224002502230022072102910C
:103E6800019200932B46224601461048FFF732F88C
:103E7800EBE17B68DB7A0422934240F0E681042080
:103E880002240025022300220721029101920093B7
:103E98002B46224601460648FFF71CF8D5E100BF2D
:103EA80000480040C4060020000002400004024010
:103EB800000C02407B681B7A062293420AD07B687A
:103EC8001B7A0722934205D07B681B7A0322934210
:103ED80040F0BC817B685B7A0B2293420FD10B20A8
:103EE8000224002502230022072102910192009357
:103EF8002B46224601468348FEF7ECFF28E07B6804
:103F08005B7A0A2293420FD10A2002240025022359
:103F1800002207210291019200932B462246014676
:103F28007948FEF7D7FF13E07B685B7A0822934253
:103F38000ED1082002240025022300220721029125
:103F4800019200932B46224601466F48FEF7C2FFB6
:103F58007B68DB7A0C2293420FD10C2002240025C7
:103F68000223002207210291019200932B46224648
:103F780001466548FEF7AEFF68E17B68DB7A0A22F6
:103F8800934240F063810A20022400250223002284
:103F980007210291019200932B46224601465B4875
:103FA800FEF798FF52E17B681B68594A934266D135
:103FB800584A7B6813607B681B7A012293420AD0B7
:103FC8007B681B7A0422934205D07B681B7A052202
:103FD800934240F03B817B685B7A002293420FD189
:103FE80000200224002502230022082102910192C8
:103FF80000932B46224601464248FEF76BFF13E02A
:104008007B685B7A0A2293420ED10A20022400259B
:104018000223002208210291019200932B46224696
:1040280001463D48FEF756FF7B689B7A0122934282
:104038000FD1012002240025022300220821029129
:10404800019200932B46224601462E48FEF742FF76
:10405800FCE07B689B7A0B22934240F0F7800B20B0
:1040680002240025022300220821029101920093D4
:104078002B46224601462848FEF72CFFE6E07B68DF
:104088001B68264A93424DD1254A7B6813607B689A
:104098001B7A012293420AD07B681B7A042293423E
:1040A80005D07B681B7A0522934240F0CF807B685D
:1040B8005B7A022293420ED10220022400250223B9
:1040C800002208210291019200932B4622460146C4
:1040D8000C48FEF7FFFE7B689B7A0C22934240F067
:1040E800B5800C2002240025022300220821029119
:1040F800019200932B46224601460248FEF7EAFE4B
:10410800A4E000BF0000024000040240000C02408E
:10411800004C0040C8060020000802400050004043
:10412800CC0600207B681B684A4A934240F08E8088
:104138007B681B7A012293420ED07B681B7A02228D
:10414800934209D07B681B7A0422934204D07B688F
:104158001B7A052293423CD17B685B7A0622934204
:104168000ED10620022400250223002208210291F4
:10417800019200932B46224601463748FEF7AAFED5
:104188007B689B7A072293420ED1072002240025E0
:104198000223002208210291019200932B46224615
:1041A80001462D48FEF796FE7B68DB7A082293428B
:1041B8004CD1082002240025022300220821029164
:1041C800019200932B46224601462348FEF782FEC1
:1041D8003CE07B681B7A0622934209D07B681B7AF5
:1041E8000722934204D07B681B7A032293422DD185
:1041F8007B685B7A062293420ED1062002240025B2
:104208000223002208210291019200932B462246A4
:1042180001461248FEF75EFE7B681B7A072293422E
:1042280014D108200224002502230022082102912B
:10423800019200932B46224601460848FEF74AFEA3
:1042480004E000BF02E000BF00E000BF00BF083785
:10425800BD46B0BD00140140000802400000024005
:10426800B0B58EB000AF78607868FFF7D9F9786894
:10427800FFF73AFA7868FFF773F903461A46744B62
:104288001A70734B93F90030B3F1FF3F03D14FF02D
:10429800FF3300F026BC7B681B686E4A934204D04B
:1042A8007B681B686C4A934250D1FEF71BFF03469C
:1042B800FB61F869FCF7C6F804460D467B685B6845
:1042C8001846FCF7BFF84FF00002644BFCF734F9CE
:1042D80002460B4620462946FCF758FA02460B468A
:1042E800C7E9082307F1080207F110031146184629
:1042F80097ED080BFEF70EFFD7E904014FF0000217
:10430800574BFCF719F902460B4643EC172BB0EE56
:10431800470AF0EE670A00F0AFFF53EC102B104687
:104328001946FCF7A3FB03467B6397ED027BB0EECF
:10433800470AF0EE670A00F09FFF53EC102B104677
:104348001946FCF793FB03463B634FE0FEF7B2FECA
:104358000346FB62F86AFCF775F804460D467B686D
:104368005B681846FCF76EF84FF000023C4BFCF710
:10437800E3F802460B4620462946FCF707FA0246B0
:104388000B46C7E9082307F1080207F11003114695
:10439800184697ED080BFEF7BDFED7E904014FF06C
:1043A80000022F4BFCF7C8F802460B4643EC172BCC
:1043B800B0EE470AF0EE670A00F05EFF53EC102BF0
:1043C80010461946FCF752FB03467B6397ED027BC8
:1043D800B0EE470AF0EE670A00F04EFF53EC102BE0
:1043E80010461946FCF742FB03463B633B6B1A0138
:1043F8007B6B1A437B681B689A607B681B68DA686A
:104408007B689B7C19467B681B680A43DA607B687B
:104418009B7B1A4600239A4224D17B681B68DA6882
:104428007B681B6822F4F872DA607B681B681A697B
:104438007B681B6822F040021A617B681B685B6915
:104448007A68126823F4806323F001035361C8E09B
:10445800B806002000100140001401400000404050
:10446800000030407B689B7B1A464FF480731340F2
:104478004FF48072934207D17B681B68DA687B68C7
:104488001B6842F48072DA607B689B7B1A46802343
:1044980013408022934207D17B681B68DA687B68E7
:1044A8001B6842F08002DA607B689B7B1A464023D7
:1044B80013404022934207D17B681B68DA687B6807
:1044C8001B6842F04002DA607B689B7B1A46202317
:1044D80013402022934207D17B681B68DA687B6807
:1044E8001B6842F02002DA607B689B7B1A46102327
:1044F80013401022934207D17B681B68DA687B68F7
:104508001B6842F01002DA607B689B7B1A464FF406
:10451800007313404FF40072934207D17B681B6805
:104528001A697B681B6842F040021A617B689B7BB2
:104538001A464FF4806313404FF48062934207D1C8
:104548007B681B685A697B681B6842F480625A6101
:104558007B689B7B1A46012313400122934207D1B3
:104568007B681B685A697B681B6842F001025A61C4
:104578007B681B68A44A934207D100212520FEF7D7
:104588006FFD2520FEF74EFD2BE07B681B689F4AD8
:10459800934203D12620FEF745FD22E07B681B6885
:1045A8009B4A934203D12720FEF73CFD19E07B6824
:1045B8001B68984A934203D13420FEF733FD10E07C
:1045C8007B681B68944A934203D13520FEF72AFD85
:1045D80007E07B681B68914A934202D14720FEF7A7
:1045E80021FD7B681B681A697B681B7C19467B6800
:1045F8001B680A431A617B685B7C02221340DBB2AA
:104608000222934240F01E817B681B687E4A9342D7
:104618000ED1834A834B1446C03393E8070084E8DD
:10462800070010227E4BDA617D4B7F4ADA6467E02F
:104638007B681B68754A93420ED1794B794A583387
:10464800D83207CA83E807001022754B5A67744BA3
:10465800764AC3F8A42053E07B681B686C4A9342EF
:104668000FD16F4B6F4AB033F03207CA83E80700A7
:1046780010226B4BC3F8CC20694B6D4AC3F8FC2061
:104688003EE07B681B68634A934211D1644B654ADC
:1046980003F5847302F5847207CA83E807001022C1
:1046A8005F4BC3F824215E4B624AC3F8542127E0CC
:1046B8007B681B68584A934211D1594B594A03F5F4
:1046C800B07302F5907207CA83E807001022544BB2
:1046D800C3F87C21524B584AC3F8AC2110E0504B28
:1046E800504A03F5DC7302F59C7207CA83E8070099
:1046F80010224B4BC3F8D421494B504AC3F804222B
:104708004F4B93F90030184600224549582300FBC7
:1047180003F30B4418331A60494B93F900301846D9
:1047280000223F49582300FB03F30B440C331A6063
:10473800434B93F90030184600223949582300FBAF
:1047480003F30B4428331A603D4B93F900301846A5
:1047580000223349582300FB03F30B4424331A6027
:104768000022374B93F90030184691B22C4A58234F
:1047780000FB03F3134422330A461A804FF4806285
:104788002F4B93F90030184691B2254A582300FB65
:1047980003F3134420330A461A80294B93F9003057
:1047A80018464FF400321E49582300FB03F30B440C
:1047B80014331A60224B93F9003018460022184926
:1047C800582300FB03F30B4410331A601C4B93F976
:1047D800003018467B681249582200FB02F20A444E
:1047E8006C3311465822184600F036FD144B93F9E5
:1047F80000301A46582302FB03F3094A13441846AB
:10480800FDF752FE26E000BF0010014000440040C2
:1048180000480040004C0040005000400014014097
:10482800980200209853000881310008B13100082F
:10483800E1310008113200084132000871320008E5
:10484800B80600207B681B685A697B681B6822F0E1
:1048580040025A617B685B7C01221340DBB2012273
:10486800934240F00B817B681B68A04A93420ED1AB
:104878009F4AA04B1446CC3393E8070084E807000E
:1048880010229B4BDA619A4B9B4ADA6467E07B689B
:104898001B689A4A93420ED1954B964A5833E43294
:1048A80007CA83E807001022914B5A67904B944A35
:1048B800C3F8A42053E07B681B68924A93420FD147
:1048C8008B4B8C4AB033FC3207CA83E807001022AE
:1048D800874BC3F8CC20864B8B4AC3F8FC203EE0BC
:1048E8007B681B68894A934211D1814B814A03F541
:1048F800847302F58A7207CA83E8070010227C4B8A
:10490800C3F824217A4B824AC3F8542127E07B68F4
:104918001B68804A934211D1754B764A03F5B073F0
:1049280002F5967207CA83E807001022704BC3F895
:104938007C216F4B784AC3F8AC2110E06C4B6D4A70
:1049480003F5DC7302F5A27207CA83E80700102298
:10495800674BC3F8D421664B704AC3F80422704BE6
:1049680093F90030184600226149582300FB03F3ED
:104978000B4418331A606A4B93F90030184600222A
:104988005B49582300FB03F30B440C331A60644B58
:1049980093F90030184610225549582300FB03F3B9
:1049A8000B441C331A605E4B93F900301846002202
:1049B8004F49582300FB03F30B4428331A60584B24
:1049C80093F90030184600224949582300FB03F3A5
:1049D8000B4424331A600022514B93F900301846D7
:1049E80091B2434A582300FB03F3134422330A4687
:1049F8001A804FF480624A4B93F90030184691B2FE
:104A08003B4A582300FB03F3134420330A461A8019
:104A1800434B93F9003018464FF440323449582339
:104A280000FB03F30B4414331A603D4B93F9003039
:104A3800184640222E49582300FB03F30B44103339
:104A48001A60374B93F9003018467B68284958227A
:104A580000FB02F20A44143311465822184600F0AB
:104A6800FBFB2F4B93F900301A46582302FB03F344
:104A78001F4A13441846FDF717FD07E07B681B68BB
:104A88005A697B681B6822F080025A617B681B7A2E
:104A98000322934207D17B681B685A697B681B68AD
:104AA80042F008025A617B681B7A0522934207D1BB
:104AB8007B681B681A697B681B6842F480421A612C
:104AC8007B681B68DA687B681B6842F00C02DA6056
:104AD8007B681B68DA687B681B6842F40052DA60FE
:104AE800012318463837BD46B0BD00BF001001404D
:104AF800A8040020985300086931000800440040C9
:104B08009931000800480040C9310008004C0040B5
:104B1800F9310008005000402932000859320008D5
:104B2800B806002080B586B000AFF860B9601146BD
:104B38001A460B46FB8013467B71FB685B7C02229E
:104B48001343DAB2FB685A74FB685B7C002B00F0F5
:104B5800D0807B79002B0CD0754B93F90030184628
:104B680000227449582300FB03F30B4418331A60DE
:104B78000CE06F4B93F9003018464FF480726D4982
:104B8800582300FB03F30B4418331A60684B93F95E
:104B980000301846BA686749582300FB03F30B44F2
:104BA80030331A60FB681B681A1D614B93F900309B
:104BB800184611465F4A582300FB03F313442C336D
:104BC80019605B4B93F9003019465A4A582301FB88
:104BD80003F313443433FA881A80554B93F90030A1
:104BE8001A46582302FB03F3524A13441846FDF7AA
:104BF8004DFE4F4B93F900301A46582302FB03F33E
:104C08004C4A13441846FDF7A1FEFB681B685A6915
:104C1800FB681B6842F040025A61FB681B68464A01
:104C280093420CD100BF454B1B78DBB283F00103E4
:104C3800DBB2002BF7D1414B00221A7073E0FB68FE
:104C48001B683F4A93420CD100BF3E4B1B78DBB236
:104C580083F00103DBB2002BF7D13A4B00221A7024
:104C680061E0FB681B68384A93420CD100BF374BA0
:104C78001B78DBB283F00103DBB2002BF7D1334B97
:104C880000221A704FE0FB681B68314A93420CD12E
:104C980000BF304B1B78DBB283F00103DBB2002B83
:104CA800F7D12C4B00221A703DE0FB681B682A4A9A
:104CB80093420CD100BF294B1B78DBB283F0010370
:104CC800DBB2002BF7D1254B00221A702BE0FB68D2
:104CD8001B68234A934226D100BF224B1B78DBB2C4
:104CE80083F00103DBB2002BF7D11E4B00221A70B0
:104CF80019E000237B6112E0FB681B6859687B6937
:104D0800BA681344CAB21A7000BFFB681B681B68F4
:104D180003F02003002BF8D07B6901337B61FB880B
:104D28007A699A42E8DD012318461837BD4680BDE6
:104D3800B80600209802002000100140D306002089
:104D480000440040D506002000480040D706002057
:104D5800004C0040D906002000500040DB0600202F
:104D680000140140DD06002080B483B000AF034684
:104D78003960FB7197F90730002B0ADB3B68DAB220
:104D88000C4997F907301201D2B20B4483F800237B
:104D98000AE03B68DAB20849FB7903F00F03043BE9
:104DA8001201D2B20B441A7600BF0C37BD465DF82B
:104DB800047B704700E100E000ED00E080B582B0C0
:104DC80000AF78607B68013BB3F1807F01D301239A
:104DD8000FE00A4A7B68013B53600F214FF0FF3018
:104DE800FFF7C2FF054B00229A60044B07221A60A6
:104DF800002318460837BD4680BD00BF10E000E01C
:104E080080B582B000AF00F047F90823FB714FF47A
:104E1800A873BB800023FB700723BB703C4B0022A8
:104E28005A603B4B1B683A4A43F48033136000BF17
:104E3800374B1B6803F40033002BF9D0344B1B6C41
:104E4800334A43F080531364324B1B68314A43F4AE
:104E580080431360304B1B682F4A43F4E06343F0F0
:104E6800050313602A4B5B68BA781106FA781204B6
:104E78001143BA8892011143FA790A431146244A28
:104E88000B435360224B5B68214A43F48003536011
:104E98001F4B1F4A9B6893601D4B9B681C4A43F439
:104EA800A05393601A4B9B68194A43F400439360DC
:104EB800174B1B68164A43F08073136000BF144BEE
:104EC8001B6803F00073002BF9D0114B9B68104A44
:104ED80043F00203936000BF0D4B9B6803F0080387
:104EE800082BF9D100F0EAF80C4B1B68DB080C4AD8
:104EF800A2FB03235B081846FFF760FF044B5B6CBB
:104F0800034A43F48043536400BF0837BD4680BD5D
:104F18000038024000700040003C024000000020C1
:104F28001986611880B400AF094B00221A60084B3B
:104F38006FF07F425A60064B00229A60044B0522AC
:104F48001A6000231846BD465DF8047B704700BF11
:104F580010E000E090B585B004AFFFF751FFFFF710
:104F6800E1FFFBF701FE00200224042304220021B4
:104F78000291019200932346024600210B48FDF757
:104F8800A9FF0A4B1B6903F00103012B06D14FF45B
:104F9800E130FBF773FE00F00BF801E000F074F865
:104FA800002318460437BD4690BD00BF00080240E4
:104FB80080B584B000AF3048FBF796FE0346FB810E
:104FC8002D4B1B78AA2BF6D12B4B5B78552BF2D1A6
:104FD800294B1B78AA2BEED1274B5B78552BEAD1AE
:104FE800FB89023B244AD35CBB2BE4D1FB89013B00
:104FF800214AD35C662BDED1FB89063B1E4AD35C73
:105008001A06FB89053B1C49CB5C1B041A43FB8928
:10501800043B1949CB5C1B021343FA89033A16492E
:105028008A5C1343BB60FB89083B19461348FBF7AE
:10503800BBFD7860BA687B689A42BCD10E4B9A78FF
:105048000F4B1A700C4BDA780E4B1A700C4B1B78FE
:10505800A13B062BAFD801A252F823F0BF4F00089E
:10506800BF4F0008BF4F0008BF4F0008BF4F0008E0
:10507800BF4F0008BF4F0008E0060020E2060020EE
:10508800E0070020E107002080B400AF00BFBD4664
:105098005DF8047B7047000080B400AF064BD3F87E
:1050A8008830054A43F47003C2F8883000BFBD4613
:1050B8005DF8047B704700BF00ED00E080B487B066
:1050C80000AF00233B6100237B610223FB600023C8
:1050D800BB6002237B60344B9B6803F00C033B618D
:1050E8003B69082B11D03B69082B44D83B69002B3E
:1050F80003D03B69042B04D03DE02C4B2C4A1A60AA
:105108003DE02A4B2B4A1A6039E0274B5B689B0D20
:1051180003F00103BB60244B5B6803F03F037B6033
:10512800BB68002B0CD0234A7B68B2FBF3F31E4A02
:1051380052689209C2F3080202FB03F37B610BE099
:105148001B4A7B68B2FBF3F3174A52689209C2F311
:10515800080202FB03F37B61134B5B681B0C03F033
:10516800030301335B00FB607A69FB68B2FBF3F36E
:105178000E4A136003E00D4B0D4A1A6000BF0A4B3C
:105188009B681B0903F00F030B4AD35C3B61074B79
:105198001A683B6922FA03F3044A136000BF1C37FC
:1051A800BD465DF8047B70470038024000000020CF
:1051B8000024F40000127A009C5700080D48854628
:1051C800FFF76AFF0C480D490D4A002302E0D45846
:1051D800C4500433C4188C42F9D30A4A0A4C002339
:1051E80001E013600432A242FBD300F011F8FFF78C
:1051F800B1FEFEE7000002200000002004000020AD
:10520800BC57000804000020E4070020FEE7000067
:1052180070B50D4D0D4C641BA4100026A64209D193
:105228000B4D0C4C00F0A4F8641BA4100026A642F9
:1052380005D170BD55F8043B98470136EEE755F89F
:10524800043B98470136F2E7B4570008B457000802
:10525800B4570008B85700080A44914200F1FF33D8
:1052680000D1704710B511F8014B03F8014F914276
:10527800F9D110BD0000000051EC100BC1F30A5326
:105288002DE9F041A3F2FF36132E0C460546804661
:105298002EDC002E11DA32A3D3E90023FAF796FFA9
:1052A80000220023FBF7D8FB20B1002C4FDB25435D
:1052B80051D12C462146284623E02B4F374101EA9D
:1052C800070303431DD026A3D3E90023FAF77EFF83
:1052D80000220023FBF7C0FB0028EBD0002CC2BF44
:1052E8004FF480133341E41824EA07040025E1E76A
:1052F800332E0ADDB6F5806F03D102460B46FAF766
:1053080065FF41EC100BBDE8F081A3F213434FF0A9
:10531800FF37DF403842F4D011A3D3E90023FAF76E
:1053280055FF00220023FBF797FB0028C2D0002C72
:105338000ADD142E01D1013406E0C6F1340601233A
:10534800B3401D44A845F6D825EA0705B2E700256D
:105358004FF00044AEE7054C0025ABE7AFF3008003
:105368009C7500883CE4377EFFFF0F000000F03F8B
:10537800F8B500BFF8BC08BC9E467047F8B500BF3A
:08538800F8BC08BC9E4670470A
:105390000006101600061016006002401060024061
:1053A0000000000000600240886002400000000031
:1053B00000600240586002400000000000600240AF
:1053C000706002400000000000640240106402406F
:1053D0000300000000640240586402400300000023
:1053E000006002405860024003000000006002407C
:1053F0007060024003000000006002404060024014
:105400000200000000600240B8600240000000009E
:10541000006002408860024001000000006002401D
:10542000A0600240010000000060024040600240B5
:105430000700000000600240B86002400700000062
:105440000060024040600240030000000060024033
:1054500070600240030000000064024040640240AB
:105460000400000000640240B86402400400000030
:1054700000600240886002400400000000600240BA
:10548000A06002400400000000600240286002406A
:105490000400000000600240586002400400000068
:1054A00000600240406002400400000000600240D2
:1054B0007060024004000000006002401060024082
:1054C0000400000000600240B860024004000000D8
:1054D00000640240286402400500000000640240AD
:1054E000A0640240050000000060024058600240D5
:1054F0000500000000600240286002400500000036
:1055000000600240A0600240050000000060024010
:105510001060024005000000006402408864024000
:1055200006000000006402402864024006000000FB
:1055300000640240A06402400600000000640240D3
:10554000A064024006000000006402407064024053
:1055500006000000006402401064024006000000E3
:105560000064024010640240060000000064024033
:1055700028640240070000000064024040640240CA
:105580000700000000640240706402400700000051
:1055900000640240A0640240070000000064024072
:1055A000B864024007000000006402402864024022
:1055B0000700000000640240286402400700000069
:1055C00000600240A0600240030000000060024052
:1055D000886002400300000000600240B8600240A2
:1055E0000300000000600240286002400300000049
:1055F00000600240B860024003000000006002400A
:1056000070600240050000000060024088600240B7
:105610000500000000600240A0600240050000009C
:10562000006002404060024005000000006002404F
:1056300040600240050000000060024088600240B7
:1056400005000000006002401060024002000000FF
:10565000006002405860024002000000006002400A
:10566000B86002400200000000600240A0600240FA
:10567000020000000060024040600240060000009E
:1056800000600240706002400600000000600240BE
:10569000106002400600000000600240A06002406E
:1056A0000600000000600240A0600240060000000A
:1056B00000600240586002400600000000600240A6
:1056C0002860024007000000006002404060024085
:1056D00001000000000000000000000000000000C9
:1056E00000600240A0600240070000000064024029
:1056F0005864024004000000006402402864024034
:10570000010000000064024010640240000000003C
:105710000064024040640240010000000064024056
:105720002864024002000000000000002000000089
:1057300000000000400000008000000000000000A9
:105740000000010000000200000003000000000053
:105750000008000000100000000000000020000011
:1057600000400000000100000000000010000000E8
:10577000080000000400000002000000800000009B
:105780000000000000040000000000000002000013
:105790000000000000000400000004000000000001
:1057A00000000000010203040607080900000000D1
:0457B00001020304EB
:0457B400AD0100083B
:0457B800890100085B
:0457BC000024F400D1
:04000005080051C5D9
:00000001FF
